Microchip MPLAB XC8 Compiler V2.20

Linker command line:

-W-3 --edf=C:\Program Files\Microchip\xc8\v2.20\pic\dat\en_msgs.txt -cn \
  -h+dist/PIC18F26Q10/debug\Automatic_Feeder_Firmware_V3.I1.X.debug.sym \
  --cmf=dist/PIC18F26Q10/debug\Automatic_Feeder_Firmware_V3.I1.X.debug.cmf \
  -z -Q18F26Q10 -oC:\Users\Flitch\AppData\Local\Temp\s364.2 \
  --defsym=__MPLAB_BUILD=1 \
  -Mdist/PIC18F26Q10/debug/Automatic_Feeder_Firmware_V3.I1.X.debug.map -E1 \
  -ver=XC8 Compiler --acfsm=1493 -ASTACK=060h-0CFFh -pstack=STACK \
  -ACODE=00h-0FFFFh -ACONST=00h-0FFFFh -ASMALLCONST=0F00h-0FFFhx241 \
  -AMEDIUMCONST=0F00h-0FFFFh -ACOMRAM=01h-05Fh -AABS1=00h-0E1Eh \
  -ABIGRAM=01h-0E1Eh -ARAM=060h-0FFh,0100h-01FFhx13,0E00h-0E1Eh \
  -ABANK0=060h-0FFh -ABANK1=0100h-01FFh -ABANK2=0200h-02FFh \
  -ABANK3=0300h-03FFh -ABANK4=0400h-04FFh -ABANK5=0500h-05FFh \
  -ABANK6=0600h-06FFh -ABANK7=0700h-07FFh -ABANK8=0800h-08FFh \
  -ABANK9=0900h-09FFh -ABANK10=0A00h-0AFFh -ABANK11=0B00h-0BFFh \
  -ABANK12=0C00h-0CFFh -ABANK13=0D00h-0DFFh -ABANK14=0E00h-0E1Eh \
  -ASFR=0E1Fh-0EFFh,0F00h-0F5Fh,0F60h-0FFFh -ACONFIG=0300000h-030000Bh \
  -AIDLOC=0200000h-02000FFh -preset_vec=00h,intcode,intcodelo,powerup,init \
  -pramtop=0F00h -psmallconst=SMALLCONST -pmediumconst=MEDIUMCONST \
  -pconst=CONST -AFARRAM=00h-00h -AEEDATA=0310000h-03103FFh \
  -peeprom_data=EEDATA \
  -prdata=COMRAM,nvrram=COMRAM,nvbit=COMRAM,rbss=COMRAM,rbit=COMRAM \
  -pfarbss=FARRAM,fardata=FARRAM,nvFARRAM=FARRAM \
  -pintsave_regs=BIGRAM,bigbss=BIGRAM,bigdata=BIGRAM -pbss=RAM \
  -pidata=CODE,irdata=CODE,ibigdata=CODE,ifardata=CODE -prparam=COMRAM \
  C:\Users\Flitch\AppData\Local\Temp\s364.o \
  dist/PIC18F26Q10/debug\Automatic_Feeder_Firmware_V3.I1.X.debug.o 

Object code version is 3.11

Machine type is 18F26Q10



                Name                               Link     Load   Length Selector   Space Scale
C:\Users\Flitch\AppData\Local\Temp\s364.o
                idloc                            200000   200000      100        0       5
                config                           300000   300000        C        0       4
                init                                  0        0        4        0       0
dist/PIC18F26Q10/debug\Automatic_Feeder_Firmware_V3.I1.X.debug.o
                idloc                            200000   200000      100        0       5
                config                           300000   300000        C        0       4
                text25                             FD06     FD06       5A     7E83       0
                text24                             FAEC     FAEC        4     7D76       0
                text23                             FAF4     FAF4        6     7D7A       0
                text22                             FF4A     FF4A       B6     7FA5       0
                text21                             FD60     FD60       62     7EB0       0
                text20                             FB66     FB66       1C     7DB3       0
                text19                             FAF0     FAF0        4     7D78       0
                text18                             FE24     FE24       8A     7F12       0
                text17                             FBDA     FBDA       2A     7DED       0
                text16                             FB22     FB22       16     7D91       0
                text15                             FAE8     FAE8        2     7D74       0
                text14                             FC38     FC38       3C     7E1C       0
                text13                             FAEA     FAEA        2     7D75       0
                text12                             FAFA     FAFA        A     7D7D       0
                text11                             FCB2     FCB2       54     7E59       0
                text10                             FB04     FB04        A     7D82       0
                text9                              FB0E     FB0E        A     7D87       0
                text8                              FB18     FB18        A     7D8C       0
                text7                              FC74     FC74       3E     7E3A       0
                text6                              FB4E     FB4E       18     7DA7       0
                text5                              FDC2     FDC2       62     7EE1       0
                text4                              FB82     FB82       1C     7DC1       0
                text3                              FC04     FC04       34     7E02       0
                text2                              FB9E     FB9E       1E     7DCF       0
                text1                              FBBC     FBBC       1E     7DDE       0
                text0                              FEAE     FEAE       9C     7F57       0
                cstackCOMRAM                          C        C        A        1       1
                bssCOMRAM                             1        1        B        1       1
                cinit                              FB38     FB38       16     7D9C       0
                nvCOMRAM                             16       16        8        1       1

TOTAL           Name                               Link     Load   Length     Space
        CLASS   STACK          

        CLASS   CODE           
                init                                  0        0        4         0
                text25                             FD06     FD06       5A         0
                text24                             FAEC     FAEC        4         0
                text23                             FAF4     FAF4        6         0
                text22                             FF4A     FF4A       B6         0
                text21                             FD60     FD60       62         0
                text20                             FB66     FB66       1C         0
                text19                             FAF0     FAF0        4         0
                text18                             FE24     FE24       8A         0
                text17                             FBDA     FBDA       2A         0
                text16                             FB22     FB22       16         0
                text15                             FAE8     FAE8        2         0
                text14                             FC38     FC38       3C         0
                text13                             FAEA     FAEA        2         0
                text12                             FAFA     FAFA        A         0
                text11                             FCB2     FCB2       54         0
                text10                             FB04     FB04        A         0
                text9                              FB0E     FB0E        A         0
                text8                              FB18     FB18        A         0
                text7                              FC74     FC74       3E         0
                text6                              FB4E     FB4E       18         0
                text5                              FDC2     FDC2       62         0
                text4                              FB82     FB82       1C         0
                text3                              FC04     FC04       34         0
                text2                              FB9E     FB9E       1E         0
                text1                              FBBC     FBBC       1E         0
                text0                              FEAE     FEAE       9C         0
                cinit                              FB38     FB38       16         0

        CLASS   CONST          

        CLASS   SMALLCONST     

        CLASS   MEDIUMCONST    

        CLASS   COMRAM         
                cstackCOMRAM                          C        C        A         1
                bssCOMRAM                             1        1        B         1
                nvCOMRAM                             16       16        8         1

        CLASS   ABS1           
                abs_s1                              D00      D00        1         1

        CLASS   BIGRAM         

        CLASS   RAM            

        CLASS   BANK0          

        CLASS   BANK1          

        CLASS   BANK2          

        CLASS   BANK3          

        CLASS   BANK4          

        CLASS   BANK5          

        CLASS   BANK6          

        CLASS   BANK7          

        CLASS   BANK8          

        CLASS   BANK9          

        CLASS   BANK10         

        CLASS   BANK11         

        CLASS   BANK12         

        CLASS   BANK13         

        CLASS   BANK14         

        CLASS   SFR            

        CLASS   CONFIG         
                config                           300000   300000        C         4

        CLASS   IDLOC          
                idloc                            200000   200000      100         5

        CLASS   FARRAM         

        CLASS   EEDATA         



SEGMENTS        Name                           Load    Length   Top    Selector   Space  Class

                reset_vec                      000000  000004  000004         0       0  CODE    
                bssCOMRAM                      000001  00001D  00001E         1       1  COMRAM  
                text15                         00FAE8  000002  00FAEA      7D74       0  CODE    
                text13                         00FAEA  000002  00FAEC      7D75       0  CODE    
                text24                         00FAEC  000004  00FAF0      7D76       0  CODE    
                text19                         00FAF0  000004  00FAF4      7D78       0  CODE    
                text23                         00FAF4  000006  00FAFA      7D7A       0  CODE    
                text12                         00FAFA  00000A  00FB04      7D7D       0  CODE    
                text10                         00FB04  00000A  00FB0E      7D82       0  CODE    
                text9                          00FB0E  00000A  00FB18      7D87       0  CODE    
                text8                          00FB18  00000A  00FB22      7D8C       0  CODE    
                text16                         00FB22  000016  00FB38      7D91       0  CODE    
                cinit                          00FB38  000016  00FB4E      7D9C       0  CODE    
                text6                          00FB4E  000018  00FB66      7DA7       0  CODE    
                text20                         00FB66  00001C  00FB82      7DB3       0  CODE    
                text4                          00FB82  00001C  00FB9E      7DC1       0  CODE    
                text2                          00FB9E  00001E  00FBBC      7DCF       0  CODE    
                text1                          00FBBC  00001E  00FBDA      7DDE       0  CODE    
                text17                         00FBDA  00002A  00FC04      7DED       0  CODE    
                text3                          00FC04  000034  00FC38      7E02       0  CODE    
                text14                         00FC38  00003C  00FC74      7E1C       0  CODE    
                text7                          00FC74  00003E  00FCB2      7E3A       0  CODE    
                text11                         00FCB2  000054  00FD06      7E59       0  CODE    
                text25                         00FD06  00005A  00FD60      7E83       0  CODE    
                text21                         00FD60  000062  00FDC2      7EB0       0  CODE    
                text5                          00FDC2  000062  00FE24      7EE1       0  CODE    
                text18                         00FE24  00008A  00FEAE      7F12       0  CODE    
                text0                          00FEAE  00009C  00FF4A      7F57       0  CODE    
                text22                         00FF4A  0000B6  010000      7FA5       0  CODE    


UNUSED ADDRESS RANGES

        Name                Unused          Largest block    Delta
        BANK0            000060-0000FF               A0
        BANK1            000100-0001FF              100
        BANK10           000A00-000AFF              100
        BANK11           000B00-000BFF              100
        BANK12           000C00-000CFF              100
        BANK13           000D01-000DFF               FF
        BANK14           000E00-000E1E               1F
        BANK2            000200-0002FF              100
        BANK3            000300-0003FF              100
        BANK4            000400-0004FF              100
        BANK5            000500-0005FF              100
        BANK6            000600-0006FF              100
        BANK7            000700-0007FF              100
        BANK8            000800-0008FF              100
        BANK9            000900-0009FF              100
        BIGRAM           00001E-000CFF              CE2
                         000D01-000E1E              11E
        CODE             000004-00FAE7             FAE4
        COMRAM           00001E-00005F               42
        CONST            000004-00FAE7             FAE4
        EEDATA           310000-3103FF              400
        MEDIUMCONST      000F00-00FAE7             EBE8
        RAM              000060-000CFF              100
                         000D01-000E1E               FF
        SFR              000E1F-000FFF               E1
        SMALLCONST       000F00-00FAE7              100
        STACK            000060-000CFF              CA0

                                  Symbol Table

AdvanceLaneForPitch@feederLane                  cstackCOMRAM 000013
AdvanceLaneForPitch@feedingPitch                cstackCOMRAM 000010
DriveLaneMotorForward@feederLane                cstackCOMRAM 00000E
EUSART1_SetErrorHandler@interruptHandler        cstackCOMRAM 00000C
EUSART1_SetFramingErrorHandler@interruptHandler cstackCOMRAM 00000C
EUSART1_SetOverrunErrorHandler@interruptHandler cstackCOMRAM 00000C
HaltLaneMotor@feederLane                        cstackCOMRAM 00000E
IsRearSensorInterrupted@feederLane              cstackCOMRAM 00000E
IsRearSensorInterrupted@state                   cstackCOMRAM 00000F
_ANSELA                                         (abs)        000F0C
_ANSELB                                         (abs)        000F14
_ANSELC                                         (abs)        000F1C
_AdvanceLaneForPitch                            text18       00FE24
_BAUD1CON                                       (abs)        000F9E
_CRCACCH                                        (abs)        000F72
_CRCACCL                                        (abs)        000F71
_CRCCON0                                        (abs)        000F77
_CRCCON0bits                                    (abs)        000F77
_CRCCON1                                        (abs)        000F78
_CRCCON1bits                                    (abs)        000F78
_CRCDATL                                        (abs)        000F6F
_CRCXORH                                        (abs)        000F76
_CRCXORL                                        (abs)        000F75
_CRC_Initialize                                 text11       00FCB2
_CommunicationHandler                           text12       00FAFA
_DriveLaneMotorForward                          text25       00FD06
_DriveTapeMotorForward                          text24       00FAEC
_EUSART1_DefaultErrorHandler                    (abs)        000000
_EUSART1_DefaultFramingErrorHandler             (abs)        000000
_EUSART1_DefaultOverrunErrorHandler             (abs)        000000
_EUSART1_ErrorHandler                           nvCOMRAM     000018
_EUSART1_FramingErrorHandler                    nvCOMRAM     00001C
_EUSART1_Initialize                             text7        00FC74
_EUSART1_OverrunErrorHandler                    nvCOMRAM     00001A
_EUSART1_Read                                   text17       00FBDA
_EUSART1_SetErrorHandler                        text10       00FB04
_EUSART1_SetFramingErrorHandler                 text9        00FB0E
_EUSART1_SetOverrunErrorHandler                 text8        00FB18
_EUSART1_is_rx_ready                            text16       00FB22
_HaltLaneMotor                                  text21       00FD60
_HaltTapeMotor                                  text23       00FAF4
_INLVLA                                         (abs)        000F08
_INLVLB                                         (abs)        000F10
_INLVLC                                         (abs)        000F18
_INLVLE                                         (abs)        000F25
_INTCONbits                                     (abs)        000FF2
_IsRearSensorInterrupted                        text22       00FF4A
_LATA                                           (abs)        000F82
_LATAbits                                       (abs)        000F82
_LATB                                           (abs)        000F83
_LATBbits                                       (abs)        000F83
_LATC                                           (abs)        000F84
_LATCbits                                       (abs)        000F84
_MotorsDisable                                  text20       00FB66
_MotorsEnable                                   text19       00FAF0
_NVMADRH                                        (abs)        000F7A
_NVMADRL                                        (abs)        000F79
_NVMADRU                                        (abs)        000F7B
_NVMCON0bits                                    (abs)        000F7F
_NVMCON1bits                                    (abs)        000F80
_NVMCON2                                        (abs)        000F81
_NVMDATH                                        (abs)        000F7D
_NVMDATL                                        (abs)        000F7C
_ODCONA                                         (abs)        000F0A
_ODCONB                                         (abs)        000F12
_ODCONC                                         (abs)        000F1A
_OSCCON1                                        (abs)        000ED3
_OSCCON3                                        (abs)        000ED5
_OSCEN                                          (abs)        000ED7
_OSCFRQ                                         (abs)        000ED9
_OSCILLATOR_Initialize                          text6        00FB4E
_OSCTUNE                                        (abs)        000ED8
_PIN_MANAGER_Initialize                         text5        00FDC2
_PIR3bits                                       (abs)        000EC8
_PIR4bits                                       (abs)        000EC9
_PIR7bits                                       (abs)        000ECC
_PMD0                                           (abs)        000EDC
_PMD1                                           (abs)        000EDD
_PMD2                                           (abs)        000EDE
_PMD3                                           (abs)        000EDF
_PMD4                                           (abs)        000EE0
_PMD5                                           (abs)        000EE1
_PMD_Initialize                                 text4        00FB82
_PORTAbits                                      (abs)        000F8C
_PORTBbits                                      (abs)        000F8D
_PORTCbits                                      (abs)        000F8E
_PR2                                            (abs)        000FBB
_ParseMessages                                  text15       00FAE8
_RB4PPS                                         (abs)        000EEE
_RC1REG                                         (abs)        000F98
_RC1STA                                         (abs)        000F9C
_RC1STAbits                                     (abs)        000F9C
_RX1PPS                                         (abs)        000EB0
_ReceiveMessage                                 text14       00FC38
_SCANCON0                                       (abs)        000F4A
_SCANCON0bits                                   (abs)        000F4A
_SCANHADRH                                      (abs)        000F48
_SCANHADRL                                      (abs)        000F47
_SCANHADRU                                      (abs)        000F49
_SCANLADRH                                      (abs)        000F45
_SCANLADRL                                      (abs)        000F44
_SCANLADRU                                      (abs)        000F46
_SCANTRIG                                       (abs)        000F4B
_SLRCONA                                        (abs)        000F09
_SLRCONB                                        (abs)        000F11
_SLRCONC                                        (abs)        000F19
_SP1BRGH                                        (abs)        000F9B
_SP1BRGL                                        (abs)        000F9A
_SYSTEM_Initialize                              text1        00FBBC
_T1CLK                                          (abs)        000FD1
_T1CON                                          (abs)        000FCE
_T1CONbits                                      (abs)        000FCE
_T1GATE                                         (abs)        000FD0
_T1GCON                                         (abs)        000FCF
_T1GCONbits                                     (abs)        000FCF
_T2CLKCON                                       (abs)        000FBE
_T2CON                                          (abs)        000FBC
_T2CONbits                                      (abs)        000FBC
_T2HLT                                          (abs)        000FBD
_T2HLTbits                                      (abs)        000FBD
_T2INPPS                                        (abs)        000EA6
_T2PR                                           (abs)        000FBB
_T2RST                                          (abs)        000FBF
_T2RSTbits                                      (abs)        000FBF
_T2TMR                                          (abs)        000FBA
_TABLAT                                         (abs)        000FF5
_TBLPTRH                                        (abs)        000FF7
_TBLPTRL                                        (abs)        000FF6
_TBLPTRU                                        (abs)        000FF8
_TMR1H                                          (abs)        000FCD
_TMR1L                                          (abs)        000FCC
_TMR1_Initialize                                text3        00FC04
_TMR2                                           (abs)        000FBA
_TMR2_Initialize                                text2        00FB9E
_TRISA                                          (abs)        000F87
_TRISB                                          (abs)        000F88
_TRISC                                          (abs)        000F89
_TX1REG                                         (abs)        000F99
_TX1STA                                         (abs)        000F9D
_TX1STAbits                                     (abs)        000F9D
_TransmitMessages                               text13       00FAEA
_WPUA                                           (abs)        000F0B
_WPUB                                           (abs)        000F13
_WPUC                                           (abs)        000F1B
_WPUE                                           (abs)        000F28
__HRAM                                          (abs)        000000
__Habs1                                         abs1         000000
__Hbank0                                        bank0        000000
__Hbank1                                        bank1        000000
__Hbank10                                       bank10       000000
__Hbank11                                       bank11       000000
__Hbank12                                       bank12       000000
__Hbank13                                       bank13       000000
__Hbank14                                       bank14       000000
__Hbank2                                        bank2        000000
__Hbank3                                        bank3        000000
__Hbank4                                        bank4        000000
__Hbank5                                        bank5        000000
__Hbank6                                        bank6        000000
__Hbank7                                        bank7        000000
__Hbank8                                        bank8        000000
__Hbank9                                        bank9        000000
__Hbigbss                                       bigbss       000000
__Hbigdata                                      bigdata      000000
__Hbigram                                       bigram       000000
__Hbss                                          bss          000000
__HbssCOMRAM                                    bssCOMRAM    000000
__Hcinit                                        cinit        000000
__Hclrtext                                      clrtext      000000
__Hcomram                                       comram       000000
__Hconfig                                       config       30000C
__Hconst                                        const        000000
__HcstackCOMRAM                                 cstackCOMRAM 000000
__Hdata                                         data         000000
__Heeprom_data                                  eeprom_data  000000
__Hfarbss                                       farbss       000000
__Hfardata                                      fardata      000000
__Hibigdata                                     ibigdata     000000
__Hidata                                        idata        000000
__Hidloc                                        idloc        200100
__Hifardata                                     ifardata     000000
__Hinit                                         init         000004
__Hintcode                                      intcode      000000
__Hintcode_body                                 intcode_body 000000
__Hintcodelo                                    intcodelo    000000
__Hintentry                                     intentry     000000
__Hintret                                       intret       000000
__Hintsave_regs                                 intsave_regs 000000
__Hirdata                                       irdata       000000
__Hmediumconst                                  mediumconst  000000
__HnvCOMRAM                                     nvCOMRAM     000000
__HnvFARRAM                                     nvFARRAM     000000
__Hnvbit                                        nvbit        000000
__Hnvrram                                       nvrram       000000
__Hparam                                        rparam       000000
__Hpowerup                                      powerup      000000
__Hram                                          ram          000000
__Hramtop                                       ramtop       000F00
__Hrbit                                         rbit         000000
__Hrbss                                         rbss         000000
__Hrdata                                        rdata        000000
__Hreset_vec                                    reset_vec    000000
__Hrparam                                       rparam       000000
__Hsfr                                          sfr          000000
__Hsmallconst                                   smallconst   000000
__Hspace_0                                      (abs)        010000
__Hspace_1                                      (abs)        00001E
__Hspace_2                                      (abs)        000000
__Hspace_4                                      (abs)        60000C
__Hstack                                        stack        000000
__Hstruct                                       struct       000000
__Htemp                                         temp         000000
__Htext                                         text         000000
__Htext0                                        text0        000000
__Htext1                                        text1        000000
__Htext10                                       text10       000000
__Htext11                                       text11       000000
__Htext12                                       text12       000000
__Htext13                                       text13       000000
__Htext14                                       text14       000000
__Htext15                                       text15       000000
__Htext16                                       text16       000000
__Htext17                                       text17       000000
__Htext18                                       text18       000000
__Htext19                                       text19       000000
__Htext2                                        text2        000000
__Htext20                                       text20       000000
__Htext21                                       text21       000000
__Htext22                                       text22       000000
__Htext23                                       text23       000000
__Htext24                                       text24       000000
__Htext25                                       text25       000000
__Htext3                                        text3        000000
__Htext4                                        text4        000000
__Htext5                                        text5        000000
__Htext6                                        text6        000000
__Htext7                                        text7        000000
__Htext8                                        text8        000000
__Htext9                                        text9        000000
__LRAM                                          (abs)        000001
__Labs1                                         abs1         000000
__Lbank0                                        bank0        000000
__Lbank1                                        bank1        000000
__Lbank10                                       bank10       000000
__Lbank11                                       bank11       000000
__Lbank12                                       bank12       000000
__Lbank13                                       bank13       000000
__Lbank14                                       bank14       000000
__Lbank2                                        bank2        000000
__Lbank3                                        bank3        000000
__Lbank4                                        bank4        000000
__Lbank5                                        bank5        000000
__Lbank6                                        bank6        000000
__Lbank7                                        bank7        000000
__Lbank8                                        bank8        000000
__Lbank9                                        bank9        000000
__Lbigbss                                       bigbss       000000
__Lbigdata                                      bigdata      000000
__Lbigram                                       bigram       000000
__Lbss                                          bss          000000
__LbssCOMRAM                                    bssCOMRAM    000000
__Lcinit                                        cinit        000000
__Lclrtext                                      clrtext      000000
__Lcomram                                       comram       000000
__Lconfig                                       config       000000
__Lconst                                        const        000000
__LcstackCOMRAM                                 cstackCOMRAM 000000
__Ldata                                         data         000000
__Leeprom_data                                  eeprom_data  000000
__Lfarbss                                       farbss       000000
__Lfardata                                      fardata      000000
__Libigdata                                     ibigdata     000000
__Lidata                                        idata        000000
__Lidloc                                        idloc        000000
__Lifardata                                     ifardata     000000
__Linit                                         init         000000
__Lintcode                                      intcode      000000
__Lintcode_body                                 intcode_body 000000
__Lintcodelo                                    intcodelo    000000
__Lintentry                                     intentry     000000
__Lintret                                       intret       000000
__Lintsave_regs                                 intsave_regs 000000
__Lirdata                                       irdata       000000
__Lmediumconst                                  mediumconst  000000
__LnvCOMRAM                                     nvCOMRAM     000000
__LnvFARRAM                                     nvFARRAM     000000
__Lnvbit                                        nvbit        000000
__Lnvrram                                       nvrram       000000
__Lparam                                        rparam       000000
__Lpowerup                                      powerup      000000
__Lram                                          ram          000000
__Lramtop                                       ramtop       000F00
__Lrbit                                         rbit         000000
__Lrbss                                         rbss         000000
__Lrdata                                        rdata        000000
__Lreset_vec                                    reset_vec    000000
__Lrparam                                       rparam       000000
__Lsfr                                          sfr          000000
__Lsmallconst                                   smallconst   000000
__Lspace_0                                      (abs)        000000
__Lspace_1                                      (abs)        000000
__Lspace_2                                      (abs)        000000
__Lspace_4                                      (abs)        000000
__Lstack                                        stack        000000
__Lstruct                                       struct       000000
__Ltemp                                         temp         000000
__Ltext                                         text         000000
__Ltext0                                        text0        000000
__Ltext1                                        text1        000000
__Ltext10                                       text10       000000
__Ltext11                                       text11       000000
__Ltext12                                       text12       000000
__Ltext13                                       text13       000000
__Ltext14                                       text14       000000
__Ltext15                                       text15       000000
__Ltext16                                       text16       000000
__Ltext17                                       text17       000000
__Ltext18                                       text18       000000
__Ltext19                                       text19       000000
__Ltext2                                        text2        000000
__Ltext20                                       text20       000000
__Ltext21                                       text21       000000
__Ltext22                                       text22       000000
__Ltext23                                       text23       000000
__Ltext24                                       text24       000000
__Ltext25                                       text25       000000
__Ltext3                                        text3        000000
__Ltext4                                        text4        000000
__Ltext5                                        text5        000000
__Ltext6                                        text6        000000
__Ltext7                                        text7        000000
__Ltext8                                        text8        000000
__Ltext9                                        text9        000000
__S0                                            (abs)        010000
__S1                                            (abs)        00001E
__S2                                            (abs)        000000
__S4                                            (abs)        000000
__S5                                            (abs)        000000
___inthi_sp                                     stack        000000
___intlo_sp                                     stack        000000
___param_bank                                   (abs)        000000
___rparam_used                                  (abs)        000001
___sp                                           stack        000000
__accesstop                                     (abs)        000060
__activetblptr                                  (abs)        000002
__end_of_AdvanceLaneForPitch                    text18       00FEAE
__end_of_CRC_Initialize                         text11       00FD06
__end_of_CommunicationHandler                   text12       00FB04
__end_of_DriveLaneMotorForward                  text25       00FD60
__end_of_DriveTapeMotorForward                  text24       00FAF0
__end_of_EUSART1_Initialize                     text7        00FCB2
__end_of_EUSART1_Read                           text17       00FC04
__end_of_EUSART1_SetErrorHandler                text10       00FB0E
__end_of_EUSART1_SetFramingErrorHandler         text9        00FB18
__end_of_EUSART1_SetOverrunErrorHandler         text8        00FB22
__end_of_EUSART1_is_rx_ready                    text16       00FB38
__end_of_HaltLaneMotor                          text21       00FDC2
__end_of_HaltTapeMotor                          text23       00FAFA
__end_of_IsRearSensorInterrupted                text22       010000
__end_of_MotorsDisable                          text20       00FB82
__end_of_MotorsEnable                           text19       00FAF4
__end_of_OSCILLATOR_Initialize                  text6        00FB66
__end_of_PIN_MANAGER_Initialize                 text5        00FE24
__end_of_PMD_Initialize                         text4        00FB9E
__end_of_ParseMessages                          text15       00FAEA
__end_of_ReceiveMessage                         text14       00FC74
__end_of_SYSTEM_Initialize                      text1        00FBDA
__end_of_TMR1_Initialize                        text3        00FC38
__end_of_TMR2_Initialize                        text2        00FBBC
__end_of_TransmitMessages                       text13       00FAEC
__end_of__initialization                        cinit        00FB44
__end_of_main                                   text0        00FF4A
__initialization                                cinit        00FB38
__mediumconst                                   mediumconst  000000
__pbssCOMRAM                                    bssCOMRAM    000001
__pcinit                                        cinit        00FB38
__pcstackCOMRAM                                 cstackCOMRAM 00000C
__pnvCOMRAM                                     nvCOMRAM     000016
__ptext0                                        text0        00FEAE
__ptext1                                        text1        00FBBC
__ptext10                                       text10       00FB04
__ptext11                                       text11       00FCB2
__ptext12                                       text12       00FAFA
__ptext13                                       text13       00FAEA
__ptext14                                       text14       00FC38
__ptext15                                       text15       00FAE8
__ptext16                                       text16       00FB22
__ptext17                                       text17       00FBDA
__ptext18                                       text18       00FE24
__ptext19                                       text19       00FAF0
__ptext2                                        text2        00FB9E
__ptext20                                       text20       00FB66
__ptext21                                       text21       00FD60
__ptext22                                       text22       00FF4A
__ptext23                                       text23       00FAF4
__ptext24                                       text24       00FAEC
__ptext25                                       text25       00FD06
__ptext3                                        text3        00FC04
__ptext4                                        text4        00FB82
__ptext5                                        text5        00FDC2
__ptext6                                        text6        00FB4E
__ptext7                                        text7        00FC74
__ptext8                                        text8        00FB18
__ptext9                                        text9        00FB0E
__ramtop                                        ramtop       000F00
__size_of_AdvanceLaneForPitch                   (abs)        000000
__size_of_CRC_Initialize                        (abs)        000000
__size_of_CommunicationHandler                  (abs)        000000
__size_of_DriveLaneMotorForward                 (abs)        000000
__size_of_DriveTapeMotorForward                 (abs)        000000
__size_of_EUSART1_Initialize                    (abs)        000000
__size_of_EUSART1_Read                          (abs)        000000
__size_of_EUSART1_SetErrorHandler               (abs)        000000
__size_of_EUSART1_SetFramingErrorHandler        (abs)        000000
__size_of_EUSART1_SetOverrunErrorHandler        (abs)        000000
__size_of_EUSART1_is_rx_ready                   (abs)        000000
__size_of_HaltLaneMotor                         (abs)        000000
__size_of_HaltTapeMotor                         (abs)        000000
__size_of_IsRearSensorInterrupted               (abs)        000000
__size_of_MotorsDisable                         (abs)        000000
__size_of_MotorsEnable                          (abs)        000000
__size_of_OSCILLATOR_Initialize                 (abs)        000000
__size_of_PIN_MANAGER_Initialize                (abs)        000000
__size_of_PMD_Initialize                        (abs)        000000
__size_of_ParseMessages                         (abs)        000000
__size_of_ReceiveMessage                        (abs)        000000
__size_of_SYSTEM_Initialize                     (abs)        000000
__size_of_TMR1_Initialize                       (abs)        000000
__size_of_TMR2_Initialize                       (abs)        000000
__size_of_TransmitMessages                      (abs)        000000
__size_of_main                                  (abs)        000000
__smallconst                                    smallconst   000000
_bufic                                          bssCOMRAM    000008
_crcObj                                         bssCOMRAM    000009
_eusart1RxLastError                             bssCOMRAM    000007
_incomingMessage                                bssCOMRAM    000004
_main                                           text0        00FEAE
_outgoingMessage                                bssCOMRAM    000001
_sectorRAM                                      (abs)        000D00
_timer1ReloadVal                                nvCOMRAM     000016
end_of_initialization                           cinit        00FB44
intlevel0                                       text         000000
intlevel1                                       text         000000
intlevel2                                       text         000000
intlevel3                                       text         000000
stackhi                                         (abs)        000CFF
stacklo                                         (abs)        000060
start                                           init         000000
start_initialization                            cinit        00FB38


FUNCTION INFORMATION:

 *************** function _main *****************
 Defined at:
		line 54 in file "main.c"
 Parameters:    Size  Location     Type
		None
 Auto vars:     Size  Location     Type
  i               4    0        unsigned long 
 Return value:  Size  Location     Type
                  1    wreg      void 
 Registers used:
		wreg, status,2, status,0, cstack
 Tracked objects:
		On entry : 
		On exit  : 
		Unchanged: 
 Data sizes:     COMRAM   BANK0   BANK1   BANK2   BANK3   BANK4   BANK5   BANK6   BANK7   BANK8   BANK9  BANK10  BANK11  BANK12  BANK13  BANK14
      Params:         0       0       0       0       0       0       0       0       0       0       0       0       0       0       0       0
      Locals:         0       0       0       0       0       0       0       0       0       0       0       0       0       0       0       0
      Temps:          2       0       0       0       0       0       0       0       0       0       0       0       0       0       0       0
      Totals:         2       0       0       0       0       0       0       0       0       0       0       0       0       0       0       0
Total ram usage:        2 bytes
 Hardware stack levels required when called:    3
 This function calls:
		_AdvanceLaneForPitch
		_CommunicationHandler
		_MotorsDisable
		_SYSTEM_Initialize
 This function is called by:
		Startup code after reset
 This function uses a non-reentrant model


 *************** function _SYSTEM_Initialize *****************
 Defined at:
		line 50 in file "mcc_generated_files/mcc.c"
 Parameters:    Size  Location     Type
		None
 Auto vars:     Size  Location     Type
		None
 Return value:  Size  Location     Type
                  1    wreg      void 
 Registers used:
		wreg, status,2, status,0, cstack
 Tracked objects:
		On entry : 
		On exit  : 
		Unchanged: 
 Data sizes:     COMRAM   BANK0   BANK1   BANK2   BANK3   BANK4   BANK5   BANK6   BANK7   BANK8   BANK9  BANK10  BANK11  BANK12  BANK13  BANK14
      Params:         0       0       0       0       0       0       0       0       0       0       0       0       0       0       0       0
      Locals:         0       0       0       0       0       0       0       0       0       0       0       0       0       0       0       0
      Temps:          0       0       0       0       0       0       0       0       0       0       0       0       0       0       0       0
      Totals:         0       0       0       0       0       0       0       0       0       0       0       0       0       0       0       0
Total ram usage:        0 bytes
 Hardware stack levels used:    1
 Hardware stack levels required when called:    2
 This function calls:
		_CRC_Initialize
		_EUSART1_Initialize
		_OSCILLATOR_Initialize
		_PIN_MANAGER_Initialize
		_PMD_Initialize
		_TMR1_Initialize
		_TMR2_Initialize
 This function is called by:
		_main
 This function uses a non-reentrant model


 *************** function _TMR2_Initialize *****************
 Defined at:
		line 62 in file "mcc_generated_files/tmr2.c"
 Parameters:    Size  Location     Type
		None
 Auto vars:     Size  Location     Type
		None
 Return value:  Size  Location     Type
                  1    wreg      void 
 Registers used:
		wreg, status,2
 Tracked objects:
		On entry : 
		On exit  : 
		Unchanged: 
 Data sizes:     COMRAM   BANK0   BANK1   BANK2   BANK3   BANK4   BANK5   BANK6   BANK7   BANK8   BANK9  BANK10  BANK11  BANK12  BANK13  BANK14
      Params:         0       0       0       0       0       0       0       0       0       0       0       0       0       0       0       0
      Locals:         0       0       0       0       0       0       0       0       0       0       0       0       0       0       0       0
      Temps:          0       0       0       0       0       0       0       0       0       0       0       0       0       0       0       0
      Totals:         0       0       0       0       0       0       0       0       0       0       0       0       0       0       0       0
Total ram usage:        0 bytes
 Hardware stack levels used:    1
 This function calls:
		Nothing
 This function is called by:
		_SYSTEM_Initialize
 This function uses a non-reentrant model


 *************** function _TMR1_Initialize *****************
 Defined at:
		line 63 in file "mcc_generated_files/tmr1.c"
 Parameters:    Size  Location     Type
		None
 Auto vars:     Size  Location     Type
		None
 Return value:  Size  Location     Type
                  1    wreg      void 
 Registers used:
		wreg, status,2, status,0
 Tracked objects:
		On entry : 
		On exit  : 
		Unchanged: 
 Data sizes:     COMRAM   BANK0   BANK1   BANK2   BANK3   BANK4   BANK5   BANK6   BANK7   BANK8   BANK9  BANK10  BANK11  BANK12  BANK13  BANK14
      Params:         0       0       0       0       0       0       0       0       0       0       0       0       0       0       0       0
      Locals:         0       0       0       0       0       0       0       0       0       0       0       0       0       0       0       0
      Temps:          2       0       0       0       0       0       0       0       0       0       0       0       0       0       0       0
      Totals:         2       0       0       0       0       0       0       0       0       0       0       0       0       0       0       0
Total ram usage:        2 bytes
 Hardware stack levels used:    1
 This function calls:
		Nothing
 This function is called by:
		_SYSTEM_Initialize
 This function uses a non-reentrant model


 *************** function _PMD_Initialize *****************
 Defined at:
		line 75 in file "mcc_generated_files/mcc.c"
 Parameters:    Size  Location     Type
		None
 Auto vars:     Size  Location     Type
		None
 Return value:  Size  Location     Type
                  1    wreg      void 
 Registers used:
		wreg, status,2
 Tracked objects:
		On entry : 
		On exit  : 
		Unchanged: 
 Data sizes:     COMRAM   BANK0   BANK1   BANK2   BANK3   BANK4   BANK5   BANK6   BANK7   BANK8   BANK9  BANK10  BANK11  BANK12  BANK13  BANK14
      Params:         0       0       0       0       0       0       0       0       0       0       0       0       0       0       0       0
      Locals:         0       0       0       0       0       0       0       0       0       0       0       0       0       0       0       0
      Temps:          0       0       0       0       0       0       0       0       0       0       0       0       0       0       0       0
      Totals:         0       0       0       0       0       0       0       0       0       0       0       0       0       0       0       0
Total ram usage:        0 bytes
 Hardware stack levels used:    1
 This function calls:
		Nothing
 This function is called by:
		_SYSTEM_Initialize
 This function uses a non-reentrant model


 *************** function _PIN_MANAGER_Initialize *****************
 Defined at:
		line 55 in file "mcc_generated_files/pin_manager.c"
 Parameters:    Size  Location     Type
		None
 Auto vars:     Size  Location     Type
		None
 Return value:  Size  Location     Type
                  1    wreg      void 
 Registers used:
		wreg, status,2
 Tracked objects:
		On entry : 
		On exit  : 
		Unchanged: 
 Data sizes:     COMRAM   BANK0   BANK1   BANK2   BANK3   BANK4   BANK5   BANK6   BANK7   BANK8   BANK9  BANK10  BANK11  BANK12  BANK13  BANK14
      Params:         0       0       0       0       0       0       0       0       0       0       0       0       0       0       0       0
      Locals:         0       0       0       0       0       0       0       0       0       0       0       0       0       0       0       0
      Temps:          0       0       0       0       0       0       0       0       0       0       0       0       0       0       0       0
      Totals:         0       0       0       0       0       0       0       0       0       0       0       0       0       0       0       0
Total ram usage:        0 bytes
 Hardware stack levels used:    1
 This function calls:
		Nothing
 This function is called by:
		_SYSTEM_Initialize
 This function uses a non-reentrant model


 *************** function _OSCILLATOR_Initialize *****************
 Defined at:
		line 61 in file "mcc_generated_files/mcc.c"
 Parameters:    Size  Location     Type
		None
 Auto vars:     Size  Location     Type
		None
 Return value:  Size  Location     Type
                  1    wreg      void 
 Registers used:
		wreg, status,2
 Tracked objects:
		On entry : 
		On exit  : 
		Unchanged: 
 Data sizes:     COMRAM   BANK0   BANK1   BANK2   BANK3   BANK4   BANK5   BANK6   BANK7   BANK8   BANK9  BANK10  BANK11  BANK12  BANK13  BANK14
      Params:         0       0       0       0       0       0       0       0       0       0       0       0       0       0       0       0
      Locals:         0       0       0       0       0       0       0       0       0       0       0       0       0       0       0       0
      Temps:          0       0       0       0       0       0       0       0       0       0       0       0       0       0       0       0
      Totals:         0       0       0       0       0       0       0       0       0       0       0       0       0       0       0       0
Total ram usage:        0 bytes
 Hardware stack levels used:    1
 This function calls:
		Nothing
 This function is called by:
		_SYSTEM_Initialize
 This function uses a non-reentrant model


 *************** function _EUSART1_Initialize *****************
 Defined at:
		line 66 in file "mcc_generated_files/eusart1.c"
 Parameters:    Size  Location     Type
		None
 Auto vars:     Size  Location     Type
		None
 Return value:  Size  Location     Type
                  1    wreg      void 
 Registers used:
		wreg, status,2, status,0, cstack
 Tracked objects:
		On entry : 
		On exit  : 
		Unchanged: 
 Data sizes:     COMRAM   BANK0   BANK1   BANK2   BANK3   BANK4   BANK5   BANK6   BANK7   BANK8   BANK9  BANK10  BANK11  BANK12  BANK13  BANK14
      Params:         0       0       0       0       0       0       0       0       0       0       0       0       0       0       0       0
      Locals:         0       0       0       0       0       0       0       0       0       0       0       0       0       0       0       0
      Temps:          0       0       0       0       0       0       0       0       0       0       0       0       0       0       0       0
      Totals:         0       0       0       0       0       0       0       0       0       0       0       0       0       0       0       0
Total ram usage:        0 bytes
 Hardware stack levels used:    1
 Hardware stack levels required when called:    1
 This function calls:
		_EUSART1_SetErrorHandler
		_EUSART1_SetFramingErrorHandler
		_EUSART1_SetOverrunErrorHandler
 This function is called by:
		_SYSTEM_Initialize
 This function uses a non-reentrant model


 *************** function _EUSART1_SetOverrunErrorHandler *****************
 Defined at:
		line 161 in file "mcc_generated_files/eusart1.c"
 Parameters:    Size  Location     Type
  interruptHan    2    0[COMRAM] PTR FTN()void 
		 -> EUSART1_DefaultOverrunErrorHandler(1), 
 Auto vars:     Size  Location     Type
		None
 Return value:  Size  Location     Type
                  1    wreg      void 
 Registers used:
		wreg, status,2, status,0
 Tracked objects:
		On entry : 
		On exit  : 
		Unchanged: 
 Data sizes:     COMRAM   BANK0   BANK1   BANK2   BANK3   BANK4   BANK5   BANK6   BANK7   BANK8   BANK9  BANK10  BANK11  BANK12  BANK13  BANK14
      Params:         2       0       0       0       0       0       0       0       0       0       0       0       0       0       0       0
      Locals:         0       0       0       0       0       0       0       0       0       0       0       0       0       0       0       0
      Temps:          0       0       0       0       0       0       0       0       0       0       0       0       0       0       0       0
      Totals:         2       0       0       0       0       0       0       0       0       0       0       0       0       0       0       0
Total ram usage:        2 bytes
 Hardware stack levels used:    1
 This function calls:
		Nothing
 This function is called by:
		_EUSART1_Initialize
 This function uses a non-reentrant model


 *************** function _EUSART1_SetFramingErrorHandler *****************
 Defined at:
		line 157 in file "mcc_generated_files/eusart1.c"
 Parameters:    Size  Location     Type
  interruptHan    2    0[COMRAM] PTR FTN()void 
		 -> EUSART1_DefaultFramingErrorHandler(1), 
 Auto vars:     Size  Location     Type
		None
 Return value:  Size  Location     Type
                  1    wreg      void 
 Registers used:
		wreg, status,2, status,0
 Tracked objects:
		On entry : 
		On exit  : 
		Unchanged: 
 Data sizes:     COMRAM   BANK0   BANK1   BANK2   BANK3   BANK4   BANK5   BANK6   BANK7   BANK8   BANK9  BANK10  BANK11  BANK12  BANK13  BANK14
      Params:         2       0       0       0       0       0       0       0       0       0       0       0       0       0       0       0
      Locals:         0       0       0       0       0       0       0       0       0       0       0       0       0       0       0       0
      Temps:          0       0       0       0       0       0       0       0       0       0       0       0       0       0       0       0
      Totals:         2       0       0       0       0       0       0       0       0       0       0       0       0       0       0       0
Total ram usage:        2 bytes
 Hardware stack levels used:    1
 This function calls:
		Nothing
 This function is called by:
		_EUSART1_Initialize
 This function uses a non-reentrant model


 *************** function _EUSART1_SetErrorHandler *****************
 Defined at:
		line 165 in file "mcc_generated_files/eusart1.c"
 Parameters:    Size  Location     Type
  interruptHan    2    0[COMRAM] PTR FTN()void 
		 -> EUSART1_DefaultErrorHandler(1), 
 Auto vars:     Size  Location     Type
		None
 Return value:  Size  Location     Type
                  1    wreg      void 
 Registers used:
		wreg, status,2, status,0
 Tracked objects:
		On entry : 
		On exit  : 
		Unchanged: 
 Data sizes:     COMRAM   BANK0   BANK1   BANK2   BANK3   BANK4   BANK5   BANK6   BANK7   BANK8   BANK9  BANK10  BANK11  BANK12  BANK13  BANK14
      Params:         2       0       0       0       0       0       0       0       0       0       0       0       0       0       0       0
      Locals:         0       0       0       0       0       0       0       0       0       0       0       0       0       0       0       0
      Temps:          0       0       0       0       0       0       0       0       0       0       0       0       0       0       0       0
      Totals:         2       0       0       0       0       0       0       0       0       0       0       0       0       0       0       0
Total ram usage:        2 bytes
 Hardware stack levels used:    1
 This function calls:
		Nothing
 This function is called by:
		_EUSART1_Initialize
 This function uses a non-reentrant model


 *************** function _CRC_Initialize *****************
 Defined at:
		line 76 in file "mcc_generated_files/crc.c"
 Parameters:    Size  Location     Type
		None
 Auto vars:     Size  Location     Type
  seed            2    0        unsigned short 
  poly            2    0        unsigned short 
 Return value:  Size  Location     Type
                  1    wreg      void 
 Registers used:
		wreg, status,2, status,0
 Tracked objects:
		On entry : 
		On exit  : 
		Unchanged: 
 Data sizes:     COMRAM   BANK0   BANK1   BANK2   BANK3   BANK4   BANK5   BANK6   BANK7   BANK8   BANK9  BANK10  BANK11  BANK12  BANK13  BANK14
      Params:         0       0       0       0       0       0       0       0       0       0       0       0       0       0       0       0
      Locals:         4       0       0       0       0       0       0       0       0       0       0       0       0       0       0       0
      Temps:          1       0       0       0       0       0       0       0       0       0       0       0       0       0       0       0
      Totals:         5       0       0       0       0       0       0       0       0       0       0       0       0       0       0       0
Total ram usage:        5 bytes
 Hardware stack levels used:    1
 This function calls:
		Nothing
 This function is called by:
		_SYSTEM_Initialize
 This function uses a non-reentrant model


 *************** function _CommunicationHandler *****************
 Defined at:
		line 36 in file "feeder/parser.c"
 Parameters:    Size  Location     Type
		None
 Auto vars:     Size  Location     Type
		None
 Return value:  Size  Location     Type
                  1    wreg      void 
 Registers used:
		wreg, status,2, cstack
 Tracked objects:
		On entry : 
		On exit  : 
		Unchanged: 
 Data sizes:     COMRAM   BANK0   BANK1   BANK2   BANK3   BANK4   BANK5   BANK6   BANK7   BANK8   BANK9  BANK10  BANK11  BANK12  BANK13  BANK14
      Params:         0       0       0       0       0       0       0       0       0       0       0       0       0       0       0       0
      Locals:         0       0       0       0       0       0       0       0       0       0       0       0       0       0       0       0
      Temps:          0       0       0       0       0       0       0       0       0       0       0       0       0       0       0       0
      Totals:         0       0       0       0       0       0       0       0       0       0       0       0       0       0       0       0
Total ram usage:        0 bytes
 Hardware stack levels used:    1
 Hardware stack levels required when called:    2
 This function calls:
		_ReceiveMessage
		_TransmitMessages
 This function is called by:
		_main
 This function uses a non-reentrant model


 *************** function _TransmitMessages *****************
 Defined at:
		line 66 in file "feeder/parser.c"
 Parameters:    Size  Location     Type
		None
 Auto vars:     Size  Location     Type
		None
 Return value:  Size  Location     Type
                  1    wreg      void 
 Registers used:
		None
 Tracked objects:
		On entry : 
		On exit  : 
		Unchanged: 
 Data sizes:     COMRAM   BANK0   BANK1   BANK2   BANK3   BANK4   BANK5   BANK6   BANK7   BANK8   BANK9  BANK10  BANK11  BANK12  BANK13  BANK14
      Params:         0       0       0       0       0       0       0       0       0       0       0       0       0       0       0       0
      Locals:         0       0       0       0       0       0       0       0       0       0       0       0       0       0       0       0
      Temps:          0       0       0       0       0       0       0       0       0       0       0       0       0       0       0       0
      Totals:         0       0       0       0       0       0       0       0       0       0       0       0       0       0       0       0
Total ram usage:        0 bytes
 Hardware stack levels used:    1
 This function calls:
		Nothing
 This function is called by:
		_CommunicationHandler
 This function uses a non-reentrant model


 *************** function _ReceiveMessage *****************
 Defined at:
		line 42 in file "feeder/parser.c"
 Parameters:    Size  Location     Type
		None
 Auto vars:     Size  Location     Type
		None
 Return value:  Size  Location     Type
                  1    wreg      void 
 Registers used:
		wreg, status,2, cstack
 Tracked objects:
		On entry : 
		On exit  : 
		Unchanged: 
 Data sizes:     COMRAM   BANK0   BANK1   BANK2   BANK3   BANK4   BANK5   BANK6   BANK7   BANK8   BANK9  BANK10  BANK11  BANK12  BANK13  BANK14
      Params:         0       0       0       0       0       0       0       0       0       0       0       0       0       0       0       0
      Locals:         0       0       0       0       0       0       0       0       0       0       0       0       0       0       0       0
      Temps:          0       0       0       0       0       0       0       0       0       0       0       0       0       0       0       0
      Totals:         0       0       0       0       0       0       0       0       0       0       0       0       0       0       0       0
Total ram usage:        0 bytes
 Hardware stack levels used:    1
 Hardware stack levels required when called:    1
 This function calls:
		_EUSART1_Read
		_EUSART1_is_rx_ready
		_ParseMessages
 This function is called by:
		_CommunicationHandler
 This function uses a non-reentrant model


 *************** function _ParseMessages *****************
 Defined at:
		line 73 in file "feeder/parser.c"
 Parameters:    Size  Location     Type
		None
 Auto vars:     Size  Location     Type
		None
 Return value:  Size  Location     Type
                  1    wreg      void 
 Registers used:
		None
 Tracked objects:
		On entry : 
		On exit  : 
		Unchanged: 
 Data sizes:     COMRAM   BANK0   BANK1   BANK2   BANK3   BANK4   BANK5   BANK6   BANK7   BANK8   BANK9  BANK10  BANK11  BANK12  BANK13  BANK14
      Params:         0       0       0       0       0       0       0       0       0       0       0       0       0       0       0       0
      Locals:         0       0       0       0       0       0       0       0       0       0       0       0       0       0       0       0
      Temps:          0       0       0       0       0       0       0       0       0       0       0       0       0       0       0       0
      Totals:         0       0       0       0       0       0       0       0       0       0       0       0       0       0       0       0
Total ram usage:        0 bytes
 Hardware stack levels used:    1
 This function calls:
		Nothing
 This function is called by:
		_ReceiveMessage
 This function uses a non-reentrant model


 *************** function _EUSART1_is_rx_ready *****************
 Defined at:
		line 99 in file "mcc_generated_files/eusart1.c"
 Parameters:    Size  Location     Type
		None
 Auto vars:     Size  Location     Type
		None
 Return value:  Size  Location     Type
                  1    wreg      _Bool 
 Registers used:
		wreg
 Tracked objects:
		On entry : 
		On exit  : 
		Unchanged: 
 Data sizes:     COMRAM   BANK0   BANK1   BANK2   BANK3   BANK4   BANK5   BANK6   BANK7   BANK8   BANK9  BANK10  BANK11  BANK12  BANK13  BANK14
      Params:         0       0       0       0       0       0       0       0       0       0       0       0       0       0       0       0
      Locals:         0       0       0       0       0       0       0       0       0       0       0       0       0       0       0       0
      Temps:          0       0       0       0       0       0       0       0       0       0       0       0       0       0       0       0
      Totals:         0       0       0       0       0       0       0       0       0       0       0       0       0       0       0       0
Total ram usage:        0 bytes
 Hardware stack levels used:    1
 This function calls:
		Nothing
 This function is called by:
		_ReceiveMessage
 This function uses a non-reentrant model


 *************** function _EUSART1_Read *****************
 Defined at:
		line 113 in file "mcc_generated_files/eusart1.c"
 Parameters:    Size  Location     Type
		None
 Auto vars:     Size  Location     Type
		None
 Return value:  Size  Location     Type
                  1    wreg      unsigned char 
 Registers used:
		wreg, status,2
 Tracked objects:
		On entry : 
		On exit  : 
		Unchanged: 
 Data sizes:     COMRAM   BANK0   BANK1   BANK2   BANK3   BANK4   BANK5   BANK6   BANK7   BANK8   BANK9  BANK10  BANK11  BANK12  BANK13  BANK14
      Params:         0       0       0       0       0       0       0       0       0       0       0       0       0       0       0       0
      Locals:         0       0       0       0       0       0       0       0       0       0       0       0       0       0       0       0
      Temps:          0       0       0       0       0       0       0       0       0       0       0       0       0       0       0       0
      Totals:         0       0       0       0       0       0       0       0       0       0       0       0       0       0       0       0
Total ram usage:        0 bytes
 Hardware stack levels used:    1
 This function calls:
		Nothing
 This function is called by:
		_ReceiveMessage
 This function uses a non-reentrant model


 *************** function _AdvanceLaneForPitch *****************
 Defined at:
		line 38 in file "feeder/driver.c"
 Parameters:    Size  Location     Type
  feederLane      1    wreg     unsigned char 
  feedingPitch    1    4[COMRAM] unsigned char 
 Auto vars:     Size  Location     Type
  feederLane      1    7[COMRAM] unsigned char 
 Return value:  Size  Location     Type
                  1    wreg      void 
 Registers used:
		wreg, status,2, status,0, cstack
 Tracked objects:
		On entry : 
		On exit  : 
		Unchanged: 
 Data sizes:     COMRAM   BANK0   BANK1   BANK2   BANK3   BANK4   BANK5   BANK6   BANK7   BANK8   BANK9  BANK10  BANK11  BANK12  BANK13  BANK14
      Params:         1       0       0       0       0       0       0       0       0       0       0       0       0       0       0       0
      Locals:         1       0       0       0       0       0       0       0       0       0       0       0       0       0       0       0
      Temps:          2       0       0       0       0       0       0       0       0       0       0       0       0       0       0       0
      Totals:         4       0       0       0       0       0       0       0       0       0       0       0       0       0       0       0
Total ram usage:        4 bytes
 Hardware stack levels used:    1
 Hardware stack levels required when called:    2
 This function calls:
		_DriveLaneMotorForward
		_DriveTapeMotorForward
		_HaltTapeMotor
		_IsRearSensorInterrupted
		_MotorsDisable
		_MotorsEnable
 This function is called by:
		_main
 This function uses a non-reentrant model


 *************** function _MotorsEnable *****************
 Defined at:
		line 32 in file "feeder/motors.c"
 Parameters:    Size  Location     Type
		None
 Auto vars:     Size  Location     Type
		None
 Return value:  Size  Location     Type
                  1    wreg      void 
 Registers used:
		None
 Tracked objects:
		On entry : 
		On exit  : 
		Unchanged: 
 Data sizes:     COMRAM   BANK0   BANK1   BANK2   BANK3   BANK4   BANK5   BANK6   BANK7   BANK8   BANK9  BANK10  BANK11  BANK12  BANK13  BANK14
      Params:         0       0       0       0       0       0       0       0       0       0       0       0       0       0       0       0
      Locals:         0       0       0       0       0       0       0       0       0       0       0       0       0       0       0       0
      Temps:          0       0       0       0       0       0       0       0       0       0       0       0       0       0       0       0
      Totals:         0       0       0       0       0       0       0       0       0       0       0       0       0       0       0       0
Total ram usage:        0 bytes
 Hardware stack levels used:    1
 This function calls:
		Nothing
 This function is called by:
		_AdvanceLaneForPitch
 This function uses a non-reentrant model


 *************** function _MotorsDisable *****************
 Defined at:
		line 36 in file "feeder/motors.c"
 Parameters:    Size  Location     Type
		None
 Auto vars:     Size  Location     Type
		None
 Return value:  Size  Location     Type
                  1    wreg      void 
 Registers used:
		wreg, status,2, status,0, cstack
 Tracked objects:
		On entry : 
		On exit  : 
		Unchanged: 
 Data sizes:     COMRAM   BANK0   BANK1   BANK2   BANK3   BANK4   BANK5   BANK6   BANK7   BANK8   BANK9  BANK10  BANK11  BANK12  BANK13  BANK14
      Params:         0       0       0       0       0       0       0       0       0       0       0       0       0       0       0       0
      Locals:         0       0       0       0       0       0       0       0       0       0       0       0       0       0       0       0
      Temps:          0       0       0       0       0       0       0       0       0       0       0       0       0       0       0       0
      Totals:         0       0       0       0       0       0       0       0       0       0       0       0       0       0       0       0
Total ram usage:        0 bytes
 Hardware stack levels used:    1
 Hardware stack levels required when called:    1
 This function calls:
		_HaltLaneMotor
 This function is called by:
		_AdvanceLaneForPitch
		_main
 This function uses a non-reentrant model


 *************** function _HaltLaneMotor *****************
 Defined at:
		line 100 in file "feeder/motors.c"
 Parameters:    Size  Location     Type
  feederLane      1    wreg     unsigned char 
 Auto vars:     Size  Location     Type
  feederLane      1    2[COMRAM] unsigned char 
 Return value:  Size  Location     Type
                  1    wreg      void 
 Registers used:
		wreg, status,2, status,0
 Tracked objects:
		On entry : 
		On exit  : 
		Unchanged: 
 Data sizes:     COMRAM   BANK0   BANK1   BANK2   BANK3   BANK4   BANK5   BANK6   BANK7   BANK8   BANK9  BANK10  BANK11  BANK12  BANK13  BANK14
      Params:         0       0       0       0       0       0       0       0       0       0       0       0       0       0       0       0
      Locals:         1       0       0       0       0       0       0       0       0       0       0       0       0       0       0       0
      Temps:          2       0       0       0       0       0       0       0       0       0       0       0       0       0       0       0
      Totals:         3       0       0       0       0       0       0       0       0       0       0       0       0       0       0       0
Total ram usage:        3 bytes
 Hardware stack levels used:    1
 This function calls:
		Nothing
 This function is called by:
		_MotorsDisable
 This function uses a non-reentrant model


 *************** function _IsRearSensorInterrupted *****************
 Defined at:
		line 60 in file "feeder/sensors.c"
 Parameters:    Size  Location     Type
  feederLane      1    wreg     unsigned char 
 Auto vars:     Size  Location     Type
  feederLane      1    2[COMRAM] unsigned char 
  state           1    3[COMRAM] _Bool 
 Return value:  Size  Location     Type
                  1    wreg      _Bool 
 Registers used:
		wreg, status,2, status,0
 Tracked objects:
		On entry : 
		On exit  : 
		Unchanged: 
 Data sizes:     COMRAM   BANK0   BANK1   BANK2   BANK3   BANK4   BANK5   BANK6   BANK7   BANK8   BANK9  BANK10  BANK11  BANK12  BANK13  BANK14
      Params:         0       0       0       0       0       0       0       0       0       0       0       0       0       0       0       0
      Locals:         2       0       0       0       0       0       0       0       0       0       0       0       0       0       0       0
      Temps:          2       0       0       0       0       0       0       0       0       0       0       0       0       0       0       0
      Totals:         4       0       0       0       0       0       0       0       0       0       0       0       0       0       0       0
Total ram usage:        4 bytes
 Hardware stack levels used:    1
 This function calls:
		Nothing
 This function is called by:
		_AdvanceLaneForPitch
 This function uses a non-reentrant model


 *************** function _HaltTapeMotor *****************
 Defined at:
		line 129 in file "feeder/motors.c"
 Parameters:    Size  Location     Type
		None
 Auto vars:     Size  Location     Type
		None
 Return value:  Size  Location     Type
                  1    wreg      void 
 Registers used:
		None
 Tracked objects:
		On entry : 
		On exit  : 
		Unchanged: 
 Data sizes:     COMRAM   BANK0   BANK1   BANK2   BANK3   BANK4   BANK5   BANK6   BANK7   BANK8   BANK9  BANK10  BANK11  BANK12  BANK13  BANK14
      Params:         0       0       0       0       0       0       0       0       0       0       0       0       0       0       0       0
      Locals:         0       0       0       0       0       0       0       0       0       0       0       0       0       0       0       0
      Temps:          0       0       0       0       0       0       0       0       0       0       0       0       0       0       0       0
      Totals:         0       0       0       0       0       0       0       0       0       0       0       0       0       0       0       0
Total ram usage:        0 bytes
 Hardware stack levels used:    1
 This function calls:
		Nothing
 This function is called by:
		_AdvanceLaneForPitch
 This function uses a non-reentrant model


 *************** function _DriveTapeMotorForward *****************
 Defined at:
		line 121 in file "feeder/motors.c"
 Parameters:    Size  Location     Type
		None
 Auto vars:     Size  Location     Type
		None
 Return value:  Size  Location     Type
                  1    wreg      void 
 Registers used:
		None
 Tracked objects:
		On entry : 
		On exit  : 
		Unchanged: 
 Data sizes:     COMRAM   BANK0   BANK1   BANK2   BANK3   BANK4   BANK5   BANK6   BANK7   BANK8   BANK9  BANK10  BANK11  BANK12  BANK13  BANK14
      Params:         0       0       0       0       0       0       0       0       0       0       0       0       0       0       0       0
      Locals:         0       0       0       0       0       0       0       0       0       0       0       0       0       0       0       0
      Temps:          0       0       0       0       0       0       0       0       0       0       0       0       0       0       0       0
      Totals:         0       0       0       0       0       0       0       0       0       0       0       0       0       0       0       0
Total ram usage:        0 bytes
 Hardware stack levels used:    1
 This function calls:
		Nothing
 This function is called by:
		_AdvanceLaneForPitch
 This function uses a non-reentrant model


 *************** function _DriveLaneMotorForward *****************
 Defined at:
		line 44 in file "feeder/motors.c"
 Parameters:    Size  Location     Type
  feederLane      1    wreg     unsigned char 
 Auto vars:     Size  Location     Type
  feederLane      1    2[COMRAM] unsigned char 
 Return value:  Size  Location     Type
                  1    wreg      void 
 Registers used:
		wreg, status,2, status,0
 Tracked objects:
		On entry : 
		On exit  : 
		Unchanged: 
 Data sizes:     COMRAM   BANK0   BANK1   BANK2   BANK3   BANK4   BANK5   BANK6   BANK7   BANK8   BANK9  BANK10  BANK11  BANK12  BANK13  BANK14
      Params:         0       0       0       0       0       0       0       0       0       0       0       0       0       0       0       0
      Locals:         1       0       0       0       0       0       0       0       0       0       0       0       0       0       0       0
      Temps:          2       0       0       0       0       0       0       0       0       0       0       0       0       0       0       0
      Totals:         3       0       0       0       0       0       0       0       0       0       0       0       0       0       0       0
Total ram usage:        3 bytes
 Hardware stack levels used:    1
 This function calls:
		Nothing
 This function is called by:
		_AdvanceLaneForPitch
 This function uses a non-reentrant model



MODULE INFORMATION

Module		Function		Class		Link	Load	Size
feeder/parser.c
		_CommunicationHandler		CODE           	FAFA	0000	11
		_ParseMessages 		CODE           	FAE8	0000	3
		_ReceiveMessage		CODE           	FC38	0000	61
		_TransmitMessages		CODE           	FAEA	0000	3

feeder/parser.c estimated size: 78

mcc_generated_files/tmr2.c
		_TMR2_Initialize		CODE           	FB9E	0000	31

mcc_generated_files/tmr2.c estimated size: 31

feeder/driver.c
		_AdvanceLaneForPitch		CODE           	FE24	0000	139

feeder/driver.c estimated size: 139

mcc_generated_files/pin_manager.c
		_PIN_MANAGER_Initialize		CODE           	FDC2	0000	99

mcc_generated_files/pin_manager.c estimated size: 99

feeder/sensors.c
		_IsRearSensorInterrupted		CODE           	FF4A	0000	183

feeder/sensors.c estimated size: 183

mcc_generated_files/crc.c
		_CRC_Initialize		CODE           	FCB2	0000	85

mcc_generated_files/crc.c estimated size: 85

shared
		__initialization		CODE           	FB38	0000	13

shared estimated size: 13

mcc_generated_files/eusart1.c
		_EUSART1_is_rx_ready		CODE           	FB22	0000	23
		_EUSART1_Initialize		CODE           	FC74	0000	63
		_EUSART1_SetFramingErrorHandler		CODE           	FB0E	0000	11
		_EUSART1_Read  		CODE           	FBDA	0000	43
		_EUSART1_SetOverrunErrorHandler		CODE           	FB18	0000	11
		_EUSART1_SetErrorHandler		CODE           	FB04	0000	11

mcc_generated_files/eusart1.c estimated size: 162

mcc_generated_files/mcc.c
		_PMD_Initialize		CODE           	FB82	0000	29
		_OSCILLATOR_Initialize		CODE           	FB4E	0000	25
		_SYSTEM_Initialize		CODE           	FBBC	0000	31

mcc_generated_files/mcc.c estimated size: 85

mcc_generated_files/tmr1.c
		_TMR1_Initialize		CODE           	FC04	0000	53

mcc_generated_files/tmr1.c estimated size: 53

main.c
		_main          		CODE           	FEAE	0000	157

main.c estimated size: 157

feeder/motors.c
		_DriveLaneMotorForward		CODE           	FD06	0000	91
		_MotorsEnable  		CODE           	FAF0	0000	5
		_HaltTapeMotor 		CODE           	FAF4	0000	7
		_HaltLaneMotor 		CODE           	FD60	0000	99
		_MotorsDisable 		CODE           	FB66	0000	29
		_DriveTapeMotorForward		CODE           	FAEC	0000	5

feeder/motors.c estimated size: 236

