

Microchip MPLAB XC8 Assembler V2.20 build 20200408173844 
                                                                                               Thu Dec 10 23:16:59 2020

Microchip MPLAB XC8 C Compiler v2.20 (Free license) build 20200408173844 Og9 
     1                           	processor	18F26Q10
     2                           	fnconf	rparam,??,?,0
     3                           	pagewidth 120
     4                           	opt	flic
     5                           	psect	nvCOMRAM,global,class=COMRAM,space=1,delta=1,lowdata,noexec
     6                           	psect	cinit,global,reloc=2,class=CODE,delta=1
     7                           	psect	bssCOMRAM,global,class=COMRAM,space=1,delta=1,lowdata,noexec
     8                           	psect	cstackCOMRAM,global,class=COMRAM,space=1,delta=1,lowdata,noexec
     9                           	psect	text0,global,reloc=2,class=CODE,delta=1
    10                           	psect	text1,global,reloc=2,class=CODE,delta=1
    11                           	psect	text2,global,reloc=2,class=CODE,delta=1
    12                           	psect	text3,global,reloc=2,class=CODE,delta=1
    13                           	psect	text4,global,reloc=2,class=CODE,delta=1
    14                           	psect	text5,global,reloc=2,class=CODE,delta=1
    15                           	psect	text6,global,reloc=2,class=CODE,delta=1
    16                           	psect	text7,global,reloc=2,class=CODE,delta=1
    17                           	psect	text8,global,reloc=2,class=CODE,delta=1
    18                           	psect	text9,global,reloc=2,class=CODE,delta=1
    19                           	psect	text10,global,reloc=2,class=CODE,delta=1
    20                           	psect	text11,global,reloc=2,class=CODE,delta=1
    21                           	psect	text12,global,reloc=2,class=CODE,delta=1
    22                           	psect	text13,global,reloc=2,class=CODE,delta=1
    23                           	psect	text14,global,reloc=2,class=CODE,delta=1
    24                           	psect	text15,global,reloc=2,class=CODE,delta=1
    25                           	psect	text16,global,reloc=2,class=CODE,delta=1
    26                           	psect	text17,global,reloc=2,class=CODE,delta=1
    27                           	psect	text18,global,reloc=2,class=CODE,delta=1
    28                           	psect	text19,global,reloc=2,class=CODE,delta=1
    29                           	psect	text20,global,reloc=2,class=CODE,delta=1
    30                           	psect	text21,global,reloc=2,class=CODE,delta=1
    31                           	psect	text22,global,reloc=2,class=CODE,delta=1
    32                           	psect	text23,global,reloc=2,class=CODE,delta=1
    33                           	psect	text24,global,reloc=2,class=CODE,delta=1
    34                           	psect	text25,global,reloc=2,class=CODE,delta=1
    35                           	psect	intsave_regs,global,class=BIGRAM,space=1,delta=1,noexec
    36                           	psect	rparam,global,class=COMRAM,space=1,delta=1,noexec
    37                           	psect	idloc,global,abs,ovrld,class=IDLOC,space=5,delta=1,noexec
    38                           	psect	config,global,abs,ovrld,class=CONFIG,space=4,delta=1,noexec
    39                           	dabs	1,0xD00,1,_sectorRAM
    40  0000                     
    41                           ; Version 2.32
    42                           ; Generated 19/11/2020 GMT
    43                           ; 
    44                           ; Copyright © 2020, Microchip Technology Inc. and its subsidiaries ("Microchip")
    45                           ; All rights reserved.
    46                           ; 
    47                           ; This software is developed by Microchip Technology Inc. and its subsidiaries ("Microch
      +                          ip").
    48                           ; 
    49                           ; Redistribution and use in source and binary forms, with or without modification, are
    50                           ; permitted provided that the following conditions are met:
    51                           ; 
    52                           ;     1. Redistributions of source code must retain the above copyright notice, this lis
      +                          t of
    53                           ;        conditions and the following disclaimer.
    54                           ; 
    55                           ;     2. Redistributions in binary form must reproduce the above copyright notice, this 
      +                          list
    56                           ;        of conditions and the following disclaimer in the documentation and/or other
    57                           ;        materials provided with the distribution. Publication is not required when
    58                           ;        this file is used in an embedded application.
    59                           ; 
    60                           ;     3. Microchip's name may not be used to endorse or promote products derived from th
      +                          is
    61                           ;        software without specific prior written permission.
    62                           ; 
    63                           ; THIS SOFTWARE IS PROVIDED BY MICROCHIP "AS IS" AND ANY EXPRESS OR IMPLIED WARRANTIES,
    64                           ; INCLUDING, BUT NOT LIMITED TO, THE IMPLIED WARRANTIES OF MERCHANTABILITY AND FITNESS F
      +                          OR
    65                           ; PURPOSE ARE DISCLAIMED.  IN NO EVENT SHALL MICROCHIP BE LIABLE FOR ANY DIRECT, INDIREC
      +                          T,
    66                           ; INCIDENTAL, SPECIAL, EXEMPLARY, OR CONSEQUENTIAL DAMAGES (INCLUDING BUT NOT LIMITED TO
    67                           ; PROCUREMENT OF SUBSTITUTE GOODS OR SERVICES; LOSS OF USE, DATA OR PROFITS; OR BUSINESS
    68                           ; INTERRUPTION) HOWSOEVER CAUSED AND ON ANY THEORY OF LIABILITY, WHETHER IN CONTRACT, ST
      +                          RICT
    69                           ; LIABILITY, OR TORT (INCLUDING NEGLIGENCE OR OTHERWISE) ARISING IN ANY WAY OUT OF THE U
      +                          SE OF
    70                           ; THIS SOFTWARE, EVEN IF ADVISED OF THE POSSIBILITY OF SUCH DAMAGE.
    71                           ; 
    72                           ; 
    73                           ; Code-generator required, PIC18F26Q10 Definitions
    74                           ; 
    75                           ; SFR Addresses
    76  0000                     
    77 ;; Function _EUSART1_DefaultFramingErrorHandler is unused but had its address taken
    78  0000                     
    79 ;; Function _EUSART1_DefaultOverrunErrorHandler is unused but had its address taken
    80  0000                     
    81 ;; Function _EUSART1_DefaultErrorHandler is unused but had its address taken
    82  0000                     
    83                           	psect	nvCOMRAM
    84  000016                     __pnvCOMRAM:
    85                           	callstack 0
    86  000016                     _timer1ReloadVal:
    87                           	callstack 0
    88  000016                     	ds	2
    89  000018                     _EUSART1_ErrorHandler:
    90                           	callstack 0
    91  000018                     	ds	2
    92  00001A                     _EUSART1_OverrunErrorHandler:
    93                           	callstack 0
    94  00001A                     	ds	2
    95  00001C                     _EUSART1_FramingErrorHandler:
    96                           	callstack 0
    97  00001C                     	ds	2
    98  0000                     _PIR4bits	set	3785
    99  0000                     _RB4PPS	set	3822
   100  0000                     _T2INPPS	set	3750
   101  0000                     _RX1PPS	set	3760
   102  0000                     _PMD5	set	3809
   103  0000                     _PMD4	set	3808
   104  0000                     _PMD3	set	3807
   105  0000                     _PMD2	set	3806
   106  0000                     _PMD1	set	3805
   107  0000                     _PMD0	set	3804
   108  0000                     _OSCTUNE	set	3800
   109  0000                     _OSCFRQ	set	3801
   110  0000                     _OSCEN	set	3799
   111  0000                     _OSCCON3	set	3797
   112  0000                     _OSCCON1	set	3795
   113  0000                     _PIR3bits	set	3784
   114  0000                     _INLVLE	set	3877
   115  0000                     _INLVLC	set	3864
   116  0000                     _INLVLB	set	3856
   117  0000                     _INLVLA	set	3848
   118  0000                     _SLRCONC	set	3865
   119  0000                     _SLRCONB	set	3857
   120  0000                     _SLRCONA	set	3849
   121  0000                     _ODCONC	set	3866
   122  0000                     _ODCONB	set	3858
   123  0000                     _ODCONA	set	3850
   124  0000                     _WPUC	set	3867
   125  0000                     _WPUA	set	3851
   126  0000                     _WPUB	set	3859
   127  0000                     _WPUE	set	3880
   128  0000                     _ANSELA	set	3852
   129  0000                     _ANSELB	set	3860
   130  0000                     _ANSELC	set	3868
   131  0000                     _SCANTRIG	set	3915
   132  0000                     _SCANHADRL	set	3911
   133  0000                     _SCANHADRH	set	3912
   134  0000                     _SCANHADRU	set	3913
   135  0000                     _SCANLADRL	set	3908
   136  0000                     _SCANLADRH	set	3909
   137  0000                     _SCANLADRU	set	3910
   138  0000                     _SCANCON0	set	3914
   139  0000                     _T2CON	set	4028
   140  0000                     _T2TMR	set	4026
   141  0000                     _T2PR	set	4027
   142  0000                     _T2RST	set	4031
   143  0000                     _T2HLT	set	4029
   144  0000                     _T2CLKCON	set	4030
   145  0000                     _T1CON	set	4046
   146  0000                     _TMR1L	set	4044
   147  0000                     _TMR1H	set	4045
   148  0000                     _T1CLK	set	4049
   149  0000                     _T1GATE	set	4048
   150  0000                     _T1GCON	set	4047
   151  0000                     _TRISC	set	3977
   152  0000                     _TRISB	set	3976
   153  0000                     _TRISA	set	3975
   154  0000                     _LATC	set	3972
   155  0000                     _LATB	set	3971
   156  0000                     _LATA	set	3970
   157  0000                     _RC1REG	set	3992
   158  0000                     _RC1STAbits	set	3996
   159  0000                     _SP1BRGH	set	3995
   160  0000                     _SP1BRGL	set	3994
   161  0000                     _TX1STA	set	3997
   162  0000                     _RC1STA	set	3996
   163  0000                     _BAUD1CON	set	3998
   164  0000                     _CRCCON1bits	set	3960
   165  0000                     _CRCXORL	set	3957
   166  0000                     _CRCXORH	set	3958
   167  0000                     _CRCACCH	set	3954
   168  0000                     _CRCACCL	set	3953
   169  0000                     _CRCCON1	set	3960
   170  0000                     _CRCCON0	set	3959
   171  0000                     _PORTAbits	set	3980
   172  0000                     _PORTCbits	set	3982
   173  0000                     _PORTBbits	set	3981
   174  0000                     _LATAbits	set	3970
   175  0000                     _LATBbits	set	3971
   176  0000                     _LATCbits	set	3972
   177                           
   178                           ; #config settings
   179                           
   180                           	psect	cinit
   181  00FC44                     __pcinit:
   182                           	callstack 0
   183  00FC44                     start_initialization:
   184                           	callstack 0
   185  00FC44                     __initialization:
   186                           	callstack 0
   187                           
   188                           ; Clear objects allocated to COMRAM (11 bytes)
   189  00FC44  EE00  F001         	lfsr	0,__pbssCOMRAM
   190  00FC48  0E0B               	movlw	11
   191  00FC4A                     clear_0:
   192  00FC4A  6AEE               	clrf	postinc0,c
   193  00FC4C  06E8               	decf	wreg,f,c
   194  00FC4E  E1FD               	bnz	clear_0
   195  00FC50                     end_of_initialization:
   196                           	callstack 0
   197  00FC50                     __end_of__initialization:
   198                           	callstack 0
   199  00FC50  0E00               	movlw	low (__Lmediumconst shr (0+16))
   200  00FC52  6EF8               	movwf	tblptru,c
   201  00FC54  0100               	movlb	0
   202  00FC56  EFB5  F07F         	goto	_main	;jump to C main() function
   203                           
   204                           	psect	bssCOMRAM
   205  000001                     __pbssCOMRAM:
   206                           	callstack 0
   207  000001                     _outgoingMessage:
   208                           	callstack 0
   209  000001                     	ds	3
   210  000004                     _incomingMessage:
   211                           	callstack 0
   212  000004                     	ds	3
   213  000007                     _eusart1RxLastError:
   214                           	callstack 0
   215  000007                     	ds	1
   216  000008                     _bufic:
   217                           	callstack 0
   218  000008                     	ds	1
   219  000009                     _crcObj:
   220                           	callstack 0
   221  000009                     	ds	3
   222                           
   223                           	psect	cstackCOMRAM
   224  00000C                     __pcstackCOMRAM:
   225                           	callstack 0
   226  00000C                     ??_DriveLaneMotorForward:
   227  00000C                     ??_IsRearSensorInterrupted:
   228  00000C                     ??_HaltLaneMotor:
   229  00000C                     ??_TMR1_Initialize:
   230  00000C                     ??_CRC_Initialize:
   231  00000C                     EUSART1_SetFramingErrorHandler@interruptHandler:
   232                           	callstack 0
   233  00000C                     EUSART1_SetOverrunErrorHandler@interruptHandler:
   234                           	callstack 0
   235  00000C                     EUSART1_SetErrorHandler@interruptHandler:
   236                           	callstack 0
   237                           
   238                           ; 2 bytes @ 0x0
   239  00000C                     	ds	1
   240  00000D                     CRC_Initialize@poly:
   241                           	callstack 0
   242                           
   243                           ; 2 bytes @ 0x1
   244  00000D                     	ds	1
   245  00000E                     DriveLaneMotorForward@feederLane:
   246                           	callstack 0
   247  00000E                     HaltLaneMotor@feederLane:
   248                           	callstack 0
   249  00000E                     IsRearSensorInterrupted@feederLane:
   250                           	callstack 0
   251                           
   252                           ; 1 bytes @ 0x2
   253  00000E                     	ds	1
   254  00000F                     IsRearSensorInterrupted@state:
   255                           	callstack 0
   256  00000F                     CRC_Initialize@seed:
   257                           	callstack 0
   258                           
   259                           ; 2 bytes @ 0x3
   260  00000F                     	ds	1
   261  000010                     AdvanceLaneForPitch@feedingPitch:
   262                           	callstack 0
   263                           
   264                           ; 1 bytes @ 0x4
   265  000010                     	ds	1
   266  000011                     ??_AdvanceLaneForPitch:
   267  000011                     
   268                           ; 1 bytes @ 0x5
   269  000011                     	ds	2
   270  000013                     AdvanceLaneForPitch@feederLane:
   271                           	callstack 0
   272                           
   273                           ; 1 bytes @ 0x7
   274  000013                     	ds	1
   275  000014                     ??_main:
   276                           
   277                           ; 1 bytes @ 0x8
   278  000014                     	ds	2
   279                           
   280 ;;
   281 ;;Main: autosize = 0, tempsize = 2, incstack = 0, save=0
   282 ;;
   283 ;; *************** function _main *****************
   284 ;; Defined at:
   285 ;;		line 54 in file "main.c"
   286 ;; Parameters:    Size  Location     Type
   287 ;;		None
   288 ;; Auto vars:     Size  Location     Type
   289 ;;  i               4    0        unsigned long 
   290 ;; Return value:  Size  Location     Type
   291 ;;                  1    wreg      void 
   292 ;; Registers used:
   293 ;;		wreg, status,2, status,0, cstack
   294 ;; Tracked objects:
   295 ;;		On entry : 0/0
   296 ;;		On exit  : 3F/E
   297 ;;		Unchanged: 0/0
   298 ;; Data sizes:     COMRAM   BANK0   BANK1   BANK2   BANK3   BANK4   BANK5   BANK6   BANK7   BANK8   BANK9  BANK10  BANK1
      +1  BANK12  BANK13  BANK14
   299 ;;      Params:         0       0       0       0       0       0       0       0       0       0       0       0       
      +0       0       0       0
   300 ;;      Locals:         0       0       0       0       0       0       0       0       0       0       0       0       
      +0       0       0       0
   301 ;;      Temps:          2       0       0       0       0       0       0       0       0       0       0       0       
      +0       0       0       0
   302 ;;      Totals:         2       0       0       0       0       0       0       0       0       0       0       0       
      +0       0       0       0
   303 ;;Total ram usage:        2 bytes
   304 ;; Hardware stack levels required when called:    3
   305 ;; This function calls:
   306 ;;		_AdvanceLaneForPitch
   307 ;;		_CommunicationHandler
   308 ;;		_MotorsDisable
   309 ;;		_SYSTEM_Initialize
   310 ;; This function is called by:
   311 ;;		Startup code after reset
   312 ;; This function uses a non-reentrant model
   313 ;;
   314                           
   315                           	psect	text0
   316  00FF6A                     __ptext0:
   317                           	callstack 0
   318  00FF6A                     _main:
   319                           	callstack 28
   320                           
   321                           ;main.c: 56:     SYSTEM_Initialize();
   322                           
   323                           ;incstack = 0
   324  00FF6A  EC58  F07E         	call	_SYSTEM_Initialize	;wreg free
   325                           
   326                           ;main.c: 74:     MotorsDisable();
   327  00FF6E  EC2D  F07E         	call	_MotorsDisable	;wreg free
   328  00FF72                     l697:
   329                           
   330                           ;main.c: 84:         uint32_t i;;main.c: 87:                 AdvanceLaneForPitch(1, 1);
   331  00FF72  0E01               	movlw	1
   332  00FF74  6E10               	movwf	AdvanceLaneForPitch@feedingPitch^0,c
   333  00FF76  0E01               	movlw	1
   334  00FF78  EC82  F07F         	call	_AdvanceLaneForPitch
   335                           
   336                           ;main.c: 88:                 _delay((unsigned long)((500)*(64000000/4000.0)));
   337  00FF7C  0E29               	movlw	41
   338  00FF7E  6E15               	movwf	(??_main+1)^0,c
   339  00FF80  0E96               	movlw	150
   340  00FF82  6E14               	movwf	??_main^0,c
   341  00FF84  0E7F               	movlw	127
   342  00FF86                     u207:
   343  00FF86  2EE8               	decfsz	wreg,f,c
   344  00FF88  D7FE               	bra	u207
   345  00FF8A  2E14               	decfsz	??_main^0,f,c
   346  00FF8C  D7FC               	bra	u207
   347  00FF8E  2E15               	decfsz	(??_main+1)^0,f,c
   348  00FF90  D7FA               	bra	u207
   349  00FF92  F000               	nop	
   350                           
   351                           ;main.c: 89:                 AdvanceLaneForPitch(2, 1);
   352  00FF94  0E01               	movlw	1
   353  00FF96  6E10               	movwf	AdvanceLaneForPitch@feedingPitch^0,c
   354  00FF98  0E02               	movlw	2
   355  00FF9A  EC82  F07F         	call	_AdvanceLaneForPitch
   356                           
   357                           ;main.c: 90:                 _delay((unsigned long)((500)*(64000000/4000.0)));
   358  00FF9E  0E29               	movlw	41
   359  00FFA0  6E15               	movwf	(??_main+1)^0,c
   360  00FFA2  0E96               	movlw	150
   361  00FFA4  6E14               	movwf	??_main^0,c
   362  00FFA6  0E7F               	movlw	127
   363  00FFA8                     u217:
   364  00FFA8  2EE8               	decfsz	wreg,f,c
   365  00FFAA  D7FE               	bra	u217
   366  00FFAC  2E14               	decfsz	??_main^0,f,c
   367  00FFAE  D7FC               	bra	u217
   368  00FFB0  2E15               	decfsz	(??_main+1)^0,f,c
   369  00FFB2  D7FA               	bra	u217
   370  00FFB4  F000               	nop	
   371                           
   372                           ;main.c: 91:                 AdvanceLaneForPitch(3, 1);
   373  00FFB6  0E01               	movlw	1
   374  00FFB8  6E10               	movwf	AdvanceLaneForPitch@feedingPitch^0,c
   375  00FFBA  0E03               	movlw	3
   376  00FFBC  EC82  F07F         	call	_AdvanceLaneForPitch
   377                           
   378                           ;main.c: 92:                 _delay((unsigned long)((500)*(64000000/4000.0)));
   379  00FFC0  0E29               	movlw	41
   380  00FFC2  6E15               	movwf	(??_main+1)^0,c
   381  00FFC4  0E96               	movlw	150
   382  00FFC6  6E14               	movwf	??_main^0,c
   383  00FFC8  0E7F               	movlw	127
   384  00FFCA                     u227:
   385  00FFCA  2EE8               	decfsz	wreg,f,c
   386  00FFCC  D7FE               	bra	u227
   387  00FFCE  2E14               	decfsz	??_main^0,f,c
   388  00FFD0  D7FC               	bra	u227
   389  00FFD2  2E15               	decfsz	(??_main+1)^0,f,c
   390  00FFD4  D7FA               	bra	u227
   391  00FFD6  F000               	nop	
   392                           
   393                           ;main.c: 93:                 AdvanceLaneForPitch(4, 1);
   394  00FFD8  0E01               	movlw	1
   395  00FFDA  6E10               	movwf	AdvanceLaneForPitch@feedingPitch^0,c
   396  00FFDC  0E04               	movlw	4
   397  00FFDE  EC82  F07F         	call	_AdvanceLaneForPitch
   398                           
   399                           ;main.c: 94:                 _delay((unsigned long)((500)*(64000000/4000.0)));
   400  00FFE2  0E29               	movlw	41
   401  00FFE4  6E15               	movwf	(??_main+1)^0,c
   402  00FFE6  0E96               	movlw	150
   403  00FFE8  6E14               	movwf	??_main^0,c
   404  00FFEA  0E7F               	movlw	127
   405  00FFEC                     u237:
   406  00FFEC  2EE8               	decfsz	wreg,f,c
   407  00FFEE  D7FE               	bra	u237
   408  00FFF0  2E14               	decfsz	??_main^0,f,c
   409  00FFF2  D7FC               	bra	u237
   410  00FFF4  2E15               	decfsz	(??_main+1)^0,f,c
   411  00FFF6  D7FA               	bra	u237
   412  00FFF8  F000               	nop	
   413                           
   414                           ;main.c: 96:         CommunicationHandler();
   415  00FFFA  ECF2  F07D         	call	_CommunicationHandler	;wreg free
   416  00FFFE  D7B9               	goto	l697
   417  010000                     __end_of_main:
   418                           	callstack 0
   419                           
   420 ;; *************** function _SYSTEM_Initialize *****************
   421 ;; Defined at:
   422 ;;		line 50 in file "mcc_generated_files/mcc.c"
   423 ;; Parameters:    Size  Location     Type
   424 ;;		None
   425 ;; Auto vars:     Size  Location     Type
   426 ;;		None
   427 ;; Return value:  Size  Location     Type
   428 ;;                  1    wreg      void 
   429 ;; Registers used:
   430 ;;		wreg, status,2, status,0, cstack
   431 ;; Tracked objects:
   432 ;;		On entry : 0/0
   433 ;;		On exit  : 3F/E
   434 ;;		Unchanged: 0/0
   435 ;; Data sizes:     COMRAM   BANK0   BANK1   BANK2   BANK3   BANK4   BANK5   BANK6   BANK7   BANK8   BANK9  BANK10  BANK1
      +1  BANK12  BANK13  BANK14
   436 ;;      Params:         0       0       0       0       0       0       0       0       0       0       0       0       
      +0       0       0       0
   437 ;;      Locals:         0       0       0       0       0       0       0       0       0       0       0       0       
      +0       0       0       0
   438 ;;      Temps:          0       0       0       0       0       0       0       0       0       0       0       0       
      +0       0       0       0
   439 ;;      Totals:         0       0       0       0       0       0       0       0       0       0       0       0       
      +0       0       0       0
   440 ;;Total ram usage:        0 bytes
   441 ;; Hardware stack levels used:    1
   442 ;; Hardware stack levels required when called:    2
   443 ;; This function calls:
   444 ;;		_CRC_Initialize
   445 ;;		_EUSART1_Initialize
   446 ;;		_OSCILLATOR_Initialize
   447 ;;		_PIN_MANAGER_Initialize
   448 ;;		_PMD_Initialize
   449 ;;		_TMR1_Initialize
   450 ;;		_TMR2_Initialize
   451 ;; This function is called by:
   452 ;;		_main
   453 ;; This function uses a non-reentrant model
   454 ;;
   455                           
   456                           	psect	text1
   457  00FCB0                     __ptext1:
   458                           	callstack 0
   459  00FCB0                     _SYSTEM_Initialize:
   460                           	callstack 28
   461                           
   462                           ;mcc_generated_files/mcc.c: 52:     PMD_Initialize();
   463                           
   464                           ; BSR set to: 14
   465                           ;incstack = 0
   466  00FCB0  EC3B  F07E         	call	_PMD_Initialize	;wreg free
   467                           
   468                           ;mcc_generated_files/mcc.c: 53:     PIN_MANAGER_Initialize();
   469  00FCB4  EC1F  F07F         	call	_PIN_MANAGER_Initialize	;wreg free
   470                           
   471                           ;mcc_generated_files/mcc.c: 54:     OSCILLATOR_Initialize();
   472  00FCB8  EC17  F07E         	call	_OSCILLATOR_Initialize	;wreg free
   473                           
   474                           ; BSR set to: 14
   475                           ;mcc_generated_files/mcc.c: 55:     CRC_Initialize();
   476  00FCBC  EC50  F07F         	call	_CRC_Initialize	;wreg free
   477                           
   478                           ; BSR set to: 15
   479                           ;mcc_generated_files/mcc.c: 56:     TMR2_Initialize();
   480  00FCC0  EC49  F07E         	call	_TMR2_Initialize	;wreg free
   481                           
   482                           ;mcc_generated_files/mcc.c: 57:     TMR1_Initialize();
   483  00FCC4  EC77  F07E         	call	_TMR1_Initialize	;wreg free
   484                           
   485                           ;mcc_generated_files/mcc.c: 58:     EUSART1_Initialize();
   486  00FCC8  ECAF  F07E         	call	_EUSART1_Initialize	;wreg free
   487                           
   488                           ; BSR set to: 14
   489  00FCCC  0012               	return		;funcret
   490  00FCCE                     __end_of_SYSTEM_Initialize:
   491                           	callstack 0
   492                           
   493 ;; *************** function _TMR2_Initialize *****************
   494 ;; Defined at:
   495 ;;		line 62 in file "mcc_generated_files/tmr2.c"
   496 ;; Parameters:    Size  Location     Type
   497 ;;		None
   498 ;; Auto vars:     Size  Location     Type
   499 ;;		None
   500 ;; Return value:  Size  Location     Type
   501 ;;                  1    wreg      void 
   502 ;; Registers used:
   503 ;;		wreg, status,2
   504 ;; Tracked objects:
   505 ;;		On entry : 3F/F
   506 ;;		On exit  : 3F/E
   507 ;;		Unchanged: 0/0
   508 ;; Data sizes:     COMRAM   BANK0   BANK1   BANK2   BANK3   BANK4   BANK5   BANK6   BANK7   BANK8   BANK9  BANK10  BANK1
      +1  BANK12  BANK13  BANK14
   509 ;;      Params:         0       0       0       0       0       0       0       0       0       0       0       0       
      +0       0       0       0
   510 ;;      Locals:         0       0       0       0       0       0       0       0       0       0       0       0       
      +0       0       0       0
   511 ;;      Temps:          0       0       0       0       0       0       0       0       0       0       0       0       
      +0       0       0       0
   512 ;;      Totals:         0       0       0       0       0       0       0       0       0       0       0       0       
      +0       0       0       0
   513 ;;Total ram usage:        0 bytes
   514 ;; Hardware stack levels used:    1
   515 ;; This function calls:
   516 ;;		Nothing
   517 ;; This function is called by:
   518 ;;		_SYSTEM_Initialize
   519 ;; This function uses a non-reentrant model
   520 ;;
   521                           
   522                           	psect	text2
   523  00FC92                     __ptext2:
   524                           	callstack 0
   525  00FC92                     _TMR2_Initialize:
   526                           	callstack 29
   527                           
   528                           ; BSR set to: 15
   529                           ;mcc_generated_files/tmr2.c: 67:     T2CLKCON = 0x04;
   530                           
   531                           ; BSR set to: 14
   532                           ;incstack = 0
   533  00FC92  0E04               	movlw	4
   534  00FC94  6EBE               	movwf	190,c	;volatile
   535                           
   536                           ;mcc_generated_files/tmr2.c: 70:     T2HLT = 0x28;
   537  00FC96  0E28               	movlw	40
   538  00FC98  6EBD               	movwf	189,c	;volatile
   539                           
   540                           ;mcc_generated_files/tmr2.c: 73:     T2RST = 0x00;
   541  00FC9A  0E00               	movlw	0
   542  00FC9C  6EBF               	movwf	191,c	;volatile
   543                           
   544                           ;mcc_generated_files/tmr2.c: 76:     T2PR = 0xF1;
   545  00FC9E  0EF1               	movlw	241
   546  00FCA0  6EBB               	movwf	187,c	;volatile
   547                           
   548                           ;mcc_generated_files/tmr2.c: 79:     T2TMR = 0x00;
   549  00FCA2  0E00               	movlw	0
   550  00FCA4  6EBA               	movwf	186,c	;volatile
   551                           
   552                           ; BSR set to: 15
   553                           ;mcc_generated_files/tmr2.c: 82:     PIR4bits.TMR2IF = 0;
   554  00FCA6  010E               	movlb	14	; () banked
   555  00FCA8  93C9               	bcf	201,1,b	;volatile
   556                           
   557                           ;mcc_generated_files/tmr2.c: 85:     T2CON = 0xF0;
   558  00FCAA  0EF0               	movlw	240
   559  00FCAC  6EBC               	movwf	188,c	;volatile
   560                           
   561                           ; BSR set to: 14
   562  00FCAE  0012               	return		;funcret
   563  00FCB0                     __end_of_TMR2_Initialize:
   564                           	callstack 0
   565                           
   566 ;; *************** function _TMR1_Initialize *****************
   567 ;; Defined at:
   568 ;;		line 63 in file "mcc_generated_files/tmr1.c"
   569 ;; Parameters:    Size  Location     Type
   570 ;;		None
   571 ;; Auto vars:     Size  Location     Type
   572 ;;		None
   573 ;; Return value:  Size  Location     Type
   574 ;;                  1    wreg      void 
   575 ;; Registers used:
   576 ;;		wreg, status,2, status,0
   577 ;; Tracked objects:
   578 ;;		On entry : 3F/E
   579 ;;		On exit  : 3F/E
   580 ;;		Unchanged: 0/0
   581 ;; Data sizes:     COMRAM   BANK0   BANK1   BANK2   BANK3   BANK4   BANK5   BANK6   BANK7   BANK8   BANK9  BANK10  BANK1
      +1  BANK12  BANK13  BANK14
   582 ;;      Params:         0       0       0       0       0       0       0       0       0       0       0       0       
      +0       0       0       0
   583 ;;      Locals:         0       0       0       0       0       0       0       0       0       0       0       0       
      +0       0       0       0
   584 ;;      Temps:          2       0       0       0       0       0       0       0       0       0       0       0       
      +0       0       0       0
   585 ;;      Totals:         2       0       0       0       0       0       0       0       0       0       0       0       
      +0       0       0       0
   586 ;;Total ram usage:        2 bytes
   587 ;; Hardware stack levels used:    1
   588 ;; This function calls:
   589 ;;		Nothing
   590 ;; This function is called by:
   591 ;;		_SYSTEM_Initialize
   592 ;; This function uses a non-reentrant model
   593 ;;
   594                           
   595                           	psect	text3
   596  00FCEE                     __ptext3:
   597                           	callstack 0
   598  00FCEE                     _TMR1_Initialize:
   599                           	callstack 29
   600                           
   601                           ; BSR set to: 14
   602                           ;mcc_generated_files/tmr1.c: 68:     T1GCON = 0x00;
   603                           
   604                           ; BSR set to: 14
   605                           ;incstack = 0
   606  00FCEE  0E00               	movlw	0
   607  00FCF0  6ECF               	movwf	207,c	;volatile
   608                           
   609                           ;mcc_generated_files/tmr1.c: 71:     T1GATE = 0x00;
   610  00FCF2  0E00               	movlw	0
   611  00FCF4  6ED0               	movwf	208,c	;volatile
   612                           
   613                           ;mcc_generated_files/tmr1.c: 74:     T1CLK = 0x04;
   614  00FCF6  0E04               	movlw	4
   615  00FCF8  6ED1               	movwf	209,c	;volatile
   616                           
   617                           ;mcc_generated_files/tmr1.c: 77:     TMR1H = 0xD2;
   618  00FCFA  0ED2               	movlw	210
   619  00FCFC  6ECD               	movwf	205,c	;volatile
   620                           
   621                           ;mcc_generated_files/tmr1.c: 80:     TMR1L = 0x97;
   622  00FCFE  0E97               	movlw	151
   623  00FD00  6ECC               	movwf	204,c	;volatile
   624                           
   625                           ; BSR set to: 14
   626                           ;mcc_generated_files/tmr1.c: 83:     PIR4bits.TMR1IF = 0;
   627  00FD02  91C9               	bcf	201,0,b	;volatile
   628                           
   629                           ; BSR set to: 14
   630                           ;mcc_generated_files/tmr1.c: 86:     timer1ReloadVal=(uint16_t)((TMR1H << 8) | TMR1L);
   631  00FD04  50CC               	movf	204,w,c	;volatile
   632  00FD06  CFCD F00C          	movff	4045,??_TMR1_Initialize	;volatile
   633  00FD0A  6A0D               	clrf	(??_TMR1_Initialize+1)^0,c
   634  00FD0C  C00C  F00D         	movff	??_TMR1_Initialize,??_TMR1_Initialize+1
   635  00FD10  6A0C               	clrf	??_TMR1_Initialize^0,c
   636  00FD12  100C               	iorwf	??_TMR1_Initialize^0,w,c
   637  00FD14  6E16               	movwf	_timer1ReloadVal^0,c	;volatile
   638  00FD16  500D               	movf	(??_TMR1_Initialize+1)^0,w,c
   639  00FD18  6E17               	movwf	(_timer1ReloadVal+1)^0,c	;volatile
   640                           
   641                           ; BSR set to: 14
   642                           ;mcc_generated_files/tmr1.c: 89:     T1CON = 0x31;
   643  00FD1A  0E31               	movlw	49
   644  00FD1C  6ECE               	movwf	206,c	;volatile
   645                           
   646                           ; BSR set to: 14
   647  00FD1E  0012               	return		;funcret
   648  00FD20                     __end_of_TMR1_Initialize:
   649                           	callstack 0
   650                           
   651 ;; *************** function _PMD_Initialize *****************
   652 ;; Defined at:
   653 ;;		line 75 in file "mcc_generated_files/mcc.c"
   654 ;; Parameters:    Size  Location     Type
   655 ;;		None
   656 ;; Auto vars:     Size  Location     Type
   657 ;;		None
   658 ;; Return value:  Size  Location     Type
   659 ;;                  1    wreg      void 
   660 ;; Registers used:
   661 ;;		wreg, status,2
   662 ;; Tracked objects:
   663 ;;		On entry : 0/0
   664 ;;		On exit  : 3F/E
   665 ;;		Unchanged: 0/0
   666 ;; Data sizes:     COMRAM   BANK0   BANK1   BANK2   BANK3   BANK4   BANK5   BANK6   BANK7   BANK8   BANK9  BANK10  BANK1
      +1  BANK12  BANK13  BANK14
   667 ;;      Params:         0       0       0       0       0       0       0       0       0       0       0       0       
      +0       0       0       0
   668 ;;      Locals:         0       0       0       0       0       0       0       0       0       0       0       0       
      +0       0       0       0
   669 ;;      Temps:          0       0       0       0       0       0       0       0       0       0       0       0       
      +0       0       0       0
   670 ;;      Totals:         0       0       0       0       0       0       0       0       0       0       0       0       
      +0       0       0       0
   671 ;;Total ram usage:        0 bytes
   672 ;; Hardware stack levels used:    1
   673 ;; This function calls:
   674 ;;		Nothing
   675 ;; This function is called by:
   676 ;;		_SYSTEM_Initialize
   677 ;; This function uses a non-reentrant model
   678 ;;
   679                           
   680                           	psect	text4
   681  00FC76                     __ptext4:
   682                           	callstack 0
   683  00FC76                     _PMD_Initialize:
   684                           	callstack 29
   685                           
   686                           ;mcc_generated_files/mcc.c: 78:     PMD0 = 0x00;
   687                           
   688                           ; BSR set to: 14
   689                           ;incstack = 0
   690  00FC76  0E00               	movlw	0
   691  00FC78  010E               	movlb	14	; () banked
   692  00FC7A  6FDC               	movwf	220,b	;volatile
   693                           
   694                           ;mcc_generated_files/mcc.c: 80:     PMD1 = 0x00;
   695  00FC7C  0E00               	movlw	0
   696  00FC7E  6FDD               	movwf	221,b	;volatile
   697                           
   698                           ;mcc_generated_files/mcc.c: 82:     PMD2 = 0x00;
   699  00FC80  0E00               	movlw	0
   700  00FC82  6FDE               	movwf	222,b	;volatile
   701                           
   702                           ;mcc_generated_files/mcc.c: 84:     PMD3 = 0x00;
   703  00FC84  0E00               	movlw	0
   704  00FC86  6FDF               	movwf	223,b	;volatile
   705                           
   706                           ;mcc_generated_files/mcc.c: 86:     PMD4 = 0x00;
   707  00FC88  0E00               	movlw	0
   708  00FC8A  6FE0               	movwf	224,b	;volatile
   709                           
   710                           ;mcc_generated_files/mcc.c: 88:     PMD5 = 0x00;
   711  00FC8C  0E00               	movlw	0
   712  00FC8E  6FE1               	movwf	225,b	;volatile
   713                           
   714                           ; BSR set to: 14
   715  00FC90  0012               	return		;funcret
   716  00FC92                     __end_of_PMD_Initialize:
   717                           	callstack 0
   718                           
   719 ;; *************** function _PIN_MANAGER_Initialize *****************
   720 ;; Defined at:
   721 ;;		line 55 in file "mcc_generated_files/pin_manager.c"
   722 ;; Parameters:    Size  Location     Type
   723 ;;		None
   724 ;; Auto vars:     Size  Location     Type
   725 ;;		None
   726 ;; Return value:  Size  Location     Type
   727 ;;                  1    wreg      void 
   728 ;; Registers used:
   729 ;;		wreg, status,2
   730 ;; Tracked objects:
   731 ;;		On entry : 3F/E
   732 ;;		On exit  : 3F/E
   733 ;;		Unchanged: 0/0
   734 ;; Data sizes:     COMRAM   BANK0   BANK1   BANK2   BANK3   BANK4   BANK5   BANK6   BANK7   BANK8   BANK9  BANK10  BANK1
      +1  BANK12  BANK13  BANK14
   735 ;;      Params:         0       0       0       0       0       0       0       0       0       0       0       0       
      +0       0       0       0
   736 ;;      Locals:         0       0       0       0       0       0       0       0       0       0       0       0       
      +0       0       0       0
   737 ;;      Temps:          0       0       0       0       0       0       0       0       0       0       0       0       
      +0       0       0       0
   738 ;;      Totals:         0       0       0       0       0       0       0       0       0       0       0       0       
      +0       0       0       0
   739 ;;Total ram usage:        0 bytes
   740 ;; Hardware stack levels used:    1
   741 ;; This function calls:
   742 ;;		Nothing
   743 ;; This function is called by:
   744 ;;		_SYSTEM_Initialize
   745 ;; This function uses a non-reentrant model
   746 ;;
   747                           
   748                           	psect	text5
   749  00FE3E                     __ptext5:
   750                           	callstack 0
   751  00FE3E                     _PIN_MANAGER_Initialize:
   752                           	callstack 29
   753                           
   754                           ; BSR set to: 14
   755                           ;mcc_generated_files/pin_manager.c: 60:     LATA = 0x00;
   756                           
   757                           ; BSR set to: 14
   758                           ;incstack = 0
   759  00FE3E  0E00               	movlw	0
   760  00FE40  6E82               	movwf	130,c	;volatile
   761                           
   762                           ;mcc_generated_files/pin_manager.c: 61:     LATB = 0x00;
   763  00FE42  0E00               	movlw	0
   764  00FE44  6E83               	movwf	131,c	;volatile
   765                           
   766                           ;mcc_generated_files/pin_manager.c: 62:     LATC = 0x00;
   767  00FE46  0E00               	movlw	0
   768  00FE48  6E84               	movwf	132,c	;volatile
   769                           
   770                           ;mcc_generated_files/pin_manager.c: 67:     TRISA = 0xC9;
   771  00FE4A  0EC9               	movlw	201
   772  00FE4C  6E87               	movwf	135,c	;volatile
   773                           
   774                           ;mcc_generated_files/pin_manager.c: 68:     TRISB = 0xE5;
   775  00FE4E  0EE5               	movlw	229
   776  00FE50  6E88               	movwf	136,c	;volatile
   777                           
   778                           ;mcc_generated_files/pin_manager.c: 69:     TRISC = 0x38;
   779  00FE52  0E38               	movlw	56
   780  00FE54  6E89               	movwf	137,c	;volatile
   781                           
   782                           ;mcc_generated_files/pin_manager.c: 74:     ANSELC = 0xC7;
   783  00FE56  0EC7               	movlw	199
   784  00FE58  010F               	movlb	15	; () banked
   785  00FE5A  6F1C               	movwf	28,b	;volatile
   786                           
   787                           ;mcc_generated_files/pin_manager.c: 75:     ANSELB = 0xDA;
   788  00FE5C  0EDA               	movlw	218
   789  00FE5E  6F14               	movwf	20,b	;volatile
   790                           
   791                           ;mcc_generated_files/pin_manager.c: 76:     ANSELA = 0x36;
   792  00FE60  0E36               	movlw	54
   793  00FE62  6F0C               	movwf	12,b	;volatile
   794                           
   795                           ;mcc_generated_files/pin_manager.c: 81:     WPUE = 0x00;
   796  00FE64  0E00               	movlw	0
   797  00FE66  6F28               	movwf	40,b	;volatile
   798                           
   799                           ;mcc_generated_files/pin_manager.c: 82:     WPUB = 0x00;
   800  00FE68  0E00               	movlw	0
   801  00FE6A  6F13               	movwf	19,b	;volatile
   802                           
   803                           ;mcc_generated_files/pin_manager.c: 83:     WPUA = 0x00;
   804  00FE6C  0E00               	movlw	0
   805  00FE6E  6F0B               	movwf	11,b	;volatile
   806                           
   807                           ;mcc_generated_files/pin_manager.c: 84:     WPUC = 0x00;
   808  00FE70  0E00               	movlw	0
   809  00FE72  6F1B               	movwf	27,b	;volatile
   810                           
   811                           ;mcc_generated_files/pin_manager.c: 89:     ODCONA = 0x00;
   812  00FE74  0E00               	movlw	0
   813  00FE76  6F0A               	movwf	10,b	;volatile
   814                           
   815                           ;mcc_generated_files/pin_manager.c: 90:     ODCONB = 0x00;
   816  00FE78  0E00               	movlw	0
   817  00FE7A  6F12               	movwf	18,b	;volatile
   818                           
   819                           ;mcc_generated_files/pin_manager.c: 91:     ODCONC = 0x00;
   820  00FE7C  0E00               	movlw	0
   821  00FE7E  6F1A               	movwf	26,b	;volatile
   822                           
   823                           ; BSR set to: 15
   824                           ;mcc_generated_files/pin_manager.c: 96:     SLRCONA = 0xFF;
   825  00FE80  6909               	setf	9,b	;volatile
   826                           
   827                           ; BSR set to: 15
   828                           ;mcc_generated_files/pin_manager.c: 97:     SLRCONB = 0xFF;
   829  00FE82  6911               	setf	17,b	;volatile
   830                           
   831                           ; BSR set to: 15
   832                           ;mcc_generated_files/pin_manager.c: 98:     SLRCONC = 0xFF;
   833  00FE84  6919               	setf	25,b	;volatile
   834                           
   835                           ; BSR set to: 15
   836                           ;mcc_generated_files/pin_manager.c: 103:     INLVLA = 0xFF;
   837  00FE86  6908               	setf	8,b	;volatile
   838                           
   839                           ; BSR set to: 15
   840                           ;mcc_generated_files/pin_manager.c: 104:     INLVLB = 0xFF;
   841  00FE88  6910               	setf	16,b	;volatile
   842                           
   843                           ; BSR set to: 15
   844                           ;mcc_generated_files/pin_manager.c: 105:     INLVLC = 0xFF;
   845  00FE8A  6918               	setf	24,b	;volatile
   846                           
   847                           ;mcc_generated_files/pin_manager.c: 106:     INLVLE = 0x08;
   848  00FE8C  0E08               	movlw	8
   849  00FE8E  6F25               	movwf	37,b	;volatile
   850                           
   851                           ;mcc_generated_files/pin_manager.c: 115:     RX1PPS = 0x0D;
   852  00FE90  0E0D               	movlw	13
   853  00FE92  010E               	movlb	14	; () banked
   854  00FE94  6FB0               	movwf	176,b	;volatile
   855                           
   856                           ;mcc_generated_files/pin_manager.c: 116:     T2INPPS = 0x13;
   857  00FE96  0E13               	movlw	19
   858  00FE98  6FA6               	movwf	166,b	;volatile
   859                           
   860                           ;mcc_generated_files/pin_manager.c: 117:     RB4PPS = 0x09;
   861  00FE9A  0E09               	movlw	9
   862  00FE9C  6FEE               	movwf	238,b	;volatile
   863                           
   864                           ; BSR set to: 14
   865  00FE9E  0012               	return		;funcret
   866  00FEA0                     __end_of_PIN_MANAGER_Initialize:
   867                           	callstack 0
   868                           
   869 ;; *************** function _OSCILLATOR_Initialize *****************
   870 ;; Defined at:
   871 ;;		line 61 in file "mcc_generated_files/mcc.c"
   872 ;; Parameters:    Size  Location     Type
   873 ;;		None
   874 ;; Auto vars:     Size  Location     Type
   875 ;;		None
   876 ;; Return value:  Size  Location     Type
   877 ;;                  1    wreg      void 
   878 ;; Registers used:
   879 ;;		wreg, status,2
   880 ;; Tracked objects:
   881 ;;		On entry : 3F/E
   882 ;;		On exit  : 3F/E
   883 ;;		Unchanged: 0/0
   884 ;; Data sizes:     COMRAM   BANK0   BANK1   BANK2   BANK3   BANK4   BANK5   BANK6   BANK7   BANK8   BANK9  BANK10  BANK1
      +1  BANK12  BANK13  BANK14
   885 ;;      Params:         0       0       0       0       0       0       0       0       0       0       0       0       
      +0       0       0       0
   886 ;;      Locals:         0       0       0       0       0       0       0       0       0       0       0       0       
      +0       0       0       0
   887 ;;      Temps:          0       0       0       0       0       0       0       0       0       0       0       0       
      +0       0       0       0
   888 ;;      Totals:         0       0       0       0       0       0       0       0       0       0       0       0       
      +0       0       0       0
   889 ;;Total ram usage:        0 bytes
   890 ;; Hardware stack levels used:    1
   891 ;; This function calls:
   892 ;;		Nothing
   893 ;; This function is called by:
   894 ;;		_SYSTEM_Initialize
   895 ;; This function uses a non-reentrant model
   896 ;;
   897                           
   898                           	psect	text6
   899  00FC2E                     __ptext6:
   900                           	callstack 0
   901  00FC2E                     _OSCILLATOR_Initialize:
   902                           	callstack 29
   903                           
   904                           ; BSR set to: 14
   905                           ;mcc_generated_files/mcc.c: 64:     OSCCON1 = 0x60;
   906                           
   907                           ; BSR set to: 14
   908                           ;incstack = 0
   909  00FC2E  0E60               	movlw	96
   910  00FC30  6FD3               	movwf	211,b	;volatile
   911                           
   912                           ;mcc_generated_files/mcc.c: 66:     OSCCON3 = 0x00;
   913  00FC32  0E00               	movlw	0
   914  00FC34  6FD5               	movwf	213,b	;volatile
   915                           
   916                           ;mcc_generated_files/mcc.c: 68:     OSCEN = 0x00;
   917  00FC36  0E00               	movlw	0
   918  00FC38  6FD7               	movwf	215,b	;volatile
   919                           
   920                           ;mcc_generated_files/mcc.c: 70:     OSCFRQ = 0x08;
   921  00FC3A  0E08               	movlw	8
   922  00FC3C  6FD9               	movwf	217,b	;volatile
   923                           
   924                           ;mcc_generated_files/mcc.c: 72:     OSCTUNE = 0x00;
   925  00FC3E  0E00               	movlw	0
   926  00FC40  6FD8               	movwf	216,b	;volatile
   927                           
   928                           ; BSR set to: 14
   929  00FC42  0012               	return		;funcret
   930  00FC44                     __end_of_OSCILLATOR_Initialize:
   931                           	callstack 0
   932                           
   933 ;; *************** function _EUSART1_Initialize *****************
   934 ;; Defined at:
   935 ;;		line 66 in file "mcc_generated_files/eusart1.c"
   936 ;; Parameters:    Size  Location     Type
   937 ;;		None
   938 ;; Auto vars:     Size  Location     Type
   939 ;;		None
   940 ;; Return value:  Size  Location     Type
   941 ;;                  1    wreg      void 
   942 ;; Registers used:
   943 ;;		wreg, status,2, status,0, cstack
   944 ;; Tracked objects:
   945 ;;		On entry : 3F/E
   946 ;;		On exit  : 3F/E
   947 ;;		Unchanged: 3F/0
   948 ;; Data sizes:     COMRAM   BANK0   BANK1   BANK2   BANK3   BANK4   BANK5   BANK6   BANK7   BANK8   BANK9  BANK10  BANK1
      +1  BANK12  BANK13  BANK14
   949 ;;      Params:         0       0       0       0       0       0       0       0       0       0       0       0       
      +0       0       0       0
   950 ;;      Locals:         0       0       0       0       0       0       0       0       0       0       0       0       
      +0       0       0       0
   951 ;;      Temps:          0       0       0       0       0       0       0       0       0       0       0       0       
      +0       0       0       0
   952 ;;      Totals:         0       0       0       0       0       0       0       0       0       0       0       0       
      +0       0       0       0
   953 ;;Total ram usage:        0 bytes
   954 ;; Hardware stack levels used:    1
   955 ;; Hardware stack levels required when called:    1
   956 ;; This function calls:
   957 ;;		_EUSART1_SetErrorHandler
   958 ;;		_EUSART1_SetFramingErrorHandler
   959 ;;		_EUSART1_SetOverrunErrorHandler
   960 ;; This function is called by:
   961 ;;		_SYSTEM_Initialize
   962 ;; This function uses a non-reentrant model
   963 ;;
   964                           
   965                           	psect	text7
   966  00FD5E                     __ptext7:
   967                           	callstack 0
   968  00FD5E                     _EUSART1_Initialize:
   969                           	callstack 28
   970                           
   971                           ; BSR set to: 14
   972                           ;mcc_generated_files/eusart1.c: 71:     BAUD1CON = 0x08;
   973                           
   974                           ; BSR set to: 14
   975                           ;incstack = 0
   976  00FD5E  0E08               	movlw	8
   977  00FD60  6E9E               	movwf	158,c	;volatile
   978                           
   979                           ;mcc_generated_files/eusart1.c: 74:     RC1STA = 0x90;
   980  00FD62  0E90               	movlw	144
   981  00FD64  6E9C               	movwf	156,c	;volatile
   982                           
   983                           ;mcc_generated_files/eusart1.c: 77:     TX1STA = 0x24;
   984  00FD66  0E24               	movlw	36
   985  00FD68  6E9D               	movwf	157,c	;volatile
   986                           
   987                           ;mcc_generated_files/eusart1.c: 80:     SP1BRGL = 0x8A;
   988  00FD6A  0E8A               	movlw	138
   989  00FD6C  6E9A               	movwf	154,c	;volatile
   990                           
   991                           ;mcc_generated_files/eusart1.c: 83:     SP1BRGH = 0x00;
   992  00FD6E  0E00               	movlw	0
   993  00FD70  6E9B               	movwf	155,c	;volatile
   994                           
   995                           ; BSR set to: 14
   996                           ;mcc_generated_files/eusart1.c: 86:     EUSART1_SetFramingErrorHandler(EUSART1_DefaultFr
      +                          amingErrorHandler);
   997  00FD72  0E00               	movlw	0
   998  00FD74  6E0C               	movwf	EUSART1_SetFramingErrorHandler@interruptHandler^0,c
   999  00FD76  0E00               	movlw	0
  1000  00FD78  6E0D               	movwf	(EUSART1_SetFramingErrorHandler@interruptHandler+1)^0,c
  1001  00FD7A  ECFC  F07D         	call	_EUSART1_SetFramingErrorHandler	;wreg free
  1002                           
  1003                           ; BSR set to: 14
  1004                           ;mcc_generated_files/eusart1.c: 87:     EUSART1_SetOverrunErrorHandler(EUSART1_DefaultOv
      +                          errunErrorHandler);
  1005  00FD7E  0E00               	movlw	0
  1006  00FD80  6E0C               	movwf	EUSART1_SetOverrunErrorHandler@interruptHandler^0,c
  1007  00FD82  0E00               	movlw	0
  1008  00FD84  6E0D               	movwf	(EUSART1_SetOverrunErrorHandler@interruptHandler+1)^0,c
  1009  00FD86  EC01  F07E         	call	_EUSART1_SetOverrunErrorHandler	;wreg free
  1010                           
  1011                           ; BSR set to: 14
  1012                           ;mcc_generated_files/eusart1.c: 88:     EUSART1_SetErrorHandler(EUSART1_DefaultErrorHand
      +                          ler);
  1013  00FD8A  0E00               	movlw	0
  1014  00FD8C  6E0C               	movwf	EUSART1_SetErrorHandler@interruptHandler^0,c
  1015  00FD8E  0E00               	movlw	0
  1016  00FD90  6E0D               	movwf	(EUSART1_SetErrorHandler@interruptHandler+1)^0,c
  1017  00FD92  ECF7  F07D         	call	_EUSART1_SetErrorHandler	;wreg free
  1018                           
  1019                           ; BSR set to: 14
  1020                           ;mcc_generated_files/eusart1.c: 90:     eusart1RxLastError.status = 0;
  1021  00FD96  0E00               	movlw	0
  1022  00FD98  6E07               	movwf	_eusart1RxLastError^0,c	;volatile
  1023                           
  1024                           ; BSR set to: 14
  1025  00FD9A  0012               	return		;funcret
  1026  00FD9C                     __end_of_EUSART1_Initialize:
  1027                           	callstack 0
  1028                           
  1029 ;; *************** function _EUSART1_SetOverrunErrorHandler *****************
  1030 ;; Defined at:
  1031 ;;		line 161 in file "mcc_generated_files/eusart1.c"
  1032 ;; Parameters:    Size  Location     Type
  1033 ;;  interruptHan    2    0[COMRAM] PTR FTN()void 
  1034 ;;		 -> EUSART1_DefaultOverrunErrorHandler(1), 
  1035 ;; Auto vars:     Size  Location     Type
  1036 ;;		None
  1037 ;; Return value:  Size  Location     Type
  1038 ;;                  1    wreg      void 
  1039 ;; Registers used:
  1040 ;;		wreg, status,2, status,0
  1041 ;; Tracked objects:
  1042 ;;		On entry : 3F/E
  1043 ;;		On exit  : 3F/E
  1044 ;;		Unchanged: 3F/0
  1045 ;; Data sizes:     COMRAM   BANK0   BANK1   BANK2   BANK3   BANK4   BANK5   BANK6   BANK7   BANK8   BANK9  BANK10  BANK1
      +1  BANK12  BANK13  BANK14
  1046 ;;      Params:         2       0       0       0       0       0       0       0       0       0       0       0       
      +0       0       0       0
  1047 ;;      Locals:         0       0       0       0       0       0       0       0       0       0       0       0       
      +0       0       0       0
  1048 ;;      Temps:          0       0       0       0       0       0       0       0       0       0       0       0       
      +0       0       0       0
  1049 ;;      Totals:         2       0       0       0       0       0       0       0       0       0       0       0       
      +0       0       0       0
  1050 ;;Total ram usage:        2 bytes
  1051 ;; Hardware stack levels used:    1
  1052 ;; This function calls:
  1053 ;;		Nothing
  1054 ;; This function is called by:
  1055 ;;		_EUSART1_Initialize
  1056 ;; This function uses a non-reentrant model
  1057 ;;
  1058                           
  1059                           	psect	text8
  1060  00FC02                     __ptext8:
  1061                           	callstack 0
  1062  00FC02                     _EUSART1_SetOverrunErrorHandler:
  1063                           	callstack 28
  1064                           
  1065                           ; BSR set to: 14
  1066                           ;mcc_generated_files/eusart1.c: 162:     EUSART1_OverrunErrorHandler = interruptHandler;
  1067                           
  1068                           ; BSR set to: 14
  1069                           ;incstack = 0
  1070  00FC02  C00C  F01A         	movff	EUSART1_SetOverrunErrorHandler@interruptHandler,_EUSART1_OverrunErrorHandler
  1071  00FC06  C00D  F01B         	movff	EUSART1_SetOverrunErrorHandler@interruptHandler+1,_EUSART1_OverrunErrorHandler+1
  1072                           
  1073                           ; BSR set to: 14
  1074  00FC0A  0012               	return		;funcret
  1075  00FC0C                     __end_of_EUSART1_SetOverrunErrorHandler:
  1076                           	callstack 0
  1077                           
  1078 ;; *************** function _EUSART1_SetFramingErrorHandler *****************
  1079 ;; Defined at:
  1080 ;;		line 157 in file "mcc_generated_files/eusart1.c"
  1081 ;; Parameters:    Size  Location     Type
  1082 ;;  interruptHan    2    0[COMRAM] PTR FTN()void 
  1083 ;;		 -> EUSART1_DefaultFramingErrorHandler(1), 
  1084 ;; Auto vars:     Size  Location     Type
  1085 ;;		None
  1086 ;; Return value:  Size  Location     Type
  1087 ;;                  1    wreg      void 
  1088 ;; Registers used:
  1089 ;;		wreg, status,2, status,0
  1090 ;; Tracked objects:
  1091 ;;		On entry : 3F/E
  1092 ;;		On exit  : 3F/E
  1093 ;;		Unchanged: 3F/0
  1094 ;; Data sizes:     COMRAM   BANK0   BANK1   BANK2   BANK3   BANK4   BANK5   BANK6   BANK7   BANK8   BANK9  BANK10  BANK1
      +1  BANK12  BANK13  BANK14
  1095 ;;      Params:         2       0       0       0       0       0       0       0       0       0       0       0       
      +0       0       0       0
  1096 ;;      Locals:         0       0       0       0       0       0       0       0       0       0       0       0       
      +0       0       0       0
  1097 ;;      Temps:          0       0       0       0       0       0       0       0       0       0       0       0       
      +0       0       0       0
  1098 ;;      Totals:         2       0       0       0       0       0       0       0       0       0       0       0       
      +0       0       0       0
  1099 ;;Total ram usage:        2 bytes
  1100 ;; Hardware stack levels used:    1
  1101 ;; This function calls:
  1102 ;;		Nothing
  1103 ;; This function is called by:
  1104 ;;		_EUSART1_Initialize
  1105 ;; This function uses a non-reentrant model
  1106 ;;
  1107                           
  1108                           	psect	text9
  1109  00FBF8                     __ptext9:
  1110                           	callstack 0
  1111  00FBF8                     _EUSART1_SetFramingErrorHandler:
  1112                           	callstack 28
  1113                           
  1114                           ; BSR set to: 14
  1115                           ;mcc_generated_files/eusart1.c: 158:     EUSART1_FramingErrorHandler = interruptHandler;
  1116                           
  1117                           ; BSR set to: 14
  1118                           ;incstack = 0
  1119  00FBF8  C00C  F01C         	movff	EUSART1_SetFramingErrorHandler@interruptHandler,_EUSART1_FramingErrorHandler
  1120  00FBFC  C00D  F01D         	movff	EUSART1_SetFramingErrorHandler@interruptHandler+1,_EUSART1_FramingErrorHandler+1
  1121                           
  1122                           ; BSR set to: 14
  1123  00FC00  0012               	return		;funcret
  1124  00FC02                     __end_of_EUSART1_SetFramingErrorHandler:
  1125                           	callstack 0
  1126                           
  1127 ;; *************** function _EUSART1_SetErrorHandler *****************
  1128 ;; Defined at:
  1129 ;;		line 165 in file "mcc_generated_files/eusart1.c"
  1130 ;; Parameters:    Size  Location     Type
  1131 ;;  interruptHan    2    0[COMRAM] PTR FTN()void 
  1132 ;;		 -> EUSART1_DefaultErrorHandler(1), 
  1133 ;; Auto vars:     Size  Location     Type
  1134 ;;		None
  1135 ;; Return value:  Size  Location     Type
  1136 ;;                  1    wreg      void 
  1137 ;; Registers used:
  1138 ;;		wreg, status,2, status,0
  1139 ;; Tracked objects:
  1140 ;;		On entry : 3F/E
  1141 ;;		On exit  : 3F/E
  1142 ;;		Unchanged: 3F/0
  1143 ;; Data sizes:     COMRAM   BANK0   BANK1   BANK2   BANK3   BANK4   BANK5   BANK6   BANK7   BANK8   BANK9  BANK10  BANK1
      +1  BANK12  BANK13  BANK14
  1144 ;;      Params:         2       0       0       0       0       0       0       0       0       0       0       0       
      +0       0       0       0
  1145 ;;      Locals:         0       0       0       0       0       0       0       0       0       0       0       0       
      +0       0       0       0
  1146 ;;      Temps:          0       0       0       0       0       0       0       0       0       0       0       0       
      +0       0       0       0
  1147 ;;      Totals:         2       0       0       0       0       0       0       0       0       0       0       0       
      +0       0       0       0
  1148 ;;Total ram usage:        2 bytes
  1149 ;; Hardware stack levels used:    1
  1150 ;; This function calls:
  1151 ;;		Nothing
  1152 ;; This function is called by:
  1153 ;;		_EUSART1_Initialize
  1154 ;; This function uses a non-reentrant model
  1155 ;;
  1156                           
  1157                           	psect	text10
  1158  00FBEE                     __ptext10:
  1159                           	callstack 0
  1160  00FBEE                     _EUSART1_SetErrorHandler:
  1161                           	callstack 28
  1162                           
  1163                           ; BSR set to: 14
  1164                           ;mcc_generated_files/eusart1.c: 166:     EUSART1_ErrorHandler = interruptHandler;
  1165                           
  1166                           ; BSR set to: 14
  1167                           ;incstack = 0
  1168  00FBEE  C00C  F018         	movff	EUSART1_SetErrorHandler@interruptHandler,_EUSART1_ErrorHandler
  1169  00FBF2  C00D  F019         	movff	EUSART1_SetErrorHandler@interruptHandler+1,_EUSART1_ErrorHandler+1
  1170                           
  1171                           ; BSR set to: 14
  1172  00FBF6  0012               	return		;funcret
  1173  00FBF8                     __end_of_EUSART1_SetErrorHandler:
  1174                           	callstack 0
  1175                           
  1176 ;; *************** function _CRC_Initialize *****************
  1177 ;; Defined at:
  1178 ;;		line 76 in file "mcc_generated_files/crc.c"
  1179 ;; Parameters:    Size  Location     Type
  1180 ;;		None
  1181 ;; Auto vars:     Size  Location     Type
  1182 ;;  seed            2    3[COMRAM] unsigned short 
  1183 ;;  poly            2    1[COMRAM] unsigned short 
  1184 ;; Return value:  Size  Location     Type
  1185 ;;                  1    wreg      void 
  1186 ;; Registers used:
  1187 ;;		wreg, status,2, status,0
  1188 ;; Tracked objects:
  1189 ;;		On entry : 3F/E
  1190 ;;		On exit  : 3F/F
  1191 ;;		Unchanged: 0/0
  1192 ;; Data sizes:     COMRAM   BANK0   BANK1   BANK2   BANK3   BANK4   BANK5   BANK6   BANK7   BANK8   BANK9  BANK10  BANK1
      +1  BANK12  BANK13  BANK14
  1193 ;;      Params:         0       0       0       0       0       0       0       0       0       0       0       0       
      +0       0       0       0
  1194 ;;      Locals:         4       0       0       0       0       0       0       0       0       0       0       0       
      +0       0       0       0
  1195 ;;      Temps:          1       0       0       0       0       0       0       0       0       0       0       0       
      +0       0       0       0
  1196 ;;      Totals:         5       0       0       0       0       0       0       0       0       0       0       0       
      +0       0       0       0
  1197 ;;Total ram usage:        5 bytes
  1198 ;; Hardware stack levels used:    1
  1199 ;; This function calls:
  1200 ;;		Nothing
  1201 ;; This function is called by:
  1202 ;;		_SYSTEM_Initialize
  1203 ;; This function uses a non-reentrant model
  1204 ;;
  1205                           
  1206                           	psect	text11
  1207  00FEA0                     __ptext11:
  1208                           	callstack 0
  1209  00FEA0                     _CRC_Initialize:
  1210                           	callstack 29
  1211                           
  1212                           ; BSR set to: 14
  1213                           ;mcc_generated_files/crc.c: 78:     uint16_t poly;;mcc_generated_files/crc.c: 79:     ui
      +                          nt16_t seed;;mcc_generated_files/crc.c: 82:     CRCCON0 = 0x10;
  1214                           
  1215                           ; BSR set to: 14
  1216                           ;incstack = 0
  1217  00FEA0  0E10               	movlw	16
  1218  00FEA2  6E77               	movwf	119,c	;volatile
  1219                           
  1220                           ;mcc_generated_files/crc.c: 84:     CRCCON1 = (0 << 4) | (7);
  1221  00FEA4  0E07               	movlw	7
  1222  00FEA6  6E78               	movwf	120,c	;volatile
  1223                           
  1224                           ;mcc_generated_files/crc.c: 86:     CRCACCL = 0x00;
  1225  00FEA8  0E00               	movlw	0
  1226  00FEAA  6E71               	movwf	113,c	;volatile
  1227                           
  1228                           ;mcc_generated_files/crc.c: 88:     CRCACCH = 0x00;
  1229  00FEAC  0E00               	movlw	0
  1230  00FEAE  6E72               	movwf	114,c	;volatile
  1231                           
  1232                           ;mcc_generated_files/crc.c: 90:     SCANCON0 = 0x80;
  1233  00FEB0  0E80               	movlw	128
  1234  00FEB2  010F               	movlb	15	; () banked
  1235  00FEB4  6F4A               	movwf	74,b	;volatile
  1236                           
  1237                           ;mcc_generated_files/crc.c: 92:     SCANLADRU = 0x00;
  1238  00FEB6  0E00               	movlw	0
  1239  00FEB8  6F46               	movwf	70,b	;volatile
  1240                           
  1241                           ;mcc_generated_files/crc.c: 94:     SCANLADRH = 0x00;
  1242  00FEBA  0E00               	movlw	0
  1243  00FEBC  6F45               	movwf	69,b	;volatile
  1244                           
  1245                           ;mcc_generated_files/crc.c: 96:     SCANLADRL = 0x00;
  1246  00FEBE  0E00               	movlw	0
  1247  00FEC0  6F44               	movwf	68,b	;volatile
  1248                           
  1249                           ;mcc_generated_files/crc.c: 98:     SCANHADRU = 0x3F;
  1250  00FEC2  0E3F               	movlw	63
  1251  00FEC4  6F49               	movwf	73,b	;volatile
  1252                           
  1253                           ; BSR set to: 15
  1254                           ;mcc_generated_files/crc.c: 100:     SCANHADRH = 0xFF;
  1255  00FEC6  6948               	setf	72,b	;volatile
  1256                           
  1257                           ; BSR set to: 15
  1258                           ;mcc_generated_files/crc.c: 102:     SCANHADRL = 0xFF;
  1259  00FEC8  6947               	setf	71,b	;volatile
  1260                           
  1261                           ;mcc_generated_files/crc.c: 104:     SCANTRIG = 0x00;
  1262  00FECA  0E00               	movlw	0
  1263  00FECC  6F4B               	movwf	75,b	;volatile
  1264                           
  1265                           ;mcc_generated_files/crc.c: 106:     poly = 213;
  1266  00FECE  0E00               	movlw	0
  1267  00FED0  6E0E               	movwf	(CRC_Initialize@poly+1)^0,c
  1268  00FED2  0ED5               	movlw	213
  1269  00FED4  6E0D               	movwf	CRC_Initialize@poly^0,c
  1270                           
  1271                           ; BSR set to: 15
  1272                           ;mcc_generated_files/crc.c: 107:     CRCXORH = poly >> 8;
  1273  00FED6  C00E  FF76         	movff	CRC_Initialize@poly+1,3958	;volatile
  1274                           
  1275                           ; BSR set to: 15
  1276                           ;mcc_generated_files/crc.c: 108:     CRCXORL = poly;
  1277  00FEDA  0ED5               	movlw	213
  1278  00FEDC  6E75               	movwf	117,c	;volatile
  1279                           
  1280                           ;mcc_generated_files/crc.c: 110:     seed = 0;
  1281  00FEDE  0E00               	movlw	0
  1282  00FEE0  6E10               	movwf	(CRC_Initialize@seed+1)^0,c
  1283  00FEE2  0E00               	movlw	0
  1284  00FEE4  6E0F               	movwf	CRC_Initialize@seed^0,c
  1285                           
  1286                           ; BSR set to: 15
  1287                           ;mcc_generated_files/crc.c: 112:     CRCACCH = seed >> 8;
  1288  00FEE6  C010  FF72         	movff	CRC_Initialize@seed+1,3954	;volatile
  1289                           
  1290                           ; BSR set to: 15
  1291                           ;mcc_generated_files/crc.c: 113:     CRCACCL = seed;
  1292  00FEEA  0E00               	movlw	0
  1293  00FEEC  6E71               	movwf	113,c	;volatile
  1294                           
  1295                           ; BSR set to: 15
  1296                           ;mcc_generated_files/crc.c: 115:     crcObj.dataWidth = (uint8_t)(CRCCON1bits.DLEN + 1);
  1297  00FEEE  3878               	swapf	120,w,c	;volatile
  1298  00FEF0  0B0F               	andlw	15
  1299  00FEF2  6E0C               	movwf	??_CRC_Initialize^0,c
  1300  00FEF4  280C               	incf	??_CRC_Initialize^0,w,c
  1301  00FEF6  6E09               	movwf	_crcObj^0,c
  1302                           
  1303                           ; BSR set to: 15
  1304                           ;mcc_generated_files/crc.c: 116:     crcObj.polyWidth = (uint8_t)(CRCCON1bits.PLEN + 1);
  1305  00FEF8  5078               	movf	120,w,c	;volatile
  1306  00FEFA  0B0F               	andlw	15
  1307  00FEFC  6E0C               	movwf	??_CRC_Initialize^0,c
  1308  00FEFE  280C               	incf	??_CRC_Initialize^0,w,c
  1309  00FF00  6E0A               	movwf	(_crcObj+1)^0,c
  1310                           
  1311                           ; BSR set to: 15
  1312  00FF02  0012               	return		;funcret
  1313  00FF04                     __end_of_CRC_Initialize:
  1314                           	callstack 0
  1315                           
  1316 ;; *************** function _CommunicationHandler *****************
  1317 ;; Defined at:
  1318 ;;		line 36 in file "feeder/parser.c"
  1319 ;; Parameters:    Size  Location     Type
  1320 ;;		None
  1321 ;; Auto vars:     Size  Location     Type
  1322 ;;		None
  1323 ;; Return value:  Size  Location     Type
  1324 ;;                  1    wreg      void 
  1325 ;; Registers used:
  1326 ;;		wreg, status,2, cstack
  1327 ;; Tracked objects:
  1328 ;;		On entry : 0/0
  1329 ;;		On exit  : 3F/E
  1330 ;;		Unchanged: 0/0
  1331 ;; Data sizes:     COMRAM   BANK0   BANK1   BANK2   BANK3   BANK4   BANK5   BANK6   BANK7   BANK8   BANK9  BANK10  BANK1
      +1  BANK12  BANK13  BANK14
  1332 ;;      Params:         0       0       0       0       0       0       0       0       0       0       0       0       
      +0       0       0       0
  1333 ;;      Locals:         0       0       0       0       0       0       0       0       0       0       0       0       
      +0       0       0       0
  1334 ;;      Temps:          0       0       0       0       0       0       0       0       0       0       0       0       
      +0       0       0       0
  1335 ;;      Totals:         0       0       0       0       0       0       0       0       0       0       0       0       
      +0       0       0       0
  1336 ;;Total ram usage:        0 bytes
  1337 ;; Hardware stack levels used:    1
  1338 ;; Hardware stack levels required when called:    2
  1339 ;; This function calls:
  1340 ;;		_ReceiveMessage
  1341 ;;		_TransmitMessages
  1342 ;; This function is called by:
  1343 ;;		_main
  1344 ;; This function uses a non-reentrant model
  1345 ;;
  1346                           
  1347                           	psect	text12
  1348  00FBE4                     __ptext12:
  1349                           	callstack 0
  1350  00FBE4                     _CommunicationHandler:
  1351                           	callstack 28
  1352                           
  1353                           ;feeder/parser.c: 38:     ReceiveMessage();
  1354                           
  1355                           ; BSR set to: 15
  1356                           ;incstack = 0
  1357  00FBE4  EC67  F07E         	call	_ReceiveMessage	;wreg free
  1358                           
  1359                           ; BSR set to: 14
  1360                           ;feeder/parser.c: 39:     TransmitMessages();
  1361  00FBE8  ECEA  F07D         	call	_TransmitMessages	;wreg free
  1362                           
  1363                           ; BSR set to: 14
  1364  00FBEC  0012               	return		;funcret
  1365  00FBEE                     __end_of_CommunicationHandler:
  1366                           	callstack 0
  1367                           
  1368 ;; *************** function _TransmitMessages *****************
  1369 ;; Defined at:
  1370 ;;		line 66 in file "feeder/parser.c"
  1371 ;; Parameters:    Size  Location     Type
  1372 ;;		None
  1373 ;; Auto vars:     Size  Location     Type
  1374 ;;		None
  1375 ;; Return value:  Size  Location     Type
  1376 ;;                  1    wreg      void 
  1377 ;; Registers used:
  1378 ;;		None
  1379 ;; Tracked objects:
  1380 ;;		On entry : 3F/E
  1381 ;;		On exit  : 3F/E
  1382 ;;		Unchanged: 3F/0
  1383 ;; Data sizes:     COMRAM   BANK0   BANK1   BANK2   BANK3   BANK4   BANK5   BANK6   BANK7   BANK8   BANK9  BANK10  BANK1
      +1  BANK12  BANK13  BANK14
  1384 ;;      Params:         0       0       0       0       0       0       0       0       0       0       0       0       
      +0       0       0       0
  1385 ;;      Locals:         0       0       0       0       0       0       0       0       0       0       0       0       
      +0       0       0       0
  1386 ;;      Temps:          0       0       0       0       0       0       0       0       0       0       0       0       
      +0       0       0       0
  1387 ;;      Totals:         0       0       0       0       0       0       0       0       0       0       0       0       
      +0       0       0       0
  1388 ;;Total ram usage:        0 bytes
  1389 ;; Hardware stack levels used:    1
  1390 ;; This function calls:
  1391 ;;		Nothing
  1392 ;; This function is called by:
  1393 ;;		_CommunicationHandler
  1394 ;; This function uses a non-reentrant model
  1395 ;;
  1396                           
  1397                           	psect	text13
  1398  00FBD4                     __ptext13:
  1399                           	callstack 0
  1400  00FBD4                     _TransmitMessages:
  1401                           	callstack 29
  1402                           
  1403                           ; BSR set to: 14
  1404                           
  1405                           ; BSR set to: 14
  1406                           ;incstack = 0
  1407  00FBD4  0012               	return		;funcret
  1408  00FBD6                     __end_of_TransmitMessages:
  1409                           	callstack 0
  1410                           
  1411 ;; *************** function _ReceiveMessage *****************
  1412 ;; Defined at:
  1413 ;;		line 42 in file "feeder/parser.c"
  1414 ;; Parameters:    Size  Location     Type
  1415 ;;		None
  1416 ;; Auto vars:     Size  Location     Type
  1417 ;;		None
  1418 ;; Return value:  Size  Location     Type
  1419 ;;                  1    wreg      void 
  1420 ;; Registers used:
  1421 ;;		wreg, status,2, cstack
  1422 ;; Tracked objects:
  1423 ;;		On entry : 0/0
  1424 ;;		On exit  : 3F/E
  1425 ;;		Unchanged: 0/0
  1426 ;; Data sizes:     COMRAM   BANK0   BANK1   BANK2   BANK3   BANK4   BANK5   BANK6   BANK7   BANK8   BANK9  BANK10  BANK1
      +1  BANK12  BANK13  BANK14
  1427 ;;      Params:         0       0       0       0       0       0       0       0       0       0       0       0       
      +0       0       0       0
  1428 ;;      Locals:         0       0       0       0       0       0       0       0       0       0       0       0       
      +0       0       0       0
  1429 ;;      Temps:          0       0       0       0       0       0       0       0       0       0       0       0       
      +0       0       0       0
  1430 ;;      Totals:         0       0       0       0       0       0       0       0       0       0       0       0       
      +0       0       0       0
  1431 ;;Total ram usage:        0 bytes
  1432 ;; Hardware stack levels used:    1
  1433 ;; Hardware stack levels required when called:    1
  1434 ;; This function calls:
  1435 ;;		_EUSART1_Read
  1436 ;;		_EUSART1_is_rx_ready
  1437 ;;		_ParseMessages
  1438 ;; This function is called by:
  1439 ;;		_CommunicationHandler
  1440 ;; This function uses a non-reentrant model
  1441 ;;
  1442                           
  1443                           	psect	text14
  1444  00FCCE                     __ptext14:
  1445                           	callstack 0
  1446  00FCCE                     _ReceiveMessage:
  1447                           	callstack 28
  1448                           
  1449                           ;feeder/parser.c: 45:     if (EUSART1_is_rx_ready()) {
  1450                           
  1451                           ; BSR set to: 14
  1452                           ;incstack = 0
  1453  00FCCE  EC06  F07E         	call	_EUSART1_is_rx_ready	;wreg free
  1454  00FCD2  0900               	iorlw	0
  1455  00FCD4  B4D8               	btfsc	status,2,c
  1456  00FCD6  D003               	goto	l1444
  1457                           
  1458                           ; BSR set to: 14
  1459                           ;feeder/parser.c: 46:         bufic = EUSART1_Read();
  1460  00FCD8  EC0D  F07E         	call	_EUSART1_Read	;wreg free
  1461  00FCDC  D001               	goto	L1
  1462  00FCDE                     l1444:
  1463                           
  1464                           ; BSR set to: 14
  1465                           ;feeder/parser.c: 49:         bufic = 0;
  1466  00FCDE  0E00               	movlw	0
  1467  00FCE0                     L1:
  1468  00FCE0  6E08               	movwf	_bufic^0,c
  1469                           
  1470                           ; BSR set to: 14
  1471                           ;feeder/parser.c: 52:     if (bufic == 0) {
  1472                           
  1473                           ;feeder/parser.c: 50:     }
  1474  00FCE2  5008               	movf	_bufic^0,w,c
  1475  00FCE4  B4D8               	btfsc	status,2,c
  1476  00FCE6  0012               	return	
  1477                           
  1478                           ; BSR set to: 14
  1479                           ;feeder/parser.c: 61:     ParseMessages();
  1480  00FCE8  ECE9  F07D         	call	_ParseMessages	;wreg free
  1481                           
  1482                           ; BSR set to: 14
  1483  00FCEC  0012               	return		;funcret
  1484  00FCEE                     __end_of_ReceiveMessage:
  1485                           	callstack 0
  1486                           
  1487 ;; *************** function _ParseMessages *****************
  1488 ;; Defined at:
  1489 ;;		line 73 in file "feeder/parser.c"
  1490 ;; Parameters:    Size  Location     Type
  1491 ;;		None
  1492 ;; Auto vars:     Size  Location     Type
  1493 ;;		None
  1494 ;; Return value:  Size  Location     Type
  1495 ;;                  1    wreg      void 
  1496 ;; Registers used:
  1497 ;;		None
  1498 ;; Tracked objects:
  1499 ;;		On entry : 3F/E
  1500 ;;		On exit  : 3F/E
  1501 ;;		Unchanged: 3F/0
  1502 ;; Data sizes:     COMRAM   BANK0   BANK1   BANK2   BANK3   BANK4   BANK5   BANK6   BANK7   BANK8   BANK9  BANK10  BANK1
      +1  BANK12  BANK13  BANK14
  1503 ;;      Params:         0       0       0       0       0       0       0       0       0       0       0       0       
      +0       0       0       0
  1504 ;;      Locals:         0       0       0       0       0       0       0       0       0       0       0       0       
      +0       0       0       0
  1505 ;;      Temps:          0       0       0       0       0       0       0       0       0       0       0       0       
      +0       0       0       0
  1506 ;;      Totals:         0       0       0       0       0       0       0       0       0       0       0       0       
      +0       0       0       0
  1507 ;;Total ram usage:        0 bytes
  1508 ;; Hardware stack levels used:    1
  1509 ;; This function calls:
  1510 ;;		Nothing
  1511 ;; This function is called by:
  1512 ;;		_ReceiveMessage
  1513 ;; This function uses a non-reentrant model
  1514 ;;
  1515                           
  1516                           	psect	text15
  1517  00FBD2                     __ptext15:
  1518                           	callstack 0
  1519  00FBD2                     _ParseMessages:
  1520                           	callstack 28
  1521                           
  1522                           ; BSR set to: 14
  1523                           
  1524                           ; BSR set to: 14
  1525                           ;incstack = 0
  1526  00FBD2  0012               	return		;funcret
  1527  00FBD4                     __end_of_ParseMessages:
  1528                           	callstack 0
  1529                           
  1530 ;; *************** function _EUSART1_is_rx_ready *****************
  1531 ;; Defined at:
  1532 ;;		line 99 in file "mcc_generated_files/eusart1.c"
  1533 ;; Parameters:    Size  Location     Type
  1534 ;;		None
  1535 ;; Auto vars:     Size  Location     Type
  1536 ;;		None
  1537 ;; Return value:  Size  Location     Type
  1538 ;;                  1    wreg      _Bool 
  1539 ;; Registers used:
  1540 ;;		wreg
  1541 ;; Tracked objects:
  1542 ;;		On entry : 0/0
  1543 ;;		On exit  : 3F/E
  1544 ;;		Unchanged: 0/0
  1545 ;; Data sizes:     COMRAM   BANK0   BANK1   BANK2   BANK3   BANK4   BANK5   BANK6   BANK7   BANK8   BANK9  BANK10  BANK1
      +1  BANK12  BANK13  BANK14
  1546 ;;      Params:         0       0       0       0       0       0       0       0       0       0       0       0       
      +0       0       0       0
  1547 ;;      Locals:         0       0       0       0       0       0       0       0       0       0       0       0       
      +0       0       0       0
  1548 ;;      Temps:          0       0       0       0       0       0       0       0       0       0       0       0       
      +0       0       0       0
  1549 ;;      Totals:         0       0       0       0       0       0       0       0       0       0       0       0       
      +0       0       0       0
  1550 ;;Total ram usage:        0 bytes
  1551 ;; Hardware stack levels used:    1
  1552 ;; This function calls:
  1553 ;;		Nothing
  1554 ;; This function is called by:
  1555 ;;		_ReceiveMessage
  1556 ;; This function uses a non-reentrant model
  1557 ;;
  1558                           
  1559                           	psect	text16
  1560  00FC0C                     __ptext16:
  1561                           	callstack 0
  1562  00FC0C                     _EUSART1_is_rx_ready:
  1563                           	callstack 28
  1564                           
  1565                           ;mcc_generated_files/eusart1.c: 101:     return (_Bool)(PIR3bits.RC1IF);
  1566                           
  1567                           ; BSR set to: 14
  1568                           ;incstack = 0
  1569  00FC0C  010E               	movlb	14	; () banked
  1570  00FC0E  ABC8               	btfss	200,5,b	;volatile
  1571  00FC10  D002               	goto	u10
  1572  00FC12  0E01               	movlw	1
  1573  00FC14  0012               	return	
  1574  00FC16                     u10:
  1575  00FC16  0E00               	movlw	0
  1576                           
  1577                           ; BSR set to: 14
  1578  00FC18  0012               	return		;funcret
  1579  00FC1A                     __end_of_EUSART1_is_rx_ready:
  1580                           	callstack 0
  1581                           
  1582 ;; *************** function _EUSART1_Read *****************
  1583 ;; Defined at:
  1584 ;;		line 113 in file "mcc_generated_files/eusart1.c"
  1585 ;; Parameters:    Size  Location     Type
  1586 ;;		None
  1587 ;; Auto vars:     Size  Location     Type
  1588 ;;		None
  1589 ;; Return value:  Size  Location     Type
  1590 ;;                  1    wreg      unsigned char 
  1591 ;; Registers used:
  1592 ;;		wreg, status,2
  1593 ;; Tracked objects:
  1594 ;;		On entry : 3F/E
  1595 ;;		On exit  : 3F/E
  1596 ;;		Unchanged: 0/0
  1597 ;; Data sizes:     COMRAM   BANK0   BANK1   BANK2   BANK3   BANK4   BANK5   BANK6   BANK7   BANK8   BANK9  BANK10  BANK1
      +1  BANK12  BANK13  BANK14
  1598 ;;      Params:         0       0       0       0       0       0       0       0       0       0       0       0       
      +0       0       0       0
  1599 ;;      Locals:         0       0       0       0       0       0       0       0       0       0       0       0       
      +0       0       0       0
  1600 ;;      Temps:          0       0       0       0       0       0       0       0       0       0       0       0       
      +0       0       0       0
  1601 ;;      Totals:         0       0       0       0       0       0       0       0       0       0       0       0       
      +0       0       0       0
  1602 ;;Total ram usage:        0 bytes
  1603 ;; Hardware stack levels used:    1
  1604 ;; This function calls:
  1605 ;;		Nothing
  1606 ;; This function is called by:
  1607 ;;		_ReceiveMessage
  1608 ;; This function uses a non-reentrant model
  1609 ;;
  1610                           
  1611                           	psect	text17
  1612  00FC1A                     __ptext17:
  1613                           	callstack 0
  1614  00FC1A                     _EUSART1_Read:
  1615                           	callstack 28
  1616                           
  1617                           ; BSR set to: 14
  1618                           ;mcc_generated_files/eusart1.c: 115:     while(!PIR3bits.RC1IF)
  1619                           
  1620                           ; BSR set to: 14
  1621                           ;mcc_generated_files/eusart1.c: 116:     {;mcc_generated_files/eusart1.c: 117:     }
  1622                           
  1623                           ; BSR set to: 14
  1624                           ;incstack = 0
  1625  00FC1A  ABC8               	btfss	200,5,b	;volatile
  1626  00FC1C  D7FE               	goto	_EUSART1_Read
  1627                           
  1628                           ; BSR set to: 14
  1629                           ;mcc_generated_files/eusart1.c: 119:     eusart1RxLastError.status = 0;
  1630  00FC1E  0E00               	movlw	0
  1631  00FC20  6E07               	movwf	_eusart1RxLastError^0,c	;volatile
  1632                           
  1633                           ; BSR set to: 14
  1634                           ;mcc_generated_files/eusart1.c: 121:     if(1 == RC1STAbits.OERR)
  1635  00FC22  A29C               	btfss	156,1,c	;volatile
  1636  00FC24  D002               	goto	l1402
  1637                           
  1638                           ; BSR set to: 14
  1639                           ;mcc_generated_files/eusart1.c: 122:     {;mcc_generated_files/eusart1.c: 125:         R
      +                          C1STAbits.CREN = 0;
  1640  00FC26  989C               	bcf	156,4,c	;volatile
  1641                           
  1642                           ;mcc_generated_files/eusart1.c: 126:         RC1STAbits.CREN = 1;
  1643  00FC28  889C               	bsf	156,4,c	;volatile
  1644  00FC2A                     l1402:
  1645                           
  1646                           ; BSR set to: 14
  1647                           ;mcc_generated_files/eusart1.c: 129:     return RC1REG;
  1648  00FC2A  5098               	movf	152,w,c	;volatile
  1649                           
  1650                           ; BSR set to: 14
  1651  00FC2C  0012               	return		;funcret
  1652  00FC2E                     __end_of_EUSART1_Read:
  1653                           	callstack 0
  1654                           
  1655 ;; *************** function _AdvanceLaneForPitch *****************
  1656 ;; Defined at:
  1657 ;;		line 38 in file "feeder/driver.c"
  1658 ;; Parameters:    Size  Location     Type
  1659 ;;  feederLane      1    wreg     unsigned char 
  1660 ;;  feedingPitch    1    4[COMRAM] unsigned char 
  1661 ;; Auto vars:     Size  Location     Type
  1662 ;;  feederLane      1    7[COMRAM] unsigned char 
  1663 ;; Return value:  Size  Location     Type
  1664 ;;                  1    wreg      void 
  1665 ;; Registers used:
  1666 ;;		wreg, status,2, status,0, cstack
  1667 ;; Tracked objects:
  1668 ;;		On entry : 0/0
  1669 ;;		On exit  : 0/0
  1670 ;;		Unchanged: 0/0
  1671 ;; Data sizes:     COMRAM   BANK0   BANK1   BANK2   BANK3   BANK4   BANK5   BANK6   BANK7   BANK8   BANK9  BANK10  BANK1
      +1  BANK12  BANK13  BANK14
  1672 ;;      Params:         1       0       0       0       0       0       0       0       0       0       0       0       
      +0       0       0       0
  1673 ;;      Locals:         1       0       0       0       0       0       0       0       0       0       0       0       
      +0       0       0       0
  1674 ;;      Temps:          2       0       0       0       0       0       0       0       0       0       0       0       
      +0       0       0       0
  1675 ;;      Totals:         4       0       0       0       0       0       0       0       0       0       0       0       
      +0       0       0       0
  1676 ;;Total ram usage:        4 bytes
  1677 ;; Hardware stack levels used:    1
  1678 ;; Hardware stack levels required when called:    2
  1679 ;; This function calls:
  1680 ;;		_DriveLaneMotorForward
  1681 ;;		_DriveTapeMotorForward
  1682 ;;		_HaltLaneMotor
  1683 ;;		_HaltTapeMotor
  1684 ;;		_IsRearSensorInterrupted
  1685 ;;		_MotorsDisable
  1686 ;;		_MotorsEnable
  1687 ;; This function is called by:
  1688 ;;		_main
  1689 ;; This function uses a non-reentrant model
  1690 ;;
  1691                           
  1692                           	psect	text18
  1693  00FF04                     __ptext18:
  1694                           	callstack 0
  1695  00FF04                     _AdvanceLaneForPitch:
  1696                           	callstack 28
  1697                           
  1698                           ; BSR set to: 14
  1699                           ;incstack = 0
  1700                           ;AdvanceLaneForPitch@feederLane stored from wreg
  1701  00FF04  6E13               	movwf	AdvanceLaneForPitch@feederLane^0,c
  1702                           
  1703                           ;feeder/driver.c: 43:     MotorsEnable();
  1704  00FF06  ECED  F07D         	call	_MotorsEnable	;wreg free
  1705                           
  1706                           ;feeder/driver.c: 44:     DriveTapeMotorForward();
  1707  00FF0A  ECEB  F07D         	call	_DriveTapeMotorForward	;wreg free
  1708                           
  1709                           ;feeder/driver.c: 45:     DriveLaneMotorForward(feederLane);
  1710  00FF0E  5013               	movf	AdvanceLaneForPitch@feederLane^0,w,c
  1711  00FF10  EC90  F07E         	call	_DriveLaneMotorForward
  1712                           
  1713                           ;feeder/driver.c: 48:     while (feedingPitch--) {
  1714  00FF14  D012               	goto	u180
  1715  00FF16                     l1632:
  1716                           
  1717                           ;feeder/driver.c: 53:         while (IsRearSensorInterrupted(feederLane)) {
  1718  00FF16  5013               	movf	AdvanceLaneForPitch@feederLane^0,w,c
  1719  00FF18  ECF1  F07E         	call	_IsRearSensorInterrupted
  1720  00FF1C  0900               	iorlw	0
  1721  00FF1E  A4D8               	btfss	status,2,c
  1722  00FF20  D7FA               	goto	l1632
  1723  00FF22                     u160:
  1724                           
  1725                           ;feeder/driver.c: 63:         while (!IsRearSensorInterrupted(feederLane)) {
  1726  00FF22  5013               	movf	AdvanceLaneForPitch@feederLane^0,w,c
  1727  00FF24  ECF1  F07E         	call	_IsRearSensorInterrupted
  1728  00FF28  0900               	iorlw	0
  1729  00FF2A  B4D8               	btfsc	status,2,c
  1730  00FF2C  D7FA               	goto	u160
  1731  00FF2E                     u170:
  1732                           
  1733                           ;feeder/driver.c: 73:         while (IsRearSensorInterrupted(feederLane)) {
  1734  00FF2E  5013               	movf	AdvanceLaneForPitch@feederLane^0,w,c
  1735  00FF30  ECF1  F07E         	call	_IsRearSensorInterrupted
  1736  00FF34  0900               	iorlw	0
  1737  00FF36  A4D8               	btfss	status,2,c
  1738  00FF38  D7FA               	goto	u170
  1739  00FF3A                     u180:
  1740                           
  1741                           ;feeder/driver.c: 48:     while (feedingPitch--) {
  1742  00FF3A  0610               	decf	AdvanceLaneForPitch@feedingPitch^0,f,c
  1743  00FF3C  2810               	incf	AdvanceLaneForPitch@feedingPitch^0,w,c
  1744  00FF3E  A4D8               	btfss	status,2,c
  1745  00FF40  D7EA               	goto	l1632
  1746                           
  1747                           ;feeder/driver.c: 82:     HaltLaneMotor(feederLane);
  1748  00FF42  5013               	movf	AdvanceLaneForPitch@feederLane^0,w,c
  1749  00FF44  ECCE  F07E         	call	_HaltLaneMotor
  1750                           
  1751                           ;feeder/driver.c: 90:     _delay((unsigned long)((200)*(64000000/4000.0)));
  1752  00FF48  0E11               	movlw	17
  1753  00FF4A  6E12               	movwf	(??_AdvanceLaneForPitch+1)^0,c
  1754  00FF4C  0E3C               	movlw	60
  1755  00FF4E  6E11               	movwf	??_AdvanceLaneForPitch^0,c
  1756  00FF50  0ECB               	movlw	203
  1757  00FF52                     u247:
  1758  00FF52  2EE8               	decfsz	wreg,f,c
  1759  00FF54  D7FE               	bra	u247
  1760  00FF56  2E11               	decfsz	??_AdvanceLaneForPitch^0,f,c
  1761  00FF58  D7FC               	bra	u247
  1762  00FF5A  2E12               	decfsz	(??_AdvanceLaneForPitch+1)^0,f,c
  1763  00FF5C  D7FA               	bra	u247
  1764  00FF5E  F000               	nop	
  1765                           
  1766                           ;feeder/driver.c: 91:     HaltTapeMotor();
  1767  00FF60  ECEF  F07D         	call	_HaltTapeMotor	;wreg free
  1768                           
  1769                           ;feeder/driver.c: 92:     MotorsDisable();
  1770  00FF64  EC2D  F07E         	call	_MotorsDisable	;wreg free
  1771  00FF68  0012               	return		;funcret
  1772  00FF6A                     __end_of_AdvanceLaneForPitch:
  1773                           	callstack 0
  1774                           
  1775 ;; *************** function _MotorsEnable *****************
  1776 ;; Defined at:
  1777 ;;		line 32 in file "feeder/motors.c"
  1778 ;; Parameters:    Size  Location     Type
  1779 ;;		None
  1780 ;; Auto vars:     Size  Location     Type
  1781 ;;		None
  1782 ;; Return value:  Size  Location     Type
  1783 ;;                  1    wreg      void 
  1784 ;; Registers used:
  1785 ;;		None
  1786 ;; Tracked objects:
  1787 ;;		On entry : 0/0
  1788 ;;		On exit  : 0/0
  1789 ;;		Unchanged: 0/0
  1790 ;; Data sizes:     COMRAM   BANK0   BANK1   BANK2   BANK3   BANK4   BANK5   BANK6   BANK7   BANK8   BANK9  BANK10  BANK1
      +1  BANK12  BANK13  BANK14
  1791 ;;      Params:         0       0       0       0       0       0       0       0       0       0       0       0       
      +0       0       0       0
  1792 ;;      Locals:         0       0       0       0       0       0       0       0       0       0       0       0       
      +0       0       0       0
  1793 ;;      Temps:          0       0       0       0       0       0       0       0       0       0       0       0       
      +0       0       0       0
  1794 ;;      Totals:         0       0       0       0       0       0       0       0       0       0       0       0       
      +0       0       0       0
  1795 ;;Total ram usage:        0 bytes
  1796 ;; Hardware stack levels used:    1
  1797 ;; This function calls:
  1798 ;;		Nothing
  1799 ;; This function is called by:
  1800 ;;		_AdvanceLaneForPitch
  1801 ;; This function uses a non-reentrant model
  1802 ;;
  1803                           
  1804                           	psect	text19
  1805  00FBDA                     __ptext19:
  1806                           	callstack 0
  1807  00FBDA                     _MotorsEnable:
  1808                           	callstack 29
  1809                           
  1810                           ;incstack = 0
  1811                           ;feeder/motors.c: 33:     do { LATCbits.LATC2 = 1; } while(0);
  1812  00FBDA  8484               	bsf	132,2,c	;volatile
  1813  00FBDC  0012               	return		;funcret
  1814  00FBDE                     __end_of_MotorsEnable:
  1815                           	callstack 0
  1816                           
  1817 ;; *************** function _MotorsDisable *****************
  1818 ;; Defined at:
  1819 ;;		line 36 in file "feeder/motors.c"
  1820 ;; Parameters:    Size  Location     Type
  1821 ;;		None
  1822 ;; Auto vars:     Size  Location     Type
  1823 ;;		None
  1824 ;; Return value:  Size  Location     Type
  1825 ;;                  1    wreg      void 
  1826 ;; Registers used:
  1827 ;;		wreg, status,2, status,0, cstack
  1828 ;; Tracked objects:
  1829 ;;		On entry : 0/E
  1830 ;;		On exit  : 0/0
  1831 ;;		Unchanged: 0/0
  1832 ;; Data sizes:     COMRAM   BANK0   BANK1   BANK2   BANK3   BANK4   BANK5   BANK6   BANK7   BANK8   BANK9  BANK10  BANK1
      +1  BANK12  BANK13  BANK14
  1833 ;;      Params:         0       0       0       0       0       0       0       0       0       0       0       0       
      +0       0       0       0
  1834 ;;      Locals:         0       0       0       0       0       0       0       0       0       0       0       0       
      +0       0       0       0
  1835 ;;      Temps:          0       0       0       0       0       0       0       0       0       0       0       0       
      +0       0       0       0
  1836 ;;      Totals:         0       0       0       0       0       0       0       0       0       0       0       0       
      +0       0       0       0
  1837 ;;Total ram usage:        0 bytes
  1838 ;; Hardware stack levels used:    1
  1839 ;; Hardware stack levels required when called:    1
  1840 ;; This function calls:
  1841 ;;		_HaltLaneMotor
  1842 ;; This function is called by:
  1843 ;;		_AdvanceLaneForPitch
  1844 ;;		_main
  1845 ;; This function uses a non-reentrant model
  1846 ;;
  1847                           
  1848                           	psect	text20
  1849  00FC5A                     __ptext20:
  1850                           	callstack 0
  1851  00FC5A                     _MotorsDisable:
  1852                           	callstack 29
  1853                           
  1854                           ;feeder/motors.c: 37:     HaltLaneMotor(1);
  1855                           
  1856                           ;incstack = 0
  1857  00FC5A  0E01               	movlw	1
  1858  00FC5C  ECCE  F07E         	call	_HaltLaneMotor
  1859                           
  1860                           ;feeder/motors.c: 38:     HaltLaneMotor(2);
  1861  00FC60  0E02               	movlw	2
  1862  00FC62  ECCE  F07E         	call	_HaltLaneMotor
  1863                           
  1864                           ;feeder/motors.c: 39:     HaltLaneMotor(3);
  1865  00FC66  0E03               	movlw	3
  1866  00FC68  ECCE  F07E         	call	_HaltLaneMotor
  1867                           
  1868                           ;feeder/motors.c: 40:     HaltLaneMotor(4);
  1869  00FC6C  0E04               	movlw	4
  1870  00FC6E  ECCE  F07E         	call	_HaltLaneMotor
  1871  00FC72  9484               	bcf	132,2,c	;volatile
  1872  00FC74  0012               	return		;funcret
  1873  00FC76                     __end_of_MotorsDisable:
  1874                           	callstack 0
  1875                           
  1876 ;; *************** function _HaltLaneMotor *****************
  1877 ;; Defined at:
  1878 ;;		line 100 in file "feeder/motors.c"
  1879 ;; Parameters:    Size  Location     Type
  1880 ;;  feederLane      1    wreg     unsigned char 
  1881 ;; Auto vars:     Size  Location     Type
  1882 ;;  feederLane      1    2[COMRAM] unsigned char 
  1883 ;; Return value:  Size  Location     Type
  1884 ;;                  1    wreg      void 
  1885 ;; Registers used:
  1886 ;;		wreg, status,2, status,0
  1887 ;; Tracked objects:
  1888 ;;		On entry : 0/0
  1889 ;;		On exit  : 0/0
  1890 ;;		Unchanged: 0/0
  1891 ;; Data sizes:     COMRAM   BANK0   BANK1   BANK2   BANK3   BANK4   BANK5   BANK6   BANK7   BANK8   BANK9  BANK10  BANK1
      +1  BANK12  BANK13  BANK14
  1892 ;;      Params:         0       0       0       0       0       0       0       0       0       0       0       0       
      +0       0       0       0
  1893 ;;      Locals:         1       0       0       0       0       0       0       0       0       0       0       0       
      +0       0       0       0
  1894 ;;      Temps:          2       0       0       0       0       0       0       0       0       0       0       0       
      +0       0       0       0
  1895 ;;      Totals:         3       0       0       0       0       0       0       0       0       0       0       0       
      +0       0       0       0
  1896 ;;Total ram usage:        3 bytes
  1897 ;; Hardware stack levels used:    1
  1898 ;; This function calls:
  1899 ;;		Nothing
  1900 ;; This function is called by:
  1901 ;;		_AdvanceLaneForPitch
  1902 ;;		_MotorsDisable
  1903 ;; This function uses a non-reentrant model
  1904 ;;
  1905                           
  1906                           	psect	text21
  1907  00FD9C                     __ptext21:
  1908                           	callstack 0
  1909  00FD9C                     _HaltLaneMotor:
  1910                           	callstack 29
  1911                           
  1912                           ;incstack = 0
  1913                           ;HaltLaneMotor@feederLane stored from wreg
  1914  00FD9C  6E0E               	movwf	HaltLaneMotor@feederLane^0,c
  1915                           
  1916                           ;feeder/motors.c: 101:     switch (feederLane) {
  1917  00FD9E  D00C               	goto	l1384
  1918  00FDA0                     l113:
  1919  00FDA0  9683               	bcf	131,3,c	;volatile
  1920                           
  1921                           ;feeder/motors.c: 104:             do { LATBbits.LATB1 = 0; } while(0);
  1922  00FDA2  9283               	bcf	131,1,c	;volatile
  1923  00FDA4  0012               	return	
  1924  00FDA6                     l119:
  1925  00FDA6  9C84               	bcf	132,6,c	;volatile
  1926                           
  1927                           ;feeder/motors.c: 108:             do { LATCbits.LATC7 = 0; } while(0);
  1928  00FDA8  9E84               	bcf	132,7,c	;volatile
  1929  00FDAA  0012               	return	
  1930  00FDAC                     l124:
  1931  00FDAC  9084               	bcf	132,0,c	;volatile
  1932                           
  1933                           ;feeder/motors.c: 112:             do { LATCbits.LATC1 = 0; } while(0);
  1934  00FDAE  9284               	bcf	132,1,c	;volatile
  1935  00FDB0  0012               	return	
  1936  00FDB2                     l129:
  1937  00FDB2  9882               	bcf	130,4,c	;volatile
  1938                           
  1939                           ;feeder/motors.c: 116:             do { LATAbits.LATA5 = 0; } while(0);
  1940  00FDB4  9A82               	bcf	130,5,c	;volatile
  1941  00FDB6  0012               	return	
  1942  00FDB8                     l1384:
  1943  00FDB8  500E               	movf	HaltLaneMotor@feederLane^0,w,c
  1944  00FDBA  6E0C               	movwf	??_HaltLaneMotor^0,c
  1945  00FDBC  6A0D               	clrf	(??_HaltLaneMotor+1)^0,c
  1946                           
  1947                           ; Switch on 2 bytes has been partitioned into a top level switch of size 1, and 1 sub-sw
      +                          itches
  1948                           ; Switch size 1, requested type "simple"
  1949                           ; Number of cases is 1, Range of values is 0 to 0
  1950                           ; switch strategies available:
  1951                           ; Name         Instructions Cycles
  1952                           ; simple_byte            4     3 (average)
  1953                           ;	Chosen strategy is simple_byte
  1954  00FDBE  500D               	movf	(??_HaltLaneMotor+1)^0,w,c
  1955  00FDC0  0A00               	xorlw	0	; case 0
  1956  00FDC2  A4D8               	btfss	status,2,c
  1957  00FDC4  0012               	return	
  1958                           
  1959                           ; Switch size 1, requested type "simple"
  1960                           ; Number of cases is 4, Range of values is 1 to 4
  1961                           ; switch strategies available:
  1962                           ; Name         Instructions Cycles
  1963                           ; simple_byte           13     7 (average)
  1964                           ;	Chosen strategy is simple_byte
  1965  00FDC6  500C               	movf	??_HaltLaneMotor^0,w,c
  1966  00FDC8  0A01               	xorlw	1	; case 1
  1967  00FDCA  B4D8               	btfsc	status,2,c
  1968  00FDCC  D7E9               	goto	l113
  1969  00FDCE  0A03               	xorlw	3	; case 2
  1970  00FDD0  B4D8               	btfsc	status,2,c
  1971  00FDD2  D7E9               	goto	l119
  1972  00FDD4  0A01               	xorlw	1	; case 3
  1973  00FDD6  B4D8               	btfsc	status,2,c
  1974  00FDD8  D7E9               	goto	l124
  1975  00FDDA  0A07               	xorlw	7	; case 4
  1976  00FDDC  A4D8               	btfss	status,2,c
  1977  00FDDE  0012               	return	
  1978  00FDE0  D7E8               	goto	l129
  1979  00FDE2                     __end_of_HaltLaneMotor:
  1980                           	callstack 0
  1981                           
  1982 ;; *************** function _IsRearSensorInterrupted *****************
  1983 ;; Defined at:
  1984 ;;		line 60 in file "feeder/sensors.c"
  1985 ;; Parameters:    Size  Location     Type
  1986 ;;  feederLane      1    wreg     unsigned char 
  1987 ;; Auto vars:     Size  Location     Type
  1988 ;;  feederLane      1    2[COMRAM] unsigned char 
  1989 ;;  state           1    3[COMRAM] _Bool 
  1990 ;; Return value:  Size  Location     Type
  1991 ;;                  1    wreg      _Bool 
  1992 ;; Registers used:
  1993 ;;		wreg, status,2, status,0
  1994 ;; Tracked objects:
  1995 ;;		On entry : 0/0
  1996 ;;		On exit  : 0/0
  1997 ;;		Unchanged: 0/0
  1998 ;; Data sizes:     COMRAM   BANK0   BANK1   BANK2   BANK3   BANK4   BANK5   BANK6   BANK7   BANK8   BANK9  BANK10  BANK1
      +1  BANK12  BANK13  BANK14
  1999 ;;      Params:         0       0       0       0       0       0       0       0       0       0       0       0       
      +0       0       0       0
  2000 ;;      Locals:         2       0       0       0       0       0       0       0       0       0       0       0       
      +0       0       0       0
  2001 ;;      Temps:          2       0       0       0       0       0       0       0       0       0       0       0       
      +0       0       0       0
  2002 ;;      Totals:         4       0       0       0       0       0       0       0       0       0       0       0       
      +0       0       0       0
  2003 ;;Total ram usage:        4 bytes
  2004 ;; Hardware stack levels used:    1
  2005 ;; This function calls:
  2006 ;;		Nothing
  2007 ;; This function is called by:
  2008 ;;		_AdvanceLaneForPitch
  2009 ;; This function uses a non-reentrant model
  2010 ;;
  2011                           
  2012                           	psect	text22
  2013  00FDE2                     __ptext22:
  2014                           	callstack 0
  2015  00FDE2                     _IsRearSensorInterrupted:
  2016                           	callstack 29
  2017                           
  2018                           ;incstack = 0
  2019                           ;IsRearSensorInterrupted@feederLane stored from wreg
  2020  00FDE2  6E0E               	movwf	IsRearSensorInterrupted@feederLane^0,c
  2021                           
  2022                           ;feeder/sensors.c: 61:     _Bool state;;feeder/sensors.c: 62:     switch (feederLane) {
  2023  00FDE4  D011               	goto	l1426
  2024  00FDE6                     l177:
  2025                           
  2026                           ;feeder/sensors.c: 64:             state = (PORTBbits.RB0);
  2027  00FDE6  A08D               	btfss	141,0,c	;volatile
  2028  00FDE8  D00D               	goto	u70
  2029  00FDEA  D00A               	goto	u71
  2030  00FDEC                     u46:
  2031  00FDEC  6E0F               	movwf	IsRearSensorInterrupted@state^0,c
  2032                           
  2033                           ;feeder/sensors.c: 65:             break;
  2034  00FDEE  D020               	goto	l1428
  2035  00FDF0                     l179:
  2036                           
  2037                           ;feeder/sensors.c: 67:             state = (PORTCbits.RC4);
  2038  00FDF0  A88E               	btfss	142,4,c	;volatile
  2039  00FDF2  D008               	goto	u70
  2040  00FDF4  D005               	goto	u71
  2041  00FDF6                     l180:
  2042                           
  2043                           ;feeder/sensors.c: 70:             state = (PORTAbits.RA6);
  2044  00FDF6  AC8C               	btfss	140,6,c	;volatile
  2045  00FDF8  D005               	goto	u70
  2046  00FDFA  D002               	goto	u71
  2047  00FDFC                     l181:
  2048                           
  2049                           ;feeder/sensors.c: 73:             state = (PORTAbits.RA3);
  2050  00FDFC  A68C               	btfss	140,3,c	;volatile
  2051  00FDFE  D002               	goto	u70
  2052  00FE00                     u71:
  2053  00FE00  0E01               	movlw	1
  2054  00FE02  D7F4               	goto	u46
  2055  00FE04                     u70:
  2056  00FE04  0E00               	movlw	0
  2057  00FE06  D7F2               	goto	u46
  2058  00FE08                     l1426:
  2059  00FE08  500E               	movf	IsRearSensorInterrupted@feederLane^0,w,c
  2060  00FE0A  6E0C               	movwf	??_IsRearSensorInterrupted^0,c
  2061  00FE0C  6A0D               	clrf	(??_IsRearSensorInterrupted+1)^0,c
  2062                           
  2063                           ; Switch on 2 bytes has been partitioned into a top level switch of size 1, and 1 sub-sw
      +                          itches
  2064                           ; Switch size 1, requested type "simple"
  2065                           ; Number of cases is 1, Range of values is 0 to 0
  2066                           ; switch strategies available:
  2067                           ; Name         Instructions Cycles
  2068                           ; simple_byte            4     3 (average)
  2069                           ;	Chosen strategy is simple_byte
  2070  00FE0E  500D               	movf	(??_IsRearSensorInterrupted+1)^0,w,c
  2071  00FE10  0A00               	xorlw	0	; case 0
  2072  00FE12  A4D8               	btfss	status,2,c
  2073  00FE14  D00D               	goto	l1428
  2074                           
  2075                           ; Switch size 1, requested type "simple"
  2076                           ; Number of cases is 4, Range of values is 1 to 4
  2077                           ; switch strategies available:
  2078                           ; Name         Instructions Cycles
  2079                           ; simple_byte           13     7 (average)
  2080                           ;	Chosen strategy is simple_byte
  2081  00FE16  500C               	movf	??_IsRearSensorInterrupted^0,w,c
  2082  00FE18  0A01               	xorlw	1	; case 1
  2083  00FE1A  B4D8               	btfsc	status,2,c
  2084  00FE1C  D7E4               	goto	l177
  2085  00FE1E  0A03               	xorlw	3	; case 2
  2086  00FE20  B4D8               	btfsc	status,2,c
  2087  00FE22  D7E6               	goto	l179
  2088  00FE24  0A01               	xorlw	1	; case 3
  2089  00FE26  B4D8               	btfsc	status,2,c
  2090  00FE28  D7E6               	goto	l180
  2091  00FE2A  0A07               	xorlw	7	; case 4
  2092  00FE2C  B4D8               	btfsc	status,2,c
  2093  00FE2E  D7E6               	goto	l181
  2094  00FE30                     l1428:
  2095                           
  2096                           ;feeder/sensors.c: 77:     return (!state);
  2097  00FE30  500F               	movf	IsRearSensorInterrupted@state^0,w,c
  2098  00FE32  A4D8               	btfss	status,2,c
  2099  00FE34  D002               	goto	u80
  2100  00FE36  0E01               	movlw	1
  2101  00FE38  0012               	return	
  2102  00FE3A                     u80:
  2103  00FE3A  0E00               	movlw	0
  2104  00FE3C  0012               	return		;funcret
  2105  00FE3E                     __end_of_IsRearSensorInterrupted:
  2106                           	callstack 0
  2107                           
  2108 ;; *************** function _HaltTapeMotor *****************
  2109 ;; Defined at:
  2110 ;;		line 129 in file "feeder/motors.c"
  2111 ;; Parameters:    Size  Location     Type
  2112 ;;		None
  2113 ;; Auto vars:     Size  Location     Type
  2114 ;;		None
  2115 ;; Return value:  Size  Location     Type
  2116 ;;                  1    wreg      void 
  2117 ;; Registers used:
  2118 ;;		None
  2119 ;; Tracked objects:
  2120 ;;		On entry : 0/0
  2121 ;;		On exit  : 0/0
  2122 ;;		Unchanged: 0/0
  2123 ;; Data sizes:     COMRAM   BANK0   BANK1   BANK2   BANK3   BANK4   BANK5   BANK6   BANK7   BANK8   BANK9  BANK10  BANK1
      +1  BANK12  BANK13  BANK14
  2124 ;;      Params:         0       0       0       0       0       0       0       0       0       0       0       0       
      +0       0       0       0
  2125 ;;      Locals:         0       0       0       0       0       0       0       0       0       0       0       0       
      +0       0       0       0
  2126 ;;      Temps:          0       0       0       0       0       0       0       0       0       0       0       0       
      +0       0       0       0
  2127 ;;      Totals:         0       0       0       0       0       0       0       0       0       0       0       0       
      +0       0       0       0
  2128 ;;Total ram usage:        0 bytes
  2129 ;; Hardware stack levels used:    1
  2130 ;; This function calls:
  2131 ;;		Nothing
  2132 ;; This function is called by:
  2133 ;;		_AdvanceLaneForPitch
  2134 ;; This function uses a non-reentrant model
  2135 ;;
  2136                           
  2137                           	psect	text23
  2138  00FBDE                     __ptext23:
  2139                           	callstack 0
  2140  00FBDE                     _HaltTapeMotor:
  2141                           	callstack 29
  2142                           
  2143                           ;incstack = 0
  2144                           ;feeder/motors.c: 130:     do { LATAbits.LATA1 = 0; } while(0);
  2145  00FBDE  9282               	bcf	130,1,c	;volatile
  2146                           
  2147                           ;feeder/motors.c: 131:     do { LATAbits.LATA2 = 0; } while(0);
  2148  00FBE0  9482               	bcf	130,2,c	;volatile
  2149  00FBE2  0012               	return		;funcret
  2150  00FBE4                     __end_of_HaltTapeMotor:
  2151                           	callstack 0
  2152                           
  2153 ;; *************** function _DriveTapeMotorForward *****************
  2154 ;; Defined at:
  2155 ;;		line 121 in file "feeder/motors.c"
  2156 ;; Parameters:    Size  Location     Type
  2157 ;;		None
  2158 ;; Auto vars:     Size  Location     Type
  2159 ;;		None
  2160 ;; Return value:  Size  Location     Type
  2161 ;;                  1    wreg      void 
  2162 ;; Registers used:
  2163 ;;		None
  2164 ;; Tracked objects:
  2165 ;;		On entry : 0/0
  2166 ;;		On exit  : 0/0
  2167 ;;		Unchanged: 0/0
  2168 ;; Data sizes:     COMRAM   BANK0   BANK1   BANK2   BANK3   BANK4   BANK5   BANK6   BANK7   BANK8   BANK9  BANK10  BANK1
      +1  BANK12  BANK13  BANK14
  2169 ;;      Params:         0       0       0       0       0       0       0       0       0       0       0       0       
      +0       0       0       0
  2170 ;;      Locals:         0       0       0       0       0       0       0       0       0       0       0       0       
      +0       0       0       0
  2171 ;;      Temps:          0       0       0       0       0       0       0       0       0       0       0       0       
      +0       0       0       0
  2172 ;;      Totals:         0       0       0       0       0       0       0       0       0       0       0       0       
      +0       0       0       0
  2173 ;;Total ram usage:        0 bytes
  2174 ;; Hardware stack levels used:    1
  2175 ;; This function calls:
  2176 ;;		Nothing
  2177 ;; This function is called by:
  2178 ;;		_AdvanceLaneForPitch
  2179 ;; This function uses a non-reentrant model
  2180 ;;
  2181                           
  2182                           	psect	text24
  2183  00FBD6                     __ptext24:
  2184                           	callstack 0
  2185  00FBD6                     _DriveTapeMotorForward:
  2186                           	callstack 29
  2187                           
  2188                           ;incstack = 0
  2189                           ;feeder/motors.c: 122:     do { LATAbits.LATA2 = 1; } while(0);
  2190  00FBD6  8482               	bsf	130,2,c	;volatile
  2191  00FBD8  0012               	return		;funcret
  2192  00FBDA                     __end_of_DriveTapeMotorForward:
  2193                           	callstack 0
  2194                           
  2195 ;; *************** function _DriveLaneMotorForward *****************
  2196 ;; Defined at:
  2197 ;;		line 44 in file "feeder/motors.c"
  2198 ;; Parameters:    Size  Location     Type
  2199 ;;  feederLane      1    wreg     unsigned char 
  2200 ;; Auto vars:     Size  Location     Type
  2201 ;;  feederLane      1    2[COMRAM] unsigned char 
  2202 ;; Return value:  Size  Location     Type
  2203 ;;                  1    wreg      void 
  2204 ;; Registers used:
  2205 ;;		wreg, status,2, status,0
  2206 ;; Tracked objects:
  2207 ;;		On entry : 0/0
  2208 ;;		On exit  : 0/0
  2209 ;;		Unchanged: 0/0
  2210 ;; Data sizes:     COMRAM   BANK0   BANK1   BANK2   BANK3   BANK4   BANK5   BANK6   BANK7   BANK8   BANK9  BANK10  BANK1
      +1  BANK12  BANK13  BANK14
  2211 ;;      Params:         0       0       0       0       0       0       0       0       0       0       0       0       
      +0       0       0       0
  2212 ;;      Locals:         1       0       0       0       0       0       0       0       0       0       0       0       
      +0       0       0       0
  2213 ;;      Temps:          2       0       0       0       0       0       0       0       0       0       0       0       
      +0       0       0       0
  2214 ;;      Totals:         3       0       0       0       0       0       0       0       0       0       0       0       
      +0       0       0       0
  2215 ;;Total ram usage:        3 bytes
  2216 ;; Hardware stack levels used:    1
  2217 ;; This function calls:
  2218 ;;		Nothing
  2219 ;; This function is called by:
  2220 ;;		_AdvanceLaneForPitch
  2221 ;; This function uses a non-reentrant model
  2222 ;;
  2223                           
  2224                           	psect	text25
  2225  00FD20                     __ptext25:
  2226                           	callstack 0
  2227  00FD20                     _DriveLaneMotorForward:
  2228                           	callstack 29
  2229                           
  2230                           ;incstack = 0
  2231                           ;DriveLaneMotorForward@feederLane stored from wreg
  2232  00FD20  6E0E               	movwf	DriveLaneMotorForward@feederLane^0,c
  2233                           
  2234                           ;feeder/motors.c: 45:     switch (feederLane) {
  2235  00FD22  D008               	goto	l1416
  2236  00FD24                     l54:
  2237  00FD24  8683               	bsf	131,3,c	;volatile
  2238  00FD26  0012               	return	
  2239  00FD28                     l58:
  2240  00FD28  8C84               	bsf	132,6,c	;volatile
  2241  00FD2A  0012               	return	
  2242  00FD2C                     l61:
  2243  00FD2C  8084               	bsf	132,0,c	;volatile
  2244  00FD2E  0012               	return	
  2245  00FD30                     l64:
  2246  00FD30  8882               	bsf	130,4,c	;volatile
  2247  00FD32  0012               	return	
  2248  00FD34                     l1416:
  2249  00FD34  500E               	movf	DriveLaneMotorForward@feederLane^0,w,c
  2250  00FD36  6E0C               	movwf	??_DriveLaneMotorForward^0,c
  2251  00FD38  6A0D               	clrf	(??_DriveLaneMotorForward+1)^0,c
  2252                           
  2253                           ; Switch on 2 bytes has been partitioned into a top level switch of size 1, and 1 sub-sw
      +                          itches
  2254                           ; Switch size 1, requested type "simple"
  2255                           ; Number of cases is 1, Range of values is 0 to 0
  2256                           ; switch strategies available:
  2257                           ; Name         Instructions Cycles
  2258                           ; simple_byte            4     3 (average)
  2259                           ;	Chosen strategy is simple_byte
  2260  00FD3A  500D               	movf	(??_DriveLaneMotorForward+1)^0,w,c
  2261  00FD3C  0A00               	xorlw	0	; case 0
  2262  00FD3E  A4D8               	btfss	status,2,c
  2263  00FD40  0012               	return	
  2264                           
  2265                           ; Switch size 1, requested type "simple"
  2266                           ; Number of cases is 4, Range of values is 1 to 4
  2267                           ; switch strategies available:
  2268                           ; Name         Instructions Cycles
  2269                           ; simple_byte           13     7 (average)
  2270                           ;	Chosen strategy is simple_byte
  2271  00FD42  500C               	movf	??_DriveLaneMotorForward^0,w,c
  2272  00FD44  0A01               	xorlw	1	; case 1
  2273  00FD46  B4D8               	btfsc	status,2,c
  2274  00FD48  D7ED               	goto	l54
  2275  00FD4A  0A03               	xorlw	3	; case 2
  2276  00FD4C  B4D8               	btfsc	status,2,c
  2277  00FD4E  D7EC               	goto	l58
  2278  00FD50  0A01               	xorlw	1	; case 3
  2279  00FD52  B4D8               	btfsc	status,2,c
  2280  00FD54  D7EB               	goto	l61
  2281  00FD56  0A07               	xorlw	7	; case 4
  2282  00FD58  A4D8               	btfss	status,2,c
  2283  00FD5A  0012               	return	
  2284  00FD5C  D7E9               	goto	l64
  2285  00FD5E                     __end_of_DriveLaneMotorForward:
  2286                           	callstack 0
  2287  0000                     
  2288                           	psect	rparam
  2289  0000                     
  2290                           	psect	idloc
  2291                           
  2292                           ;Config register IDLOC0 @ 0x200000
  2293                           ;	unspecified, using default values
  2294  200000                     	org	2097152
  2295  200000  FFFF               	dw	65535
  2296                           
  2297                           ;Config register IDLOC1 @ 0x200002
  2298                           ;	unspecified, using default values
  2299  200002                     	org	2097154
  2300  200002  FFFF               	dw	65535
  2301                           
  2302                           ;Config register IDLOC2 @ 0x200004
  2303                           ;	unspecified, using default values
  2304  200004                     	org	2097156
  2305  200004  FFFF               	dw	65535
  2306                           
  2307                           ;Config register IDLOC3 @ 0x200006
  2308                           ;	unspecified, using default values
  2309  200006                     	org	2097158
  2310  200006  FFFF               	dw	65535
  2311                           
  2312                           ;Config register IDLOC4 @ 0x200008
  2313                           ;	unspecified, using default values
  2314  200008                     	org	2097160
  2315  200008  FFFF               	dw	65535
  2316                           
  2317                           ;Config register IDLOC5 @ 0x20000A
  2318                           ;	unspecified, using default values
  2319  20000A                     	org	2097162
  2320  20000A  FFFF               	dw	65535
  2321                           
  2322                           ;Config register IDLOC6 @ 0x20000C
  2323                           ;	unspecified, using default values
  2324  20000C                     	org	2097164
  2325  20000C  FFFF               	dw	65535
  2326                           
  2327                           ;Config register IDLOC7 @ 0x20000E
  2328                           ;	unspecified, using default values
  2329  20000E                     	org	2097166
  2330  20000E  FFFF               	dw	65535
  2331                           
  2332                           ;Config register IDLOC8 @ 0x200010
  2333                           ;	unspecified, using default values
  2334  200010                     	org	2097168
  2335  200010  FFFF               	dw	65535
  2336                           
  2337                           ;Config register IDLOC9 @ 0x200012
  2338                           ;	unspecified, using default values
  2339  200012                     	org	2097170
  2340  200012  FFFF               	dw	65535
  2341                           
  2342                           ;Config register IDLOC10 @ 0x200014
  2343                           ;	unspecified, using default values
  2344  200014                     	org	2097172
  2345  200014  FFFF               	dw	65535
  2346                           
  2347                           ;Config register IDLOC11 @ 0x200016
  2348                           ;	unspecified, using default values
  2349  200016                     	org	2097174
  2350  200016  FFFF               	dw	65535
  2351                           
  2352                           ;Config register IDLOC12 @ 0x200018
  2353                           ;	unspecified, using default values
  2354  200018                     	org	2097176
  2355  200018  FFFF               	dw	65535
  2356                           
  2357                           ;Config register IDLOC13 @ 0x20001A
  2358                           ;	unspecified, using default values
  2359  20001A                     	org	2097178
  2360  20001A  FFFF               	dw	65535
  2361                           
  2362                           ;Config register IDLOC14 @ 0x20001C
  2363                           ;	unspecified, using default values
  2364  20001C                     	org	2097180
  2365  20001C  FFFF               	dw	65535
  2366                           
  2367                           ;Config register IDLOC15 @ 0x20001E
  2368                           ;	unspecified, using default values
  2369  20001E                     	org	2097182
  2370  20001E  FFFF               	dw	65535
  2371                           
  2372                           ;Config register IDLOC16 @ 0x200020
  2373                           ;	unspecified, using default values
  2374  200020                     	org	2097184
  2375  200020  FFFF               	dw	65535
  2376                           
  2377                           ;Config register IDLOC17 @ 0x200022
  2378                           ;	unspecified, using default values
  2379  200022                     	org	2097186
  2380  200022  FFFF               	dw	65535
  2381                           
  2382                           ;Config register IDLOC18 @ 0x200024
  2383                           ;	unspecified, using default values
  2384  200024                     	org	2097188
  2385  200024  FFFF               	dw	65535
  2386                           
  2387                           ;Config register IDLOC19 @ 0x200026
  2388                           ;	unspecified, using default values
  2389  200026                     	org	2097190
  2390  200026  FFFF               	dw	65535
  2391                           
  2392                           ;Config register IDLOC20 @ 0x200028
  2393                           ;	unspecified, using default values
  2394  200028                     	org	2097192
  2395  200028  FFFF               	dw	65535
  2396                           
  2397                           ;Config register IDLOC21 @ 0x20002A
  2398                           ;	unspecified, using default values
  2399  20002A                     	org	2097194
  2400  20002A  FFFF               	dw	65535
  2401                           
  2402                           ;Config register IDLOC22 @ 0x20002C
  2403                           ;	unspecified, using default values
  2404  20002C                     	org	2097196
  2405  20002C  FFFF               	dw	65535
  2406                           
  2407                           ;Config register IDLOC23 @ 0x20002E
  2408                           ;	unspecified, using default values
  2409  20002E                     	org	2097198
  2410  20002E  FFFF               	dw	65535
  2411                           
  2412                           ;Config register IDLOC24 @ 0x200030
  2413                           ;	unspecified, using default values
  2414  200030                     	org	2097200
  2415  200030  FFFF               	dw	65535
  2416                           
  2417                           ;Config register IDLOC25 @ 0x200032
  2418                           ;	unspecified, using default values
  2419  200032                     	org	2097202
  2420  200032  FFFF               	dw	65535
  2421                           
  2422                           ;Config register IDLOC26 @ 0x200034
  2423                           ;	unspecified, using default values
  2424  200034                     	org	2097204
  2425  200034  FFFF               	dw	65535
  2426                           
  2427                           ;Config register IDLOC27 @ 0x200036
  2428                           ;	unspecified, using default values
  2429  200036                     	org	2097206
  2430  200036  FFFF               	dw	65535
  2431                           
  2432                           ;Config register IDLOC28 @ 0x200038
  2433                           ;	unspecified, using default values
  2434  200038                     	org	2097208
  2435  200038  FFFF               	dw	65535
  2436                           
  2437                           ;Config register IDLOC29 @ 0x20003A
  2438                           ;	unspecified, using default values
  2439  20003A                     	org	2097210
  2440  20003A  FFFF               	dw	65535
  2441                           
  2442                           ;Config register IDLOC30 @ 0x20003C
  2443                           ;	unspecified, using default values
  2444  20003C                     	org	2097212
  2445  20003C  FFFF               	dw	65535
  2446                           
  2447                           ;Config register IDLOC31 @ 0x20003E
  2448                           ;	unspecified, using default values
  2449  20003E                     	org	2097214
  2450  20003E  FFFF               	dw	65535
  2451                           
  2452                           ;Config register IDLOC32 @ 0x200040
  2453                           ;	unspecified, using default values
  2454  200040                     	org	2097216
  2455  200040  FFFF               	dw	65535
  2456                           
  2457                           ;Config register IDLOC33 @ 0x200042
  2458                           ;	unspecified, using default values
  2459  200042                     	org	2097218
  2460  200042  FFFF               	dw	65535
  2461                           
  2462                           ;Config register IDLOC34 @ 0x200044
  2463                           ;	unspecified, using default values
  2464  200044                     	org	2097220
  2465  200044  FFFF               	dw	65535
  2466                           
  2467                           ;Config register IDLOC35 @ 0x200046
  2468                           ;	unspecified, using default values
  2469  200046                     	org	2097222
  2470  200046  FFFF               	dw	65535
  2471                           
  2472                           ;Config register IDLOC36 @ 0x200048
  2473                           ;	unspecified, using default values
  2474  200048                     	org	2097224
  2475  200048  FFFF               	dw	65535
  2476                           
  2477                           ;Config register IDLOC37 @ 0x20004A
  2478                           ;	unspecified, using default values
  2479  20004A                     	org	2097226
  2480  20004A  FFFF               	dw	65535
  2481                           
  2482                           ;Config register IDLOC38 @ 0x20004C
  2483                           ;	unspecified, using default values
  2484  20004C                     	org	2097228
  2485  20004C  FFFF               	dw	65535
  2486                           
  2487                           ;Config register IDLOC39 @ 0x20004E
  2488                           ;	unspecified, using default values
  2489  20004E                     	org	2097230
  2490  20004E  FFFF               	dw	65535
  2491                           
  2492                           ;Config register IDLOC40 @ 0x200050
  2493                           ;	unspecified, using default values
  2494  200050                     	org	2097232
  2495  200050  FFFF               	dw	65535
  2496                           
  2497                           ;Config register IDLOC41 @ 0x200052
  2498                           ;	unspecified, using default values
  2499  200052                     	org	2097234
  2500  200052  FFFF               	dw	65535
  2501                           
  2502                           ;Config register IDLOC42 @ 0x200054
  2503                           ;	unspecified, using default values
  2504  200054                     	org	2097236
  2505  200054  FFFF               	dw	65535
  2506                           
  2507                           ;Config register IDLOC43 @ 0x200056
  2508                           ;	unspecified, using default values
  2509  200056                     	org	2097238
  2510  200056  FFFF               	dw	65535
  2511                           
  2512                           ;Config register IDLOC44 @ 0x200058
  2513                           ;	unspecified, using default values
  2514  200058                     	org	2097240
  2515  200058  FFFF               	dw	65535
  2516                           
  2517                           ;Config register IDLOC45 @ 0x20005A
  2518                           ;	unspecified, using default values
  2519  20005A                     	org	2097242
  2520  20005A  FFFF               	dw	65535
  2521                           
  2522                           ;Config register IDLOC46 @ 0x20005C
  2523                           ;	unspecified, using default values
  2524  20005C                     	org	2097244
  2525  20005C  FFFF               	dw	65535
  2526                           
  2527                           ;Config register IDLOC47 @ 0x20005E
  2528                           ;	unspecified, using default values
  2529  20005E                     	org	2097246
  2530  20005E  FFFF               	dw	65535
  2531                           
  2532                           ;Config register IDLOC48 @ 0x200060
  2533                           ;	unspecified, using default values
  2534  200060                     	org	2097248
  2535  200060  FFFF               	dw	65535
  2536                           
  2537                           ;Config register IDLOC49 @ 0x200062
  2538                           ;	unspecified, using default values
  2539  200062                     	org	2097250
  2540  200062  FFFF               	dw	65535
  2541                           
  2542                           ;Config register IDLOC50 @ 0x200064
  2543                           ;	unspecified, using default values
  2544  200064                     	org	2097252
  2545  200064  FFFF               	dw	65535
  2546                           
  2547                           ;Config register IDLOC51 @ 0x200066
  2548                           ;	unspecified, using default values
  2549  200066                     	org	2097254
  2550  200066  FFFF               	dw	65535
  2551                           
  2552                           ;Config register IDLOC52 @ 0x200068
  2553                           ;	unspecified, using default values
  2554  200068                     	org	2097256
  2555  200068  FFFF               	dw	65535
  2556                           
  2557                           ;Config register IDLOC53 @ 0x20006A
  2558                           ;	unspecified, using default values
  2559  20006A                     	org	2097258
  2560  20006A  FFFF               	dw	65535
  2561                           
  2562                           ;Config register IDLOC54 @ 0x20006C
  2563                           ;	unspecified, using default values
  2564  20006C                     	org	2097260
  2565  20006C  FFFF               	dw	65535
  2566                           
  2567                           ;Config register IDLOC55 @ 0x20006E
  2568                           ;	unspecified, using default values
  2569  20006E                     	org	2097262
  2570  20006E  FFFF               	dw	65535
  2571                           
  2572                           ;Config register IDLOC56 @ 0x200070
  2573                           ;	unspecified, using default values
  2574  200070                     	org	2097264
  2575  200070  FFFF               	dw	65535
  2576                           
  2577                           ;Config register IDLOC57 @ 0x200072
  2578                           ;	unspecified, using default values
  2579  200072                     	org	2097266
  2580  200072  FFFF               	dw	65535
  2581                           
  2582                           ;Config register IDLOC58 @ 0x200074
  2583                           ;	unspecified, using default values
  2584  200074                     	org	2097268
  2585  200074  FFFF               	dw	65535
  2586                           
  2587                           ;Config register IDLOC59 @ 0x200076
  2588                           ;	unspecified, using default values
  2589  200076                     	org	2097270
  2590  200076  FFFF               	dw	65535
  2591                           
  2592                           ;Config register IDLOC60 @ 0x200078
  2593                           ;	unspecified, using default values
  2594  200078                     	org	2097272
  2595  200078  FFFF               	dw	65535
  2596                           
  2597                           ;Config register IDLOC61 @ 0x20007A
  2598                           ;	unspecified, using default values
  2599  20007A                     	org	2097274
  2600  20007A  FFFF               	dw	65535
  2601                           
  2602                           ;Config register IDLOC62 @ 0x20007C
  2603                           ;	unspecified, using default values
  2604  20007C                     	org	2097276
  2605  20007C  FFFF               	dw	65535
  2606                           
  2607                           ;Config register IDLOC63 @ 0x20007E
  2608                           ;	unspecified, using default values
  2609  20007E                     	org	2097278
  2610  20007E  FFFF               	dw	65535
  2611                           
  2612                           ;Config register IDLOC64 @ 0x200080
  2613                           ;	unspecified, using default values
  2614  200080                     	org	2097280
  2615  200080  FFFF               	dw	65535
  2616                           
  2617                           ;Config register IDLOC65 @ 0x200082
  2618                           ;	unspecified, using default values
  2619  200082                     	org	2097282
  2620  200082  FFFF               	dw	65535
  2621                           
  2622                           ;Config register IDLOC66 @ 0x200084
  2623                           ;	unspecified, using default values
  2624  200084                     	org	2097284
  2625  200084  FFFF               	dw	65535
  2626                           
  2627                           ;Config register IDLOC67 @ 0x200086
  2628                           ;	unspecified, using default values
  2629  200086                     	org	2097286
  2630  200086  FFFF               	dw	65535
  2631                           
  2632                           ;Config register IDLOC68 @ 0x200088
  2633                           ;	unspecified, using default values
  2634  200088                     	org	2097288
  2635  200088  FFFF               	dw	65535
  2636                           
  2637                           ;Config register IDLOC69 @ 0x20008A
  2638                           ;	unspecified, using default values
  2639  20008A                     	org	2097290
  2640  20008A  FFFF               	dw	65535
  2641                           
  2642                           ;Config register IDLOC70 @ 0x20008C
  2643                           ;	unspecified, using default values
  2644  20008C                     	org	2097292
  2645  20008C  FFFF               	dw	65535
  2646                           
  2647                           ;Config register IDLOC71 @ 0x20008E
  2648                           ;	unspecified, using default values
  2649  20008E                     	org	2097294
  2650  20008E  FFFF               	dw	65535
  2651                           
  2652                           ;Config register IDLOC72 @ 0x200090
  2653                           ;	unspecified, using default values
  2654  200090                     	org	2097296
  2655  200090  FFFF               	dw	65535
  2656                           
  2657                           ;Config register IDLOC73 @ 0x200092
  2658                           ;	unspecified, using default values
  2659  200092                     	org	2097298
  2660  200092  FFFF               	dw	65535
  2661                           
  2662                           ;Config register IDLOC74 @ 0x200094
  2663                           ;	unspecified, using default values
  2664  200094                     	org	2097300
  2665  200094  FFFF               	dw	65535
  2666                           
  2667                           ;Config register IDLOC75 @ 0x200096
  2668                           ;	unspecified, using default values
  2669  200096                     	org	2097302
  2670  200096  FFFF               	dw	65535
  2671                           
  2672                           ;Config register IDLOC76 @ 0x200098
  2673                           ;	unspecified, using default values
  2674  200098                     	org	2097304
  2675  200098  FFFF               	dw	65535
  2676                           
  2677                           ;Config register IDLOC77 @ 0x20009A
  2678                           ;	unspecified, using default values
  2679  20009A                     	org	2097306
  2680  20009A  FFFF               	dw	65535
  2681                           
  2682                           ;Config register IDLOC78 @ 0x20009C
  2683                           ;	unspecified, using default values
  2684  20009C                     	org	2097308
  2685  20009C  FFFF               	dw	65535
  2686                           
  2687                           ;Config register IDLOC79 @ 0x20009E
  2688                           ;	unspecified, using default values
  2689  20009E                     	org	2097310
  2690  20009E  FFFF               	dw	65535
  2691                           
  2692                           ;Config register IDLOC80 @ 0x2000A0
  2693                           ;	unspecified, using default values
  2694  2000A0                     	org	2097312
  2695  2000A0  FFFF               	dw	65535
  2696                           
  2697                           ;Config register IDLOC81 @ 0x2000A2
  2698                           ;	unspecified, using default values
  2699  2000A2                     	org	2097314
  2700  2000A2  FFFF               	dw	65535
  2701                           
  2702                           ;Config register IDLOC82 @ 0x2000A4
  2703                           ;	unspecified, using default values
  2704  2000A4                     	org	2097316
  2705  2000A4  FFFF               	dw	65535
  2706                           
  2707                           ;Config register IDLOC83 @ 0x2000A6
  2708                           ;	unspecified, using default values
  2709  2000A6                     	org	2097318
  2710  2000A6  FFFF               	dw	65535
  2711                           
  2712                           ;Config register IDLOC84 @ 0x2000A8
  2713                           ;	unspecified, using default values
  2714  2000A8                     	org	2097320
  2715  2000A8  FFFF               	dw	65535
  2716                           
  2717                           ;Config register IDLOC85 @ 0x2000AA
  2718                           ;	unspecified, using default values
  2719  2000AA                     	org	2097322
  2720  2000AA  FFFF               	dw	65535
  2721                           
  2722                           ;Config register IDLOC86 @ 0x2000AC
  2723                           ;	unspecified, using default values
  2724  2000AC                     	org	2097324
  2725  2000AC  FFFF               	dw	65535
  2726                           
  2727                           ;Config register IDLOC87 @ 0x2000AE
  2728                           ;	unspecified, using default values
  2729  2000AE                     	org	2097326
  2730  2000AE  FFFF               	dw	65535
  2731                           
  2732                           ;Config register IDLOC88 @ 0x2000B0
  2733                           ;	unspecified, using default values
  2734  2000B0                     	org	2097328
  2735  2000B0  FFFF               	dw	65535
  2736                           
  2737                           ;Config register IDLOC89 @ 0x2000B2
  2738                           ;	unspecified, using default values
  2739  2000B2                     	org	2097330
  2740  2000B2  FFFF               	dw	65535
  2741                           
  2742                           ;Config register IDLOC90 @ 0x2000B4
  2743                           ;	unspecified, using default values
  2744  2000B4                     	org	2097332
  2745  2000B4  FFFF               	dw	65535
  2746                           
  2747                           ;Config register IDLOC91 @ 0x2000B6
  2748                           ;	unspecified, using default values
  2749  2000B6                     	org	2097334
  2750  2000B6  FFFF               	dw	65535
  2751                           
  2752                           ;Config register IDLOC92 @ 0x2000B8
  2753                           ;	unspecified, using default values
  2754  2000B8                     	org	2097336
  2755  2000B8  FFFF               	dw	65535
  2756                           
  2757                           ;Config register IDLOC93 @ 0x2000BA
  2758                           ;	unspecified, using default values
  2759  2000BA                     	org	2097338
  2760  2000BA  FFFF               	dw	65535
  2761                           
  2762                           ;Config register IDLOC94 @ 0x2000BC
  2763                           ;	unspecified, using default values
  2764  2000BC                     	org	2097340
  2765  2000BC  FFFF               	dw	65535
  2766                           
  2767                           ;Config register IDLOC95 @ 0x2000BE
  2768                           ;	unspecified, using default values
  2769  2000BE                     	org	2097342
  2770  2000BE  FFFF               	dw	65535
  2771                           
  2772                           ;Config register IDLOC96 @ 0x2000C0
  2773                           ;	unspecified, using default values
  2774  2000C0                     	org	2097344
  2775  2000C0  FFFF               	dw	65535
  2776                           
  2777                           ;Config register IDLOC97 @ 0x2000C2
  2778                           ;	unspecified, using default values
  2779  2000C2                     	org	2097346
  2780  2000C2  FFFF               	dw	65535
  2781                           
  2782                           ;Config register IDLOC98 @ 0x2000C4
  2783                           ;	unspecified, using default values
  2784  2000C4                     	org	2097348
  2785  2000C4  FFFF               	dw	65535
  2786                           
  2787                           ;Config register IDLOC99 @ 0x2000C6
  2788                           ;	unspecified, using default values
  2789  2000C6                     	org	2097350
  2790  2000C6  FFFF               	dw	65535
  2791                           
  2792                           ;Config register IDLOC100 @ 0x2000C8
  2793                           ;	unspecified, using default values
  2794  2000C8                     	org	2097352
  2795  2000C8  FFFF               	dw	65535
  2796                           
  2797                           ;Config register IDLOC101 @ 0x2000CA
  2798                           ;	unspecified, using default values
  2799  2000CA                     	org	2097354
  2800  2000CA  FFFF               	dw	65535
  2801                           
  2802                           ;Config register IDLOC102 @ 0x2000CC
  2803                           ;	unspecified, using default values
  2804  2000CC                     	org	2097356
  2805  2000CC  FFFF               	dw	65535
  2806                           
  2807                           ;Config register IDLOC103 @ 0x2000CE
  2808                           ;	unspecified, using default values
  2809  2000CE                     	org	2097358
  2810  2000CE  FFFF               	dw	65535
  2811                           
  2812                           ;Config register IDLOC104 @ 0x2000D0
  2813                           ;	unspecified, using default values
  2814  2000D0                     	org	2097360
  2815  2000D0  FFFF               	dw	65535
  2816                           
  2817                           ;Config register IDLOC105 @ 0x2000D2
  2818                           ;	unspecified, using default values
  2819  2000D2                     	org	2097362
  2820  2000D2  FFFF               	dw	65535
  2821                           
  2822                           ;Config register IDLOC106 @ 0x2000D4
  2823                           ;	unspecified, using default values
  2824  2000D4                     	org	2097364
  2825  2000D4  FFFF               	dw	65535
  2826                           
  2827                           ;Config register IDLOC107 @ 0x2000D6
  2828                           ;	unspecified, using default values
  2829  2000D6                     	org	2097366
  2830  2000D6  FFFF               	dw	65535
  2831                           
  2832                           ;Config register IDLOC108 @ 0x2000D8
  2833                           ;	unspecified, using default values
  2834  2000D8                     	org	2097368
  2835  2000D8  FFFF               	dw	65535
  2836                           
  2837                           ;Config register IDLOC109 @ 0x2000DA
  2838                           ;	unspecified, using default values
  2839  2000DA                     	org	2097370
  2840  2000DA  FFFF               	dw	65535
  2841                           
  2842                           ;Config register IDLOC110 @ 0x2000DC
  2843                           ;	unspecified, using default values
  2844  2000DC                     	org	2097372
  2845  2000DC  FFFF               	dw	65535
  2846                           
  2847                           ;Config register IDLOC111 @ 0x2000DE
  2848                           ;	unspecified, using default values
  2849  2000DE                     	org	2097374
  2850  2000DE  FFFF               	dw	65535
  2851                           
  2852                           ;Config register IDLOC112 @ 0x2000E0
  2853                           ;	unspecified, using default values
  2854  2000E0                     	org	2097376
  2855  2000E0  FFFF               	dw	65535
  2856                           
  2857                           ;Config register IDLOC113 @ 0x2000E2
  2858                           ;	unspecified, using default values
  2859  2000E2                     	org	2097378
  2860  2000E2  FFFF               	dw	65535
  2861                           
  2862                           ;Config register IDLOC114 @ 0x2000E4
  2863                           ;	unspecified, using default values
  2864  2000E4                     	org	2097380
  2865  2000E4  FFFF               	dw	65535
  2866                           
  2867                           ;Config register IDLOC115 @ 0x2000E6
  2868                           ;	unspecified, using default values
  2869  2000E6                     	org	2097382
  2870  2000E6  FFFF               	dw	65535
  2871                           
  2872                           ;Config register IDLOC116 @ 0x2000E8
  2873                           ;	unspecified, using default values
  2874  2000E8                     	org	2097384
  2875  2000E8  FFFF               	dw	65535
  2876                           
  2877                           ;Config register IDLOC117 @ 0x2000EA
  2878                           ;	unspecified, using default values
  2879  2000EA                     	org	2097386
  2880  2000EA  FFFF               	dw	65535
  2881                           
  2882                           ;Config register IDLOC118 @ 0x2000EC
  2883                           ;	unspecified, using default values
  2884  2000EC                     	org	2097388
  2885  2000EC  FFFF               	dw	65535
  2886                           
  2887                           ;Config register IDLOC119 @ 0x2000EE
  2888                           ;	unspecified, using default values
  2889  2000EE                     	org	2097390
  2890  2000EE  FFFF               	dw	65535
  2891                           
  2892                           ;Config register IDLOC120 @ 0x2000F0
  2893                           ;	unspecified, using default values
  2894  2000F0                     	org	2097392
  2895  2000F0  FFFF               	dw	65535
  2896                           
  2897                           ;Config register IDLOC121 @ 0x2000F2
  2898                           ;	unspecified, using default values
  2899  2000F2                     	org	2097394
  2900  2000F2  FFFF               	dw	65535
  2901                           
  2902                           ;Config register IDLOC122 @ 0x2000F4
  2903                           ;	unspecified, using default values
  2904  2000F4                     	org	2097396
  2905  2000F4  FFFF               	dw	65535
  2906                           
  2907                           ;Config register IDLOC123 @ 0x2000F6
  2908                           ;	unspecified, using default values
  2909  2000F6                     	org	2097398
  2910  2000F6  FFFF               	dw	65535
  2911                           
  2912                           ;Config register IDLOC124 @ 0x2000F8
  2913                           ;	unspecified, using default values
  2914  2000F8                     	org	2097400
  2915  2000F8  FFFF               	dw	65535
  2916                           
  2917                           ;Config register IDLOC125 @ 0x2000FA
  2918                           ;	unspecified, using default values
  2919  2000FA                     	org	2097402
  2920  2000FA  FFFF               	dw	65535
  2921                           
  2922                           ;Config register IDLOC126 @ 0x2000FC
  2923                           ;	unspecified, using default values
  2924  2000FC                     	org	2097404
  2925  2000FC  FFFF               	dw	65535
  2926                           
  2927                           ;Config register IDLOC127 @ 0x2000FE
  2928                           ;	unspecified, using default values
  2929  2000FE                     	org	2097406
  2930  2000FE  FFFF               	dw	65535
  2931                           
  2932                           	psect	config
  2933                           
  2934                           ;Config register CONFIG1L @ 0x300000
  2935                           ;	External Oscillator mode Selection bits
  2936                           ;	FEXTOSC = OFF, Oscillator not enabled
  2937                           ;	Power-up default value for COSC bits
  2938                           ;	RSTOSC = HFINTOSC_64MHZ, HFINTOSC with HFFRQ = 64 MHz and CDIV = 1:1
  2939  300000                     	org	3145728
  2940  300000  8C                 	db	140
  2941                           
  2942                           ;Config register CONFIG1H @ 0x300001
  2943                           ;	Clock Out Enable bit
  2944                           ;	CLKOUTEN = OFF, CLKOUT function is disabled
  2945                           ;	Clock Switch Enable bit
  2946                           ;	CSWEN = ON, Writing to NOSC and NDIV is allowed
  2947                           ;	Fail-Safe Clock Monitor Enable bit
  2948                           ;	FCMEN = ON, Fail-Safe Clock Monitor enabled
  2949  300001                     	org	3145729
  2950  300001  FF                 	db	255
  2951                           
  2952                           ;Config register CONFIG2L @ 0x300002
  2953                           ;	Master Clear Enable bit
  2954                           ;	MCLRE = EXTMCLR, MCLR pin (RE3) is MCLR
  2955                           ;	Power-up Timer Enable bit
  2956                           ;	PWRTE = OFF, Power up timer disabled
  2957                           ;	Low-power BOR enable bit
  2958                           ;	LPBOREN = OFF, Low power BOR is disabled
  2959                           ;	Brown-out Reset Enable bits
  2960                           ;	BOREN = SBORDIS, Brown-out Reset enabled , SBOREN bit is ignored
  2961  300002                     	org	3145730
  2962  300002  FF                 	db	255
  2963                           
  2964                           ;Config register CONFIG2H @ 0x300003
  2965                           ;	Brown Out Reset Voltage selection bits
  2966                           ;	BORV = VBOR_190, Brown-out Reset Voltage (VBOR) set to 1.90V
  2967                           ;	ZCD Disable bit
  2968                           ;	ZCD = OFF, ZCD disabled. ZCD can be enabled by setting the ZCDSEN bit of ZCDCON
  2969                           ;	PPSLOCK bit One-Way Set Enable bit
  2970                           ;	PPS1WAY = ON, PPSLOCK bit can be cleared and set only once; PPS registers remain locke
      +                          d after one clear/set cycle
  2971                           ;	Stack Full/Underflow Reset Enable bit
  2972                           ;	STVREN = ON, Stack full/underflow will cause Reset
  2973                           ;	Extended Instruction Set Enable bit
  2974                           ;	XINST = OFF, Extended Instruction Set and Indexed Addressing Mode disabled
  2975  300003                     	org	3145731
  2976  300003  FF                 	db	255
  2977                           
  2978                           ;Config register CONFIG3L @ 0x300004
  2979                           ;	WDT Period Select bits
  2980                           ;	WDTCPS = WDTCPS_31, Divider ratio 1:65536; software control of WDTPS
  2981                           ;	WDT operating mode
  2982                           ;	WDTE = OFF, WDT Disabled
  2983  300004                     	org	3145732
  2984  300004  9F                 	db	159
  2985                           
  2986                           ;Config register CONFIG3H @ 0x300005
  2987                           ;	WDT Window Select bits
  2988                           ;	WDTCWS = WDTCWS_7, window always open (100%); software control; keyed access not requi
      +                          red
  2989                           ;	WDT input clock selector
  2990                           ;	WDTCCS = SC, Software Control
  2991  300005                     	org	3145733
  2992  300005  FF                 	db	255
  2993                           
  2994                           ;Config register CONFIG4L @ 0x300006
  2995                           ;	Write Protection Block 0
  2996                           ;	WRT0 = OFF, Block 0 (000800-003FFFh) not write-protected
  2997                           ;	Write Protection Block 1
  2998                           ;	WRT1 = OFF, Block 1 (004000-007FFFh) not write-protected
  2999                           ;	Write Protection Block 2
  3000                           ;	WRT2 = OFF, Block 2 (008000-00BFFFh) not write-protected
  3001                           ;	Write Protection Block 3
  3002                           ;	WRT3 = OFF, Block 3 (00C000-00FFFFh) not write-protected
  3003  300006                     	org	3145734
  3004  300006  FF                 	db	255
  3005                           
  3006                           ;Config register CONFIG4H @ 0x300007
  3007                           ;	Configuration Register Write Protection bit
  3008                           ;	WRTC = OFF, Configuration registers (300000-30000Bh) not write-protected
  3009                           ;	Boot Block Write Protection bit
  3010                           ;	WRTB = OFF, Boot Block (000000-0007FFh) not write-protected
  3011                           ;	Data EEPROM Write Protection bit
  3012                           ;	WRTD = OFF, Data EEPROM not write-protected
  3013                           ;	Scanner Enable bit
  3014                           ;	SCANE = ON, Scanner module is available for use, SCANMD bit can control the module
  3015                           ;	Low Voltage Programming Enable bit
  3016                           ;	LVP = ON, Low voltage programming enabled. MCLR/VPP pin function is MCLR. MCLRE config
      +                          uration bit is ignored
  3017  300007                     	org	3145735
  3018  300007  FF                 	db	255
  3019                           
  3020                           ;Config register CONFIG5L @ 0x300008
  3021                           ;	UserNVM Program Memory Code Protection bit
  3022                           ;	CP = OFF, UserNVM code protection disabled
  3023                           ;	DataNVM Memory Code Protection bit
  3024                           ;	CPD = OFF, DataNVM code protection disabled
  3025  300008                     	org	3145736
  3026  300008  FF                 	db	255
  3027                           
  3028                           ;Config register CONFIG5H @ 0x300009
  3029                           ;	unspecified, using default values
  3030  300009                     	org	3145737
  3031  300009  FF                 	db	255
  3032                           
  3033                           ;Config register CONFIG6L @ 0x30000A
  3034                           ;	Table Read Protection Block 0
  3035                           ;	EBTR0 = OFF, Block 0 (000800-003FFFh) not protected from table reads executed in other
      +                           blocks
  3036                           ;	Table Read Protection Block 1
  3037                           ;	EBTR1 = OFF, Block 1 (004000-007FFFh) not protected from table reads executed in other
      +                           blocks
  3038                           ;	Table Read Protection Block 2
  3039                           ;	EBTR2 = OFF, Block 2 (008000-00BFFFh) not protected from table reads executed in other
      +                           blocks
  3040                           ;	Table Read Protection Block 3
  3041                           ;	EBTR3 = OFF, Block 3 (00C000-00FFFFh) not protected from table reads executed in other
      +                           blocks
  3042  30000A                     	org	3145738
  3043  30000A  FF                 	db	255
  3044                           
  3045                           ;Config register CONFIG6H @ 0x30000B
  3046                           ;	Boot Block Table Read Protection bit
  3047                           ;	EBTRB = OFF, Boot Block (000000-0007FFh) not protected from table reads executed in ot
      +                          her blocks
  3048  30000B                     	org	3145739
  3049  30000B  FF                 	db	255
  3050                           tosu	equ	0xFFF
  3051                           tosh	equ	0xFFE
  3052                           tosl	equ	0xFFD
  3053                           stkptr	equ	0xFFC
  3054                           pclatu	equ	0xFFB
  3055                           pclath	equ	0xFFA
  3056                           pcl	equ	0xFF9
  3057                           tblptru	equ	0xFF8
  3058                           tblptrh	equ	0xFF7
  3059                           tblptrl	equ	0xFF6
  3060                           tablat	equ	0xFF5
  3061                           prodh	equ	0xFF4
  3062                           prodl	equ	0xFF3
  3063                           indf0	equ	0xFEF
  3064                           postinc0	equ	0xFEE
  3065                           postdec0	equ	0xFED
  3066                           preinc0	equ	0xFEC
  3067                           plusw0	equ	0xFEB
  3068                           fsr0h	equ	0xFEA
  3069                           fsr0l	equ	0xFE9
  3070                           wreg	equ	0xFE8
  3071                           indf1	equ	0xFE7
  3072                           postinc1	equ	0xFE6
  3073                           postdec1	equ	0xFE5
  3074                           preinc1	equ	0xFE4
  3075                           plusw1	equ	0xFE3
  3076                           fsr1h	equ	0xFE2
  3077                           fsr1l	equ	0xFE1
  3078                           bsr	equ	0xFE0
  3079                           indf2	equ	0xFDF
  3080                           postinc2	equ	0xFDE
  3081                           postdec2	equ	0xFDD
  3082                           preinc2	equ	0xFDC
  3083                           plusw2	equ	0xFDB
  3084                           fsr2h	equ	0xFDA
  3085                           fsr2l	equ	0xFD9
  3086                           status	equ	0xFD8

Data Sizes:
    Strings     0
    Constant    0
    Data        0
    BSS         11
    Persistent  8
    Stack       0

Auto Spaces:
    Space          Size  Autos    Used
    COMRAM           95     10      29
    BANK0           160      0       0
    BANK1           256      0       0
    BANK2           256      0       0
    BANK3           256      0       0
    BANK4           256      0       0
    BANK5           256      0       0
    BANK6           256      0       0
    BANK7           256      0       0
    BANK8           256      0       0
    BANK9           256      0       0
    BANK10          256      0       0
    BANK11          256      0       0
    BANK12          256      0       0
    BANK13          255      0       0
    BANK14           31      0       0

Pointer List with Targets:

    EUSART1_SetErrorHandler@interruptHandler	PTR FTN()void  size(2) Largest target is 1
		 -> EUSART1_DefaultErrorHandler(), 

    EUSART1_ErrorHandler	PTR FTN()void  size(2) Largest target is 1
		 -> Absolute function(), EUSART1_DefaultErrorHandler(), 

    EUSART1_SetOverrunErrorHandler@interruptHandler	PTR FTN()void  size(2) Largest target is 1
		 -> EUSART1_DefaultOverrunErrorHandler(), 

    EUSART1_OverrunErrorHandler	PTR FTN()void  size(2) Largest target is 1
		 -> Absolute function(), EUSART1_DefaultOverrunErrorHandler(), 

    EUSART1_SetFramingErrorHandler@interruptHandler	PTR FTN()void  size(2) Largest target is 1
		 -> EUSART1_DefaultFramingErrorHandler(), 

    EUSART1_FramingErrorHandler	PTR FTN()void  size(2) Largest target is 1
		 -> Absolute function(), EUSART1_DefaultFramingErrorHandler(), 


Critical Paths under _main in COMRAM

    _main->_AdvanceLaneForPitch
    _SYSTEM_Initialize->_CRC_Initialize
    _EUSART1_Initialize->_EUSART1_SetErrorHandler
    _EUSART1_Initialize->_EUSART1_SetFramingErrorHandler
    _EUSART1_Initialize->_EUSART1_SetOverrunErrorHandler
    _AdvanceLaneForPitch->_IsRearSensorInterrupted
    _MotorsDisable->_HaltLaneMotor

Critical Paths under _main in BANK0

    None.

Critical Paths under _main in BANK1

    None.

Critical Paths under _main in BANK2

    None.

Critical Paths under _main in BANK3

    None.

Critical Paths under _main in BANK4

    None.

Critical Paths under _main in BANK5

    None.

Critical Paths under _main in BANK6

    None.

Critical Paths under _main in BANK7

    None.

Critical Paths under _main in BANK8

    None.

Critical Paths under _main in BANK9

    None.

Critical Paths under _main in BANK10

    None.

Critical Paths under _main in BANK11

    None.

Critical Paths under _main in BANK12

    None.

Critical Paths under _main in BANK13

    None.

Critical Paths under _main in BANK14

    None.

Call Graph Tables:

 ---------------------------------------------------------------------------------
 (Depth) Function   	        Calls       Base Space   Used Autos Params    Refs
 ---------------------------------------------------------------------------------
 (0) _main                                                 6     6      0     880
                                              8 COMRAM     2     2      0
                _AdvanceLaneForPitch
               _CommunicationHandler
                      _MotorsDisable
                  _SYSTEM_Initialize
 ---------------------------------------------------------------------------------
 (1) _SYSTEM_Initialize                                    0     0      0     354
                     _CRC_Initialize
                 _EUSART1_Initialize
              _OSCILLATOR_Initialize
             _PIN_MANAGER_Initialize
                     _PMD_Initialize
                    _TMR1_Initialize
                    _TMR2_Initialize
 ---------------------------------------------------------------------------------
 (2) _TMR2_Initialize                                      0     0      0       0
 ---------------------------------------------------------------------------------
 (2) _TMR1_Initialize                                      2     2      0       0
                                              0 COMRAM     2     2      0
 ---------------------------------------------------------------------------------
 (2) _PMD_Initialize                                       0     0      0       0
 ---------------------------------------------------------------------------------
 (2) _PIN_MANAGER_Initialize                               0     0      0       0
 ---------------------------------------------------------------------------------
 (2) _OSCILLATOR_Initialize                                0     0      0       0
 ---------------------------------------------------------------------------------
 (2) _EUSART1_Initialize                                   0     0      0     294
            _EUSART1_SetErrorHandler
     _EUSART1_SetFramingErrorHandler
     _EUSART1_SetOverrunErrorHandler
 ---------------------------------------------------------------------------------
 (3) _EUSART1_SetOverrunErrorHandler                       2     0      2      98
                                              0 COMRAM     2     0      2
 ---------------------------------------------------------------------------------
 (3) _EUSART1_SetFramingErrorHandler                       2     0      2      98
                                              0 COMRAM     2     0      2
 ---------------------------------------------------------------------------------
 (3) _EUSART1_SetErrorHandler                              2     0      2      98
                                              0 COMRAM     2     0      2
 ---------------------------------------------------------------------------------
 (2) _CRC_Initialize                                       5     5      0      60
                                              0 COMRAM     5     5      0
 ---------------------------------------------------------------------------------
 (1) _CommunicationHandler                                 0     0      0       0
                     _ReceiveMessage
                   _TransmitMessages
 ---------------------------------------------------------------------------------
 (2) _TransmitMessages                                     0     0      0       0
 ---------------------------------------------------------------------------------
 (2) _ReceiveMessage                                       0     0      0       0
                       _EUSART1_Read
                _EUSART1_is_rx_ready
                      _ParseMessages
 ---------------------------------------------------------------------------------
 (3) _ParseMessages                                        0     0      0       0
 ---------------------------------------------------------------------------------
 (3) _EUSART1_is_rx_ready                                  0     0      0       0
 ---------------------------------------------------------------------------------
 (3) _EUSART1_Read                                         0     0      0       0
 ---------------------------------------------------------------------------------
 (1) _AdvanceLaneForPitch                                  4     3      1     511
                                              4 COMRAM     4     3      1
              _DriveLaneMotorForward
              _DriveTapeMotorForward
                      _HaltLaneMotor
                      _HaltTapeMotor
            _IsRearSensorInterrupted
                      _MotorsDisable
                       _MotorsEnable
 ---------------------------------------------------------------------------------
 (2) _MotorsEnable                                         0     0      0       0
 ---------------------------------------------------------------------------------
 (1) _MotorsDisable                                        0     0      0      15
                      _HaltLaneMotor
 ---------------------------------------------------------------------------------
 (2) _HaltLaneMotor                                        3     3      0      15
                                              0 COMRAM     3     3      0
 ---------------------------------------------------------------------------------
 (2) _IsRearSensorInterrupted                              4     4      0      30
                                              0 COMRAM     4     4      0
 ---------------------------------------------------------------------------------
 (2) _HaltTapeMotor                                        0     0      0       0
 ---------------------------------------------------------------------------------
 (2) _DriveTapeMotorForward                                0     0      0       0
 ---------------------------------------------------------------------------------
 (2) _DriveLaneMotorForward                                3     3      0      15
                                              0 COMRAM     3     3      0
 ---------------------------------------------------------------------------------
 Estimated maximum stack depth 3
 ---------------------------------------------------------------------------------

 Call Graph Graphs:

 _main (ROOT)
   _AdvanceLaneForPitch
     _DriveLaneMotorForward
     _DriveTapeMotorForward
     _HaltLaneMotor
     _HaltTapeMotor
     _IsRearSensorInterrupted
     _MotorsDisable
       _HaltLaneMotor
     _MotorsEnable
   _CommunicationHandler
     _ReceiveMessage
       _EUSART1_Read
       _EUSART1_is_rx_ready
       _ParseMessages
     _TransmitMessages
   _MotorsDisable
     _HaltLaneMotor
   _SYSTEM_Initialize
     _CRC_Initialize
     _EUSART1_Initialize
       _EUSART1_SetErrorHandler
       _EUSART1_SetFramingErrorHandler
       _EUSART1_SetOverrunErrorHandler
     _OSCILLATOR_Initialize
     _PIN_MANAGER_Initialize
     _PMD_Initialize
     _TMR1_Initialize
     _TMR2_Initialize

 Address spaces:
Name               Size   Autos  Total    Cost      Usage
BIGRAMl            CFF      0       0      36        0.0%
EEDATA             400      0       0       0        0.0%
BIGRAMh            11E      0       0      35        0.0%
BITBANK12          100      0       0      29        0.0%
BANK12             100      0       0      30        0.0%
BITBANK11          100      0       0      27        0.0%
BANK11             100      0       0      28        0.0%
BITBANK10          100      0       0      25        0.0%
BANK10             100      0       0      26        0.0%
BITBANK9           100      0       0      22        0.0%
BANK9              100      0       0      23        0.0%
BITBANK8           100      0       0      20        0.0%
BANK8              100      0       0      21        0.0%
BITBANK7           100      0       0      18        0.0%
BANK7              100      0       0      19        0.0%
BITBANK6           100      0       0      16        0.0%
BANK6              100      0       0      17        0.0%
BITBANK5           100      0       0      14        0.0%
BANK5              100      0       0      15        0.0%
BITBANK4           100      0       0      12        0.0%
BANK4              100      0       0      13        0.0%
BITBANK3           100      0       0      10        0.0%
BANK3              100      0       0      11        0.0%
BITBANK2           100      0       0       8        0.0%
BANK2              100      0       0       9        0.0%
BITBANK1           100      0       0       6        0.0%
BANK1              100      0       0       7        0.0%
BITBANK13           FF      0       0      31        0.0%
BANK13              FF      0       0      32        0.0%
BITBANK0            A0      0       0       4        0.0%
BANK0               A0      0       0       5        0.0%
BITCOMRAM           5F      0       0       0        0.0%
COMRAM              5F      A      1D       1       30.5%
BITBANK14           1F      0       0      33        0.0%
BANK14              1F      0       0      34        0.0%
BITSFR_2             0      0       0     200        0.0%
SFR_2                0      0       0     200        0.0%
BITSFR_1             0      0       0     200        0.0%
SFR_1                0      0       0     200        0.0%
BITSFR               0      0       0     200        0.0%
SFR                  0      0       0     200        0.0%
STACK                0      0       0       2        0.0%
NULL                 0      0       0       0        0.0%
ABS                  0      0      1D      24        0.0%
DATA                 0      0      1D       3        0.0%
CODE                 0      0       0       0        0.0%


Microchip Technology PIC18 Macro Assembler V2.20 build 20200408173844 
Symbol Table                                                                                   Thu Dec 10 23:16:59 2020

                                            l61 FD2C                                              l54 FD24  
                                            l64 FD30                                              l58 FD28  
                                            u10 FC16                                              u70 FE04  
                                            u46 FDEC                                              u71 FE00  
                                            u80 FE3A                                             l113 FDA0  
                                           l124 FDAC                                             l119 FDA6  
                                           l129 FDB2                                             l180 FDF6  
                                           l181 FDFC                                             l177 FDE6  
                                           l179 FDF0                                             l697 FF72  
                                           u207 FF86                                             u160 FF22  
                                           u217 FFA8                                             u170 FF2E  
                                           u227 FFCA                                             u180 FF3A  
                                           u237 FFEC                                             u247 FF52  
                               _timer1ReloadVal 0016                         __size_of_PMD_Initialize 001C  
                               _TMR2_Initialize FC92                                             wreg 000FE8  
                                          l1402 FC2A                                            l1416 FD34  
                                          l1426 FE08                                            l1428 FE30  
                                          l1444 FCDE                                            l1384 FDB8  
                                          l1632 FF16                                            _LATA 000F82  
                                          _LATB 000F83                                            _LATC 000F84  
                                          _T2PR 000FBB                                            _PMD0 000EDC  
                                          _PMD1 000EDD                                            _PMD2 000EDE  
                                          _PMD3 000EDF                                            _PMD4 000EE0  
                                          _PMD5 000EE1                                            _WPUA 000F0B  
                                          _WPUB 000F13                                            _WPUC 000F1B  
                                          _WPUE 000F28                                            _main FF6A  
                                 ?_EUSART1_Read 000C                                            start 0000  
                      ?_IsRearSensorInterrupted 000C                                    ___param_bank 000000  
                           _AdvanceLaneForPitch FF04                  __size_of_DriveTapeMotorForward 0004  
                 __end_of_DriveTapeMotorForward FBDA                  __size_of_OSCILLATOR_Initialize 0016  
                 __end_of_OSCILLATOR_Initialize FC44                                           ?_main 000C  
                                         _T1CLK 000FD1                                           _T1CON 000FCE  
                                         _T2CON 000FBC                                           _T2HLT 000FBD  
                                         _T2TMR 000FBA                                           _T2RST 000FBF  
                                         _OSCEN 000ED7                                           _TMR1H 000FCD  
                                         _TMR1L 000FCC                                           _TRISA 000F87  
                                         _TRISB 000F88                                           _TRISC 000F89  
                          ?_AdvanceLaneForPitch 0010                                           _bufic 0008  
                       HaltLaneMotor@feederLane 000E                           __end_of_HaltLaneMotor FDE2  
                       __end_of_TMR1_Initialize FD20                                  ??_EUSART1_Read 000C  
                                         status 000FD8              _EUSART1_DefaultFramingErrorHandler 000000  
                               __initialization FC44                      __end_of_EUSART1_Initialize FD9C  
                                  __end_of_main 0000                           __end_of_HaltTapeMotor FBE4  
                       __end_of_TMR2_Initialize FCB0                                ??_CRC_Initialize 000C  
                                        ??_main 0014                                   __activetblptr 000002  
                         ??_AdvanceLaneForPitch 0011                                          _ANSELA 000F0C  
                                        _ANSELB 000F14                                          _ANSELC 000F1C  
                                        _T1GATE 000FD0                                          _T1GCON 000FCF  
                                        _RC1REG 000F98                           __end_of_MotorsDisable FC76  
                                        _RC1STA 000F9C                                          _RB4PPS 000EEE  
                                        _ODCONA 000F0A                                          _ODCONB 000F12  
                                        _ODCONC 000F1A                    __size_of_EUSART1_is_rx_ready 000E  
                                        _INLVLA 000F08                                          _INLVLB 000F10  
                                        _INLVLC 000F18                                          _INLVLE 000F25  
                                        _OSCFRQ 000ED9                 __end_of_IsRearSensorInterrupted FE3E  
                                        _RX1PPS 000EB0                          __size_of_ParseMessages 0002  
                                        _TX1STA 000F9D                       __size_of_TransmitMessages 0002  
                       ??_DriveLaneMotorForward 000C                                          _crcObj 0009  
                      ?_EUSART1_SetErrorHandler 000C                                          clear_0 FC4A  
              ??_EUSART1_SetOverrunErrorHandler 000E                 ?_EUSART1_SetOverrunErrorHandler 000C  
                                _PMD_Initialize FC76                                          tblptru 000FF8  
                              ?_TMR1_Initialize 000C                               _SYSTEM_Initialize FCB0  
                                    __accesstop 0060                         __end_of__initialization FC50  
                            ?_SYSTEM_Initialize 000C                                   ___rparam_used 000001  
                                __pcstackCOMRAM 000C                              CRC_Initialize@seed 000F  
                            CRC_Initialize@poly 000D                             ??_SYSTEM_Initialize 0011  
                              ?_TMR2_Initialize 000C                                   _ParseMessages FBD2  
                        __end_of_PMD_Initialize FC92                            __end_of_EUSART1_Read FC2E  
               AdvanceLaneForPitch@feedingPitch 0010                       __end_of_SYSTEM_Initialize FCCE  
                 __size_of_CommunicationHandler 000A                                      __pnvCOMRAM 0016  
               __end_of_EUSART1_SetErrorHandler FBF8                         __size_of_ReceiveMessage 0020  
                                ?_ParseMessages 000C                                         _CRCACCH 000F72  
                                       _CRCACCL 000F71                                 ?_PMD_Initialize 000C  
                                       _CRCCON0 000F77                                         _CRCCON1 000F78  
                               _outgoingMessage 0001          __end_of_EUSART1_SetFramingErrorHandler FC02  
       __size_of_EUSART1_SetFramingErrorHandler 000A                  _EUSART1_SetFramingErrorHandler FBF8  
                                       _CRCXORH 000F76                                         _CRCXORL 000F75  
                                 ?_MotorsEnable 000C                                         _T2INPPS 000EA6  
              __size_of_IsRearSensorInterrupted 005C                                         _SP1BRGH 000F9B  
                                       _SP1BRGL 000F9A                                         _OSCCON1 000ED3  
                                       _OSCCON3 000ED5                                         _OSCTUNE 000ED8  
                                       _SLRCONA 000F09                                         _SLRCONB 000F11  
                                       _SLRCONC 000F19                                _TransmitMessages FBD4  
                                       __Hparam 0000                                         __Lparam 0000  
                           _EUSART1_is_rx_ready FC0C                                         __pcinit FC44  
                         _DriveTapeMotorForward FBD6                                         __ramtop 0F00  
                                ??_MotorsEnable 000C                                         __ptext0 FF6A  
                                       __ptext1 FCB0                                         __ptext2 FC92  
                                       __ptext3 FCEE                                         __ptext4 FC76  
                                       __ptext5 FE3E                                         __ptext6 FC2E  
                                       __ptext7 FD5E                                         __ptext8 FC02  
                                       __ptext9 FBF8                           _OSCILLATOR_Initialize FC2E  
                            _EUSART1_Initialize FD5E                        ??_PIN_MANAGER_Initialize 000C  
             IsRearSensorInterrupted@feederLane 000E                      __size_of_SYSTEM_Initialize 001E  
                          end_of_initialization FC50                                       _SCANHADRH 000F48  
                                     _SCANHADRL 000F47                                       _SCANHADRU 000F49  
                          ?_EUSART1_is_rx_ready 000C                                       _SCANLADRH 000F45  
                                     _SCANLADRL 000F44                                       _SCANLADRU 000F46  
                           ?_EUSART1_Initialize 000C                                   __Lmediumconst 0000  
                   _EUSART1_OverrunErrorHandler 001A                  __size_of_DriveLaneMotorForward 003E  
                 __end_of_DriveLaneMotorForward FD5E                                 ??_ParseMessages 000C  
                                       postinc0 000FEE                           __size_of_EUSART1_Read 0014  
                          ??_EUSART1_Initialize 000E                          __size_of_HaltLaneMotor 0046  
                                     _PORTAbits 000F8C                                       _PORTBbits 000F8D  
                                     _PORTCbits 000F8E                     __end_of_AdvanceLaneForPitch FF6A  
              __size_of_EUSART1_SetErrorHandler 000A                           ??_EUSART1_is_rx_ready 000C  
                        __size_of_HaltTapeMotor 0006                                    _EUSART1_Read FC1A  
                                _ReceiveMessage FCCE                          ?_DriveTapeMotorForward 000C  
                        __size_of_MotorsDisable 001C                         _IsRearSensorInterrupted FDE2  
                        ?_OSCILLATOR_Initialize 000C                             start_initialization FC44  
               __size_of_PIN_MANAGER_Initialize 0062                   AdvanceLaneForPitch@feederLane 0013  
                       __size_of_CRC_Initialize 0064                                   _HaltLaneMotor FD9C  
                        __end_of_ReceiveMessage FCEE                            __end_of_MotorsEnable FBDE  
                      __size_of_TMR1_Initialize 0032                                ??_PMD_Initialize 000C  
                  __end_of_CommunicationHandler FBEE                                   _HaltTapeMotor FBDE  
                      __end_of_TransmitMessages FBD6                                     __pbssCOMRAM 0001  
                      __size_of_TMR2_Initialize 001E                                     _CRCCON1bits 000F78  
                                ?_HaltLaneMotor 000C                ??_EUSART1_SetFramingErrorHandler 000E  
               ?_EUSART1_SetFramingErrorHandler 000C                                   _MotorsDisable FC5A  
                               ?_ReceiveMessage 000C                          _PIN_MANAGER_Initialize FE3E  
                     ??_IsRearSensorInterrupted 000C                                  ?_HaltTapeMotor 000C  
                                      _BAUD1CON 000F9E              _EUSART1_DefaultOverrunErrorHandler 000000  
                          _EUSART1_ErrorHandler 0018                         _EUSART1_SetErrorHandler FBEE  
                                      _T2CLKCON 000FBE                                  ?_MotorsDisable 000C  
                                      _LATAbits 000F82         EUSART1_SetErrorHandler@interruptHandler 000C  
                                      _LATBbits 000F83                                        _LATCbits 000F84  
