:020000040000FA
:0400000022EF7EF07D
:10FBD20012001200828412008484120082928294A3
:10FBE200120067EC7EF0EAEC7DF012000CC018F017
:10FBF2000DC019F012000CC01CF00DC01DF0120057
:10FC02000CC01AF00DC01BF012000E01C8AB02D0DE
:10FC1200010E1200000E1200C8ABFED7000E076ED6
:10FC22009CA202D09C989C8898501200600ED36FC0
:10FC3200000ED56F000ED76F080ED96F000ED86F69
:10FC4200120000EE01F00B0EEE6AE806FDE1000E76
:10FC5200F86E0001B5EF7FF0010ECEEC7EF0020EE1
:10FC6200CEEC7EF0030ECEEC7EF0040ECEEC7EF0F7
:10FC720084941200000E0E01DC6F000EDD6F000E88
:10FC8200DE6F000EDF6F000EE06F000EE16F1200FC
:10FC9200040EBE6E280EBD6E000EBF6EF10EBB6E60
:10FCA200000EBA6E0E01C993F00EBC6E12003BEC50
:10FCB2007EF01FEC7FF017EC7EF050EC7FF049EC09
:10FCC2007EF077EC7EF0AFEC7EF0120006EC7EF078
:10FCD2000009D8B403D00DEC7EF001D0000E086EFE
:10FCE2000850D8B41200E9EC7DF01200000ECF6E7D
:10FCF200000ED06E040ED16ED20ECD6E970ECC6E6B
:10FD0200C991CC50CDCF0CF00D6A0CC00DF00C6A2D
:10FD12000C10166E0D50176E310ECE6E12000E6E56
:10FD220008D083861200848C12008480120082889C
:10FD320012000E500C6E0D6A0D50000AD8A412006B
:10FD42000C50010AD8B4EDD7030AD8B4ECD7010A93
:10FD5200D8B4EBD7070AD8A41200E9D7080E9E6ED2
:10FD6200900E9C6E240E9D6E8A0E9A6E000E9B6EF5
:10FD7200000E0C6E000E0D6EFCEC7DF0000E0C6E93
:10FD8200000E0D6E01EC7EF0000E0C6E000E0D6E7C
:10FD9200F7EC7DF0000E076E12000E6E0CD083960B
:10FDA20083921200849C849E12008490849212009A
:10FDB2008298829A12000E500C6E0D6A0D50000A43
:10FDC200D8A412000C50010AD8B4E9D7030AD8B457
:10FDD200E9D7010AD8B4E9D7070AD8A41200E8D7AC
:10FDE2000E6E11D08DA00DD00AD00F6E20D08EA82D
:10FDF20008D005D08CAC05D002D08CA602D0010E62
:10FE0200F4D7000EF2D70E500C6E0D6A0D50000A98
:10FE1200D8A40DD00C50010AD8B4E4D7030AD8B440
:10FE2200E6D7010AD8B4E6D7070AD8B4E6D70F5006
:10FE3200D8A402D0010E1200000E1200000E826E33
:10FE4200000E836E000E846EC90E876EE50E886EFC
:10FE5200380E896EC70E0F011C6FDA0E146F360E44
:10FE62000C6F000E286F000E136F000E0B6F000E4A
:10FE72001B6F000E0A6F000E126F000E1A6F0969D7
:10FE820011691969086910691869080E256F0D0E44
:10FE92000E01B06F130EA66F090EEE6F1200100E58
:10FEA200776E070E786E000E716E000E726E800E07
:10FEB2000F014A6F000E466F000E456F000E446F31
:10FEC2003F0E496F48694769000E4B6F000E0E6E78
:10FED200D50E0D6E0EC076FFD50E756E000E106E2D
:10FEE200000E0F6E10C072FF000E716E78380F0B8D
:10FEF2000C6E0C28096E78500F0B0C6E0C280A6ED3
:10FF02001200136EEDEC7DF0EBEC7DF0135090ECF3
:10FF12007EF012D01350F1EC7EF00009D8A4FAD78B
:10FF22001350F1EC7EF00009D8B4FAD71350F1EC7B
:10FF32007EF00009D8A4FAD710061028D8A4EAD770
:10FF42001350CEEC7EF0110E126E3C0E116ECB0EE3
:10FF5200E82EFED7112EFCD7122EFAD700F0EFECC6
:10FF62007DF02DEC7EF0120058EC7EF02DEC7EF050
:10FF7200010E106E010E82EC7FF0290E156E960EA8
:10FF8200146E7F0EE82EFED7142EFCD7152EFAD74C
:10FF920000F0010E106E020E82EC7FF0290E156E3B
:10FFA200960E146E7F0EE82EFED7142EFCD7152E59
:10FFB200FAD700F0010E106E030E82EC7FF0290ECC
:10FFC200156E960E146E7F0EE82EFED7142EFCD7F9
:10FFD200152EFAD700F0010E106E040E82EC7FF09F
:10FFE200290E156E960E146E7F0EE82EFED7142E75
:0EFFF200FCD7152EFAD700F0F2EC7DF0B9D74F
:020000040020DA
:10000000FFFFFFFFFFFFFFFFFFFFFFFFFFFFFFFF00
:10001000FFFFFFFFFFFFFFFFFFFFFFFFFFFFFFFFF0
:10002000FFFFFFFFFFFFFFFFFFFFFFFFFFFFFFFFE0
:10003000FFFFFFFFFFFFFFFFFFFFFFFFFFFFFFFFD0
:10004000FFFFFFFFFFFFFFFFFFFFFFFFFFFFFFFFC0
:10005000FFFFFFFFFFFFFFFFFFFFFFFFFFFFFFFFB0
:10006000FFFFFFFFFFFFFFFFFFFFFFFFFFFFFFFFA0
:10007000FFFFFFFFFFFFFFFFFFFFFFFFFFFFFFFF90
:10008000FFFFFFFFFFFFFFFFFFFFFFFFFFFFFFFF80
:10009000FFFFFFFFFFFFFFFFFFFFFFFFFFFFFFFF70
:1000A000FFFFFFFFFFFFFFFFFFFFFFFFFFFFFFFF60
:1000B000FFFFFFFFFFFFFFFFFFFFFFFFFFFFFFFF50
:1000C000FFFFFFFFFFFFFFFFFFFFFFFFFFFFFFFF40
:1000D000FFFFFFFFFFFFFFFFFFFFFFFFFFFFFFFF30
:1000E000FFFFFFFFFFFFFFFFFFFFFFFFFFFFFFFF20
:1000F000FFFFFFFFFFFFFFFFFFFFFFFFFFFFFFFF10
:020000040030CA
:0C0000008CFFFFFF9FFFFFFFFFFFFFFFD3
:00000001FF
